:020000040800F2
:10000000E00800206DF20008B5E80008B7E8000835
:10001000B9E80008BBE80008BDE8000800000000DF
:10002000000000000000000000000000BFE8000821
:10003000C1E8000800000000C3E80008C5E80008A7
:1000400065F3000869F300086DF3000871F3000818
:1000500075F3000879F300082DE6000847E600086C
:1000600057E6000867E6000877E6000891F3000805
:1000700077990008B19900085397000899970008EC
:10008000AB98000865980008ADF30008B1F30008CC
:10009000B5F30008B9F30008BDF3000887E60008CF
:1000A000C5F3000843E70008CDF30008D1F30008CA
:1000B0006DE70008D9F30008DDF30008E1F300085C
:1000C000E5F30008E9F30008EDF30008F1F3000898
:1000D000F5F30008D9960008EF9700080199000889
:1000E000D3E6000809F400080DF40008BFF34F8FB1
:1000F000DFF8240C006810F4E060DFF8B01B084360
:10010000DFF8141C0860BFF34F8F00BFFDE780B518
:10011000C0B202280CD1DFF8040C0079012805D107
:100120000020DFF8F81B0871FFF7E0FF002002BD98
:10013000C0B2032817D10120DFF8E01B08710020AE
:10014000DFF8001C08600020DFF8FC1B08600020BE
:10015000DFF8F81B08600120DFF8F41B08600020BE
:1001600002F060FAE2E70120E1E7DFF8B01B09796D
:10017000012902D00321017001E002210170002059
:10018000704780B5C0B2102802D0C0B202280BD18F
:10019000DFF8880B4079002803D002F0A2FE00208F
:1001A00002BD02F06DFEFAE7C0B2032807D1DFF806
:1001B0006C0B40790028F2D002F093FEF7E70120A3
:1001C000EEE780B5DFF8540B4079002803D002F049
:1001D0002DFF002000E0012002BDDFF8401B49791F
:1001E000002902D00221017001E0032101700020EA
:1001F000704780B5C0B2002812D10022002107202C
:1002000004F04EFCDFF8200C007A022802D0022015
:1002100000F0BDF80120DFF8041B0873002002BDC8
:10022000C0B2022805D100222521072004F038FCA5
:10023000E8E7C0B2032805D100223521072004F0E9
:100240002FFCDFE7C0B210F0F001202906D1002218
:100250000100C9B2072004F023FCD3E7C0B210F0BC
:10026000F001302906D100220100C9B2072004F0B4
:1002700017FCC7E70120D2E710B50400A4B2B4F51B
:10028000A04F01DD012013E00022210089B24720A8
:1002900004F03EFCDFF8900B048004F07DFFDFF8F3
:1002A000880B007A022802D0022000F070F80020AB
:1002B00010BD38B504000D00A4B2B4F5A04F01DDA7
:1002C000012015E00022210089B2472004F020FC23
:1002D000DFF8540B0480032000F059F800222900B5
:1002E00089B2482004F014FCDFF83C0BC5800020E4
:1002F00032BD10B582B0040001226946472004F0E7
:1003000021FD002801D0012009E0BDF80000DFF840
:10031000181B0880DFF8100B00882080002016BD15
:1003200080B5C0B2022811D10220DFF8FC1A887013
:100330000022DFF8F40A8178062004F0B1FB0022E5
:100340000021362004F0ACFB002002BDC0B203281F
:1003500004D10320DFF8D01A8870E9E70120F4E720
:1003600010B582B0040001226946062004F0B4FCF6
:10037000002801D0012009E09DF80000DFF8A81A4C
:100380008870DFF8A40A80782070002016BD80B540
:10039000C0B202280CD10220DFF88C1A08720022A9
:1003A000DFF8840A017A382004F07AFB002002BDCD
:1003B000C0B2032804D10320DFF86C1A0872EEE7FC
:1003C0000120F4E710B50400DFF8400B007A0328A1
:1003D00002D00320FFF7DBFFE4B2002C06D100229D
:1003E0000021082004F05CFB002010BDE4B2022CC8
:1003F00005D100220221082004F052FBF4E7E4B208
:10040000032C05D100220321082004F049FBEBE76F
:10041000E4B214F0F000202806D100222100C9B275
:10042000082004F03DFBDFE7E4B214F0F0003028D0
:1004300006D100222100C9B2082004F031FBD3E725
:100440000120D2E710B50400DFF8C00A007A0328C3
:1004500002D00320FFF79BFF0022210089B2482031
:1004600004F056FBDFF8A40AC480002010BD10B5CC
:1004700082B0040001226946382004F02DFC0028D7
:1004800001D0012009E09DF80000DFF8801A087211
:10049000DFF8780A007A2070002016BD10B582B00F
:1004A000040001226946482004F04CFC002801D0D9
:1004B000012009E0BDF80000DFF8501AC880DFF81D
:1004C0004C0AC0882080002016BD80B5C0B202282A
:1004D00002D0C0B203280BD1DFF8301A8872002294
:1004E000DFF8280A817A582004F0DAFA002000E0C8
:1004F000012002BD80B5C0B2092802DADFF80C1A6B
:10050000C8720022DFF8040AC17A352004F0C8FA64
:10051000002002BD10B582B0040000208DF800005C
:1005200001226946352004F0D7FB002801D00120C4
:1005300009E09DF80000DFF8D419C872DFF8CC0993
:10054000C07A2070002016BD80B5DFF8C019C97AC6
:10055000052901D0012017E0C0B202281AD1DFF826
:10056000AC09007BFF2810D0DFF8A009007B401CFD
:10057000DFF8981908730022DFF89009017B89B22F
:10058000432004F0C5FA002002BD0020DFF87C19EA
:100590000873F0E7C0B2032811D1DFF87009007BBF
:1005A000002807D0DFF86409007B401EDFF85C19E3
:1005B0000873E0E7FF20DFF854190873DBE7012038
:1005C000E2E780B5DFF8441908730022DFF83C0940
:1005D000017B89B2432004F09BFA002002BD10B5D4
:1005E00082B004000020ADF80000012269464320DB
:1005F00004F0A8FB002801D0012009E0BDF80000AC
:10060000DFF808190873DFF80409007B2070002068
:1006100016BD80B5DFF8F418C97A052901D001208C
:1006200017E0C0B202281AD1DFF8E008407BFF28AB
:1006300010D0DFF8D808407B401CDFF8D018487392
:100640000022DFF8C808417B89B2442004F060FA38
:10065000002002BD0020DFF8B4184873F0E7C0B2F4
:10066000032811D1DFF8A408407B002807D0DFF869
:100670009C08407B401EDFF894184873E0E7FF2099
:10068000DFF888184873DBE70120E2E780B5DFF880
:100690007C1848730022DFF87408417B89B244203B
:1006A00004F036FA002002BD10B582B0040000202C
:1006B000ADF8000001226946442004F043FB002805
:1006C00001D0012009E0BDF80000DFF840184873B0
:1006D000DFF83808407B2070002016BD80B500226E
:1006E0000521102004F0DCF9002002BD80B5C0B265
:1006F00000280BD0C0B2032808D0C0B20A2805D009
:10070000C0B20B2802D0C0B20D280BD1DFF8FC1705
:1007100088730022DFF8F407817B392004F0C0F9E8
:10072000002000E0012002BD10B582B004000020CE
:100730008DF8000001226946392004F0CDFA002826
:1007400001D0012009E09DF80000DFF8C017887390
:10075000DFF8B807807B2070002016BD80B5DFF879
:10076000AC17897B0A2906D0DFF8A017897B0329FB
:1007700001D0012017E0C0B202281AD1DFF88C079F
:10078000007C152810DADFF88407007C401CDFF8B5
:100790007C1708740022DFF87407017C89B24A20B4
:1007A00004F0B6F9002002BD1520DFF860170874C8
:1007B000F0E7C0B2032811D1DFF85007007C002811
:1007C00007D0DFF84807007C401EDFF840170874A8
:1007D000E0E70020DFF834170874DBE70120E2E7E8
:1007E00080B5C0B2DFF82417897B0A2906D0DFF86C
:1007F0001C17897B032901D0012011E0B0F11501FC
:10080000012901D301200BE0DFF800170874002252
:10081000DFF8F806017C89B24A2004F079F900205B
:1008200002BD10B582B004000020ADF80000012226
:1008300069464A2004F086FA002801D0012009E028
:10084000BDF80000DFF8C4160874DFF8C006007CAD
:100850002070002016BD80B5DFF8B016897B0B290B
:1008600006D0DFF8A816897B032901D0012017E004
:10087000C0B202281AD1DFF89406407C0D2810DAA5
:10088000DFF88806407C401CDFF8801648740022A0
:10089000DFF87806417C89B24B2004F039F900205A
:1008A00002BD0D20DFF864164874F0E7C0B20328DB
:1008B00011D1DFF85806407C002807D0DFF84C063D
:1008C000407C401EDFF844164874E0E70020DFF863
:1008D0003C164874DBE70120E2E780B5C0B2DFF8E0
:1008E0002C16897B0B2906D0DFF82016897B03297B
:1008F00001D0012010E0011E0E2901D301200BE0E0
:10090000DFF8081648740022DFF80006417C89B23F
:100910004B2004F0FDF8002002BD10B582B00400A9
:100920000020ADF80000012269464B2004F00AFACD
:10093000002801D0012009E0BDF80000DFF8CC1547
:100940004874DFF8C805407C2070002016BD80B5D3
:10095000DFF8B815897B0D2901D0012017E0C0B25E
:1009600002281AD1DFF8A405807C1B2810DADFF8F2
:100970009C05807C401CDFF8941588740022DFF809
:100980008C05817C89B24D2004F0C2F8002002BDA4
:100990001B20DFF878158874F0E7C0B2032811D166
:1009A000DFF86805807C002807D0DFF86005807CD0
:1009B000401EDFF858158874E0E70020DFF84C157A
:1009C0008874DBE70120E2E780B5C0B2DFF83C15B0
:1009D000897B0D2901D0012010E0011E1C2901D3C3
:1009E00001200BE0DFF8241588740022DFF81C05D5
:1009F000817C89B24D2004F08BF8002002BD10B537
:100A000082B004000020ADF80000012269464D20AC
:100A100004F098F9002801D0012009E0BDF8000099
:100A2000DFF8E8148874DFF8E404807C207000208C
:100A300016BD80B5DFF8D414897B032901D00120CD
:100A400017E0C0B202281AD1DFF8C004C07C0F281A
:100A500010DADFF8B804C07C401CDFF8B014C874AA
:100A60000022DFF8A804C17C89B24C2004F050F8C1
:100A7000002002BD0F20DFF89414C874F0E7C0B264
:100A8000032811D1DFF88404C07C002807D0DFF8E8
:100A90007C04C07C401EDFF87414C874E0E70020BA
:100AA000DFF86814C874DBE70120E2E780B5C0B264
:100AB000DFF85814897B032901D0012010E0011EC2
:100AC000102901D301200BE0DFF84014C874002284
:100AD000DFF83804C17C89B24C2004F019F80020FA
:100AE00002BD10B582B004000020ADF80000012264
:100AF00069464C2004F026F9002801D0012009E0C5
:100B0000BDF80000DFF80414C874DFF80004C07CEE
:100B10002070002016BD80B5C0B202281AD1DFF8BF
:100B2000EC03407D0F2810DADFF8E003407D401C25
:100B3000DFF8D81348750022DFF8D003417D89B271
:100B4000A42003F0E5FF002002BD0F20DFF8BC1356
:100B50004875F0E7C0B2032811D1DFF8B003407D3B
:100B6000002807D0DFF8A403407D401EDFF89C1367
:100B70004875E0E70020DFF894134875DBE7C0B262
:100B8000002804D10820DFF884134875D3E701203A
:100B9000DAE780B5C0B2011E102901D301200BE0B5
:100BA000DFF8681348750022DFF86003417D89B2E1
:100BB000A42003F0ADFF002002BD10B582B00400F8
:100BC0000020ADF8000001226946A42004F0BAF824
:100BD000002801D0012007E0BDF80000CB4948758E
:100BE000CA48407D2070002016BD80B5C0B20228E2
:100BF0000AD10220C54988750022C448817D33206E
:100C000003F04EFF002002BDC0B2032803D1032031
:100C1000BE498875F0E70120F5E710B582B0040001
:100C200000208DF8000001226946332004F054F8BA
:100C3000002801D0012007E09DF80000B349887525
:100C4000B248807D2070002016BD80B5C0B2022859
:100C50000AD10220AD49C8750022AC48C17DA6204A
:100C600003F01EFF002002BDC0B2032803D1032001
:100C7000A649C875F0E70120F5E710B582B0040079
:100C800000208DF8000001226946A62004F024F817
:100C9000002801D0012007E09DF800009B49C8759D
:100CA0009A48C07D2070002016BD00000400FA059F
:100CB00080B5C0B2022815D19448007F0F280DDA04
:100CC0009248007F401C9149087700228F48017F9D
:100CD00089B2422003F01CFF002002BD01208B4995
:100CE0000877F2E7C0B203280DD18848007F0228B8
:100CF00005DB8648007F401E84490877E5E70F2022
:100D000082490877E1E7C0B2002803D106207F4975
:100D10000877DAE70120E0E70CED00E0CC180020CE
:100D200080B5C0B2411E0F2901D3012009E07749E7
:100D3000087700227548017F89B2422003F0E8FE5F
:100D4000002002BD84812142B8812142B4012242A7
:100D5000BC81214210B582B004000020ADF8000033
:100D600001226946422003F0EDFF002801D0012056
:100D700007E0BDF80000654908776448007F2070EF
:100D8000002016BD80B5C0B2052801DB012008E0B7
:100D90005E49487700225D48417F5B2003F080FE7A
:100DA000002002BD10B582B0040000208DF80000C4
:100DB000012269465B2003F08FFF002801D001204B
:100DC00007E09DF80000514948775048407F207067
:100DD000002016BD80B5C0B2011E102901D301202C
:100DE00009E04A49887600224848817E89B2A120DC
:100DF00003F08EFE002002BD10B582B0040000207A
:100E0000ADF8000001226946A12003F09BFF0028F5
:100E100001D0012007E0BDF800003C4988763B483E
:100E2000807E2070002016BDC017002080B5C0B2A3
:100E3000011E102901D3012009E03449C87600229F
:100E40003248C17E89B2A22003F062FE002002BDBA
:100E500010B582B004000020ADF800000122694600
:100E6000A22003F06FFF002801D0012007E0BDF8A9
:100E700000002649C8762548C07E2070002016BD97
:100E800080B5C0B203280CD10020204981F8210090
:100E900000221E4890F82110A32003F001FE00203C
:100EA00002BDC0B2022808D1C9B2102901DB01205D
:100EB000F6E7164880F82110EAE70120F0E738B598
:100EC00004000D0000208DF8000001226946A320D7
:100ED00003F002FF002801D0012015E09DF800007A
:100EE0000A4981F82100094890F82100002804D11E
:100EF000032020700020287005E0022020700348A5
:100F000090F821002870002032BD0000C01700209A
:100F100080B5C0B202280AD10220DFF86C1CC87765
:100F2000DFF8640CC07F02280BD101210AE0C0B2B7
:100F3000032804D10320DFF8501CC877F0E7012014
:100F400006E000210022C9B2A52003F0A9FD00207F
:100F500002BD10B582B0040000208DF8000001220F
:100F60006946A52003F0B8FE002801D001200EE05C
:100F70009DF80000012801D1022000E00320DFF8E5
:100F8000081CC877DFF8000CC07F2070002016BD59
:100F900080B5C0B2062801DB01200CE0DFF8E81BB9
:100FA00081F820000022DFF8E00B90F82010532099
:100FB00003F076FD002002BD10B582B004000020D1
:100FC0008DF8000001226946532003F085FE0028B9
:100FD00001D001200BE09DF80000DFF8AC1B81F888
:100FE0002000DFF8A40B90F820002070002016BD30
:100FF00080B5C0B2032801DB01200CE0DFF8881BBC
:1010000081F822000022DFF8800B90F82210AA203D
:1010100003F046FD002002BD10B582B004000020A0
:101020008DF8000001226946AA2003F055FE002831
:1010300001D001200BE09DF80000DFF84C1B81F887
:101040002200DFF8440B90F822002070002016BD2B
:1010500080B5C0B2072801DB012020E0C0B2002823
:1010600009D10320DFF8201B0876002203213D2050
:1010700003F016FD12E00221DFF80C2B1176DFF8E9
:10108000081B4876002202213D2003F009FD0022C2
:10109000DFF8F40A417ED32003F002FD002002BDF8
:1010A00010B582B0040000208DF8000001226946CE
:1010B0003D2003F011FE002801D001201FE09DF823
:1010C0000000DFF8C41A087601226946D32003F035
:1010D00003FE002801D0012011E09DF80000DFF898
:1010E000A81A4876DFF8A00A007E032802D1002063
:1010F000207003E0DFF8900A407E2070002016BDCB
:1011000080B5C0B2022817D10220DFF87C1A81F81E
:101110002500DFF8740A90F82600022806D1002284
:101120000221612003F0BCFC002002BD002202214C
:10113000612003F0B5FCF7E7C0B2032816D1032005
:10114000DFF8441A81F82500DFF83C0A90F8260001
:10115000022805D100220321612003F0A1FCE3E76E
:1011600000220321612003F09BFCDDE70120DCE786
:1011700010B582B0040000208DF8000001226946FD
:10118000612003F0A9FD002801D001200BE09DF8AB
:101190000000DFF8F41981F82500DFF8EC0990F879
:1011A00025002070002016BD80B5C0B2022811D1E4
:1011B0000220DFF8D41981F82600002202216620DF
:1011C00003F06EFCDFF8C00990F82500FFF798FFE8
:1011D000002002BDC0B203280AD10320DFF8A819FD
:1011E00081F8260000220321662003F059FCE9E77C
:1011F0000120EEE710B582B0040000208DF8000059
:1012000001226946662003F067FD002801D0012015
:1012100011E09DF80000DFF8701981F82600DFF872
:10122000680990F82600022802D10220207001E00F
:1012300003202070002016BD80B5C0B202280ED158
:101240000220DFF8441981F823000022DFF8380972
:1012500090F82310752003F023FC002002BDC0B2DB
:10126000032805D10320DFF8201981F82300ECE7DB
:101270000120F3E710B582B0040000208DF80000D3
:1012800001226946752003F027FD002801D00120C6
:101290000BE09DF80000DFF8F01881F82300DFF87C
:1012A000E80890F823002070002016BD80B5C0B279
:1012B00002280ED10220DFF8D01881F82400002285
:1012C000DFF8C40890F82410622003F0E9FB002046
:1012D00002BDC0B2032805D10320DFF8AC1881F8A5
:1012E0002400ECE70120F3E710B582B004000020F1
:1012F0008DF8000001226946622003F0EDFC002811
:1013000001D001200BE09DF80000DFF87C1881F887
:101310002400DFF8740890F824002070002016BD27
:1013200080B5C0B202280ED10220DFF85C1881F827
:1013300027000022DFF8500890F82710152003F04E
:10134000AFFB002002BDC0B2032805D10320DFF8A7
:10135000381881F82700ECE70120F3E780B5C0B228
:10136000022811D10220DFF8201881F8290000227C
:10137000DFF8140890F8290090F00301C9B2AE20FC
:1013800003F08EFB002002BDC0B2032805D103206C
:10139000DFF8F41781F82900E9E70120F3E780B5C9
:1013A00000208DF8000001226946AE2003F094FC75
:1013B000002801D001200FE09DF80000002805D092
:1013C0000220DFF8C41781F8290004E00320DFF8C9
:1013D000B81781F82900002002BD80B5C0B20128ED
:1013E0000BD1DFF8A407C1620022DFF89C07C16AB5
:1013F000AB2003F015FC002002BDC0B2022807D1CB
:101400000022DFF88407016BAC2003F009FCF2E74F
:10141000C0B2AD2807D10022DFF86C07416BAD20C8
:1014200003F0FEFBE7E70120E6E710B582B00C0011
:1014300000210091C0B2012812D101226946AB20DF
:1014400003F0C6FC002801D0012008E00098DFF876
:10145000381DC862DFF8300DC06A2060002016BD5C
:10146000C0B2022811D101226946AC2003F0B0FCC1
:10147000002801D00120F2E70098DFF80C1D086376
:10148000DFF8040D006B2060E8E7C0B2032811D13B
:1014900001226946AD2003F09BFC002801D0012009
:1014A000DDE70098DFF8E01C4863DFF8DC0C406BF8
:1014B0002060D3E70120D2E7F0B595B006000C001C
:1014C0002421552202AD280004F0CAF9DFF8BC0C33
:1014D000C07B012806D1E4B2242000FB04F010F503
:1014E000407505E0E4B2242000FB04F010F1C005D3
:1014F000F6B2002E0CD1242202A9280080B204F0FA
:1015000040FBE4B2200001F01EFA002015B0F0BD4F
:10151000F6B2012E40F0AF800020ADF804000020AC
:10152000ADF8040001A8FEF7E4FE002801D0012078
:10153000ECE7BDF80400ADF8100001A8FEF7AEFF1F
:10154000002801D00120E1E7BDF80400ADF8120049
:10155000002005F0BEF80290012005F0BAF80390D3
:10156000DFF82406C07A8DF81400DFF81C06007B33
:101570008DF81500DFF81006407B8DF81600DFF8B7
:101580000806807B8DF81700DFF8FC05007C8DF8DD
:101590001800DFF8F405C07B8DF81900DFF8E805C6
:1015A000407C8DF81A00DFF8E005807C8DF81B0088
:1015B000DFF8D405C07C8DF81C00DFF8CC05407D39
:1015C0008DF81D00DFF8C005807D8DF81E00DFF866
:1015D000B805C07D8DF81F00DFF8AC05C07E8DF822
:1015E0002100DFF8A405807E8DF82200DFF8980541
:1015F000007F8DF82300DFF89005407F8DF82400F0
:10160000DFF88405807F8DF82500DFF87C0590F8F1
:1016100020008DF82600DFF87005007E8DF8270089
:10162000202102A801F053F90A900026242202A9E1
:10163000280080B204F0A5FA2421FF220BAF380065
:1016400004F00EF924220BA9280080B204F05CFA01
:101650003000461CC0B2042801DB012056E72422DA
:101660000BA902A805F068F80028DFD1E4B2200039
:1016700001F05BF949E7F6B2022E40F081802422A6
:1016800002A9280080B204F03FFA202102A801F04C
:101690001EF90A99814201D0012037E7BDF81210E6
:1016A000BDF81000FEF705FE002005F012F8029AC2
:1016B0000100002003F0F3FD032100910323020049
:1016C000D2B20299002004F0CBFD012005F001F810
:1016D000039A0100012003F0E2FD012100910123A2
:1016E0000200D2B20399012004F0BAFDDFF8A00A8B
:1016F000407C00283FF409AF642005F076F89DF89F
:101700001400FEF7F7FE9DF81500FEF75AFF9DF84E
:101710001600FEF7BBFF9DF81700FEF7E7FF9DF8E8
:101720001800FFF75DF89DF81A00FFF7D6F89DF84E
:101730001B00FFF749F99DF81C00FFF7B7F99DF86A
:101740001D00FFF726FA9DF81E00FFF74EFA9DF8E0
:101750002100FFF76BFB9DF82200FFF73BFB9DF894
:101760002300FFF7DDFA9DF82400FFF70BFB9DF83F
:101770002600FFF70DFC9DF82700FFF769FCC4E683
:101780000120C3E6F0B58BB006000C0010215522F5
:1017900002AD280004F064F8E4B2102C01DA012054
:1017A0001DE0103CDFF8E409C07B012804D1E4B25D
:1017B000200110F5A25503E0E4B2200110F5A86560
:1017C000F6B2002E0DD1102202A9280080B204F03A
:1017D000D8F9E4B214F1100001F0B5F800200BB014
:1017E000F0BDF6B2012E4CD10020ADF8040001A8E6
:1017F000FEF77FFD002801D00120F0E7BDF80400CE
:10180000ADF8100001A8FEF749FE002801D0012024
:10181000E5E7BDF80400ADF81200002004F059FF20
:101820000290012004F055FF03900C2102A801F062
:101830004EF805900026102202A9280080B204F07C
:10184000A0F91021FF2206AF380004F009F8102299
:1018500006A9280080B204F057F93000461CC0B237
:10186000042801DB0120BAE7102206A902A804F02F
:1018700063FF0028DFD1E4B214F1100001F055F845
:10188000ACE7F6B2022E36D1102202A9280080B2AF
:1018900004F03AF90C2102A801F019F805998142E7
:1018A00001D001209BE7BDF81210BDF81000FEF733
:1018B00000FD002004F00DFF029A0100002003F05B
:1018C000EEFC0321009103230200D2B20299002012
:1018D00004F0C6FC012004F0FCFE039A0100012084
:1018E00003F0DDFC0120009001233C22039901203C
:1018F00004F0B6FC72E7012071E780B5DFF88C28B0
:101900005279002A0ED0C0B2022804D1C9B25F2990
:1019100003D101F0E6FA002002BD0800C0B201F0D8
:1019200098FBF8E7C0B2012805D1C9B27F2902D1DE
:1019300000F05DFFEFE7C0B2022805D1C9B25F2910
:1019400002D101F09DFAE6E7C9B2102904DAC9B262
:10195000C0B2FFF7B1FDDFE7C9B2C0B2FFF712FFB7
:10196000DAE7012101700020704770B58EB00500E4
:101970000C00EDB2102D28DA1021552204AE3000F3
:1019800003F06EFFDFF80408C07B012806D1EDB23A
:10199000242000FB05F010F5407004E0EDB2242097
:1019A00000FB05F0C030242204A980B204F0ACF89A
:1019B000202104A800F08BFF0C99814202D0032063
:1019C000207028E00220207025E0102155226E466C
:1019D000300003F045FF103DDFF8B007C07B012861
:1019E00004D1EDB2280110F5A25003E0EDB22801B8
:1019F00010F5A8601022694680B204F085F80C2129
:101A0000684600F064FF0399814202D003202070F1
:101A100001E00220207000200EB070BD38B5040037
:101A20000D00DFF8700700F09CFFFF20DFF8081AB8
:101A300081F84200DFF8000A20604320287000206F
:101A400032BD10B5C0B272281AD10800C0B204F07D
:101A5000FFFF0400E4B2002C03D1012011E001F0EB
:101A600040FADFF8280740790028F8D1DFF820078E
:101A70008471DFF81C07807904F080FF002000E00B
:101A8000012010BD10B50C00C0B272280CD1DFF8D7
:101A90000007807905F027F8C0B2002801D10120A5
:101AA00003E02070002000E0012010BD38B51400D4
:101AB0001D00DFF8D8265279012A04D0DFF8CC26A1
:101AC0005279022A0BD1C0B2012802D101F078FA72
:101AD00004E0C0B2022801D101F08DFA51E0DFF834
:101AE000B0265279002A09D0DFF8A026527B0B00DD
:101AF000DBB29A4202D2DFF89416497BC0B20128C9
:101B00001BD10800C0B203F0A2FBDFF88016C97B2E
:101B1000DFF87C26927A92EA010F02D042F6D55184
:101B200001E0DFF818196DB2009523005BB20200E6
:101B3000D2B2002004F094FB23E0C0B202281BD1F3
:101B40000800C0B203F083FB0200DFF84006C07B50
:101B5000DFF83C16897A91EA000F02D0DFF8DC1832
:101B600001E042F6D5516DB2009523005BB2D2B2CE
:101B7000002004F075FB04E0290049B2002004F0C5
:101B800039FB31BD00000000C017002038B514003B
:101B90001D00DFF8F8255279012A04D0DFF8EC2582
:101BA0005279022A0BD1C0B2012802D101F0D6F934
:101BB00004E0C0B2022801D101F0E9F951E0DFF8F8
:101BC000D0255279002A09D0DFF8C025927B0B007E
:101BD000DBB29A4202D2DFF8B415897BC0B2022888
:101BE0001BD10800C0B203F046FBDFF8A015C97B8B
:101BF000DFF89C25D27A92EA010F02D04FF4C86137
:101C000001E07FF405716DB2009523005BB2020024
:101C1000D2B2012004F024FB23E0C0B201281BD182
:101C20000800C0B203F027FB0200DFF86005C07BAC
:101C3000DFF85C15C97A91EA000F02D07FF40571D4
:101C400001E04FF4C8616DB2009523005BB2D2B2DF
:101C5000012004F005FB04E0290049B2012004F052
:101C6000C9FA31BD70B504000D0010001E00052337
:101C700002222100C9B2C0B2FFF718FF01230122DE
:101C80002900C9B23000C0B2FFF780FF002070BD4C
:101C9000F8B505000E0010001F0000B204F078FF38
:101CA000DFF89C1704F08EFF04F0F8FF0400DFF863
:101CB000DC04C07BDFF8D814897A91EA000F02D0E7
:101CC0005FF0FF30444342F6D650844201DB42F6D7
:101CD000D554DFF86807844201DADFF86047DFF89F
:101CE000B0044079002809D0DFF8A004407B290027
:101CF000C9B2884202D2DFF89404457B2800C0B202
:101D000003F0A5FA0200052000900223D2B22100C0
:101D1000002004F0A5FA3FB2380004F039FFDFF8E4
:101D2000241704F04FFF04F0B9FF0400DFF85C044F
:101D3000C07BDFF85C14C97A91EA000F02D05FF033
:101D4000FF304443B4F5C86F01DD4FF4C8647FF43D
:101D50000570844201DA7FF40574DFF834044079B9
:101D6000002809D0DFF82404807B3100C9B2884202
:101D700002D2DFF81804867B3000C0B203F07BFA91
:101D80000121009101230200D2B22100012004F0C0
:101D900067FA0020F2BDF8B505000E0010001F0024
:101DA00000B204F0F5FEDFF8981604F00BFF04F023
:101DB00075FF0400DFF8D403C07BDFF8D413897A01
:101DC00091EA000F02D05FF0FF304443002004F09E
:101DD00080FC041942F6D650844201DB42F6D55409
:101DE000DFF85806844201DADFF85046DFF8A00336
:101DF0004079002808D0DFF89403407B2900C9B25D
:101E0000884201D2E148457B2800C0B203F01FFAA6
:101E10000200052000900223D2B22100002004F02D
:101E20001FFA3FB2380004F0B3FEDFF8181604F0D2
:101E3000C9FE04F033FF0400D448C07BD449C97AFA
:101E400091EA000F02D05FF0FF304443012004F01C
:101E500040FC0419B4F5C86F01DD4FF4C8647FF489
:101E60000570844201DA7FF40574C948407900287E
:101E700007D0C648807B3100C9B2884201D2C3482E
:101E8000867B3000C0B203F0F6F9012100910123F6
:101E90000200D2B22100012004F0E2F90020F2BDDC
:101EA00080B5BA484079012803D0B8484079022863
:101EB00003D101F0BBF8002023E03C2003F0C7F978
:101EC0000321009103230200D2B20021002004F07C
:101ED000C7F93C2003F0CFF9012100910123020052
:101EE000D2B20021012004F0BBF90220FEF74FFA24
:101EF0003720FEF77EF90020A349088003F04CF953
:101F0000002002BD70B505000C00002004F0E1FBCC
:101F1000012802DB5FF07C5601E05FF03F4604F0F1
:101F200037FEDFF81C1504F0DBFE310004F056FF2D
:101F300004F0B4FE28809548C07B9549897A91EADF
:101F4000000F04D028885FF0FF314843288001202B
:101F500004F0BFFB012802DB5FF07C5501E05FF07D
:101F60003F4504F015FEDFF8DC1404F0B9FE29004B
:101F700004F034FF04F092FE20808448C07B844942
:101F8000C97A91EA000F04D020885FF0FF314843FE
:101F90002080002070BD80B5C0B2012806D100228B
:101FA0000121192002F07CFD002007E0C0B20328C7
:101FB00003D1FEF79BF8002000E0012002BD80B5B0
:101FC0000220FEF7FFF93720FEF713F900206E49D3
:101FD000088003F0E1F86C48007A022802D0022061
:101FE000FEF7D5F90021002003F020FA002002BD01
:101FF00040F2D97101800020704780B5C0B202283C
:1020000002D0C0B2032808D190F003006049887262
:10201000022000F00DFC002000E0012002BD5C4920
:10202000897A91F0030101700020704780B5C0B239
:10203000022802D0C0B2032806D15549C872032035
:1020400000F0F6FB002000E0012002BD5049C97AF3
:1020500091F00301017000207047704710B52F21E7
:102060000022494C200003F0FBFB01220121C0208B
:1020700002F016FD322004F0B8FB0320FEF750F901
:10208000322004F0B2FB0220FEF781F9322004F086
:10209000ACFB0220FEF719FA322004F0A6FB002068
:1020A000FEF728FA322004F0A0FB0020FEF71EFB0A
:1020B000322004F09AFB0820FEF76BFD322004F07A
:1020C00094FB0320FEF791FD322004F08EFB0320E9
:1020D000FEF7BBFD322004F088FB0620FEF720FE51
:1020E000322004F082FB0720FEF774FE322004F059
:1020F0007CFB0820FEF79AFE322004F076FB0020DD
:10210000FEF740FE322004F070FB00210220FEF7B3
:10211000B7FE322004F069FB0320FEF7F9FE3220FF
:1021200004F063FB0120FEF733FF322004F05DFB77
:102130000120FEF75DFF322004F057FB0020FEF780
:1021400087FF322004F051FB0320FFF72DF83220E7
:1021500004F04BFB0320FEF7D3FF322004F045FBD5
:102160000020FFF769F8322004F03FFB0320FFF75F
:102170009DF8322004F039FB0320FFF7D1F832201C
:1021800004F033FB10BD0000C0170020CC18002065
:102190009818002002000020DFF8AC02DFF8AC1233
:1021A0000860DFF8AC02DFF8A4124860DFF8A40290
:1021B000DFF89812C1F85C01DFF89C02A349C1F86E
:1021C0006001A648A149C1F86401A5489F49C860BB
:1021D000A4489E490861A4489C494861A3489B497A
:1021E0008861A34899490862A24898498862A24830
:1021F00096490863A14895494863A1489349886373
:10220000A04892494864A048904988649F488F49F3
:1022100048659F488D4988659E488C49C8659E4899
:102220008A4908669D48894948669D488749886665
:102230009C488649C8669C48844908679B488349EE
:1022400048679B48814988679A488049C8679A4887
:102250007E49C1F8840099487C49C1F888009848B3
:102260007A49C1F88C0097487849C1F8900096489F
:102270007649C1F8940095487449C1F8980094488B
:102280007249C1F89C0093487049C1F8A000924877
:102290006E49C1F8A80091486C49C1F8AC0090485B
:1022A0006A49C1F8B0008F486849C1F8B8008E4843
:1022B0006649C1F8BC008D486449C1F8C4008C4827
:1022C0006249C1F8C8008B486049C1F8CC008A480F
:1022D0005E49C1F8D00089485C49C1F8D4008848FB
:1022E0005A49C1F8D80087485849C1F8DC008648E7
:1022F0005649C1F8E40085485449C1F8EC008448C7
:102300005249C1F8F00083485049C1F8FC008248A6
:102310004E49C1F8000181484C49C1F80401804888
:102320004A49C1F808017F484849C1F80C017E4874
:102330004649C1F810017D484449C1F814017C4860
:102340004249C1F818017B484049C1F81C017A484C
:102350003E49C1F8200179483C49C1F82401784838
:102360003A49C1F8280177483849C1F82C01764824
:102370003649C1F8300175483449C1F83401744810
:102380003249C1F8380173483049C1F844017248F4
:102390002E49C1F8480171482C49C1F84C017048D8
:1023A0002A49C1F850016F482849C1F854016E48C4
:1023B0002649C1F858016D482449C1F868016C48A4
:1023C0002249C1F86C016B482049C1F870016A4884
:1023D0001E49C1F8740169481C49C1F87801684870
:1023E0001A49886067481949C1F87C01664817494D
:1023F000C1F8800165481549C1F890016448134946
:10240000C1F8940163481149C1F8980162480F4925
:10241000C1F89C0161480D49C1F8A00160480B4911
:10242000C1F8A8015F480949C1F8A4015E480749FD
:10243000C1F8AC0100207047000000202BD2FFFF44
:10244000ABAAAA40ABAAAA3F0F010008B81200200D
:102450006B01000883010008C3010008DB010008CC
:10246000F301000879020008B3020008F302000833
:1024700021030008610300088F030008C50300085A
:10248000450400086F0400089D040008F5040008D6
:1024900049050008C3050008130600088D0600085A
:1024A00015050008DF050008A9060008ED0600086C
:1024B0005D070008E107000857080008DB0800086E
:1024C000330A0008AD0A00084F090008C9090008CE
:1024D00029070008230800081B090008E30A000870
:1024E000FF090008170B0008930B0008BB0B00083E
:1024F000EB0B00081B0C0008B10C0008210D0008B4
:10250000550D0008850D0008A50D0008D50D000823
:10251000F90D0008810E0008BF0E0008910F000899
:10252000B90F0008F10F0008191000085110000839
:10253000A1100008A9110008F511000801110008F8
:10254000711100083912000875120008AD12000858
:10255000E9120008FB180008631900086B1900084D
:102560001D1A0008431A0008851A0008651C000897
:10257000911C0008971D0008A11E0008051F0008F7
:10258000971F0008BF1F0008F11F0008FB1F00086D
:102590002D2000081F2000084D2000085D130008B2
:1025A0009F130008DB1300082B14000800B585B04A
:1025B0000121012004F0D5FC0020ADF80A005F20C5
:1025C000ADF804004FF47A70ADF808000020ADF8C3
:1025D000060001A95FF0804004F0FBFD1C208DF88F
:1025E00000000F208DF8010001208DF803006846DF
:1025F00004F085FE012201215FF0804004F040FEDE
:1026000001215FF0804004F02DFE05B000BDDFF831
:10261000240890F90000002803D40520DFF81418DE
:1026200008707047002808D00020DFF808180870EC
:102630000120DFF80418086008E05FF0FF30DFF8E1
:10264000F41708700020DFF8F01708607047DFF813
:10265000E40790F9000001282EDBDFF8E00700789E
:10266000401CDFF8D8170870DFF8D00790F9000099
:10267000332821DB0020DFF8C4170870DFF8B40727
:102680000078401EDFF8AC170870DFF8A80790F953
:10269000000001280CDBDFF8A0070068002801D14A
:1026A000012000E00020C0B2DFF88C17086003E0D2
:1026B0000120DFF8841708607047DFF8840700798D
:1026C000002801D1012000E00020C0B27047E0B531
:1026D0000C226946002003F017FA002801D00220DE
:1026E0000AE00C226946DFF85C0704F025F80028B0
:1026F00001D0012000E000200EBD80B50C22DFF8E3
:102700004417002003F03DFA02BD80B51C22DFF81B
:102710003817602003F0F8F91821DFF82C0700F0D3
:10272000D6F8DFF824178969814201D0012012E030
:102730003C22DFF81817802003F0E6F93821DFF893
:102740000C0700F0C4F8DFF80417896B814201D050
:10275000012000E0002002BD80B50020DFF8E8166F
:1027600008700120DFF8E01648700220DFF8D81664
:1027700088700020DFF8D016C8700320DFF8C81674
:1027800008710020DFF8C016487104F063FE0020D5
:10279000DFF8B41688720020DFF8AC16C872082083
:1027A000DFF8A41608730220DFF89C16487308208F
:1027B000DFF89416C8730A20DFF88C16087400201E
:1027C000DFF8841688740120DFF87C16C8740020B6
:1027D000DFF8741608750020DFF86C16C875002045
:1027E000DFF86416887500F002F8002002BD80B59D
:1027F00002F03BFC1821DFF8500600F068F8DFF823
:10280000481688611C22DFF84016602003F0B9F9F1
:102810003821DFF8380600F05AF8DFF83016886300
:102820003C22DFF82816802003F0ABF9002002BD1F
:1028300010B500240023012804D044D3032833D04A
:1028400023D340E0A31D0222DFF8041613F1600039
:1028500080B203F096F9002801D0012036E018215B
:10286000DFF8E40500F033F8DFF8DC15886114F1D7
:1028700018030122DFF8DC1513F1600080B203F0C9
:1028800080F9002821D0012020E014F10A03012260
:10289000DFF8C41513F1600080B203F072F900286C
:1028A00001D0012012E0DAE714F10B030122DFF876
:1028B000AC1513F1600080B203F063F9002801D079
:1028C000012003E0CBE7012000E0002010BD10B4A0
:1028D0000022002302E0C45CA2185B1C8B42FAD3E6
:1028E000100010BC704738B504000D002068DFF8F8
:1028F00050150968401A04F077FE854205D2DFF8CA
:10290000400500682060012000E0002032BD10B5C5
:102910000C00DFF82C150968401A04F065FE8442AB
:1029200001D2012000E0002010BDDFF83415C208FC
:10293000895C012210F007039A401143DFF820253B
:10294000C00811547047DFF81815C208895C0122CD
:1029500010F007039A409143DFF80425C008115492
:10296000704700220FE0DFF8F814895C11F00F01C6
:1029700000F81210DFF8E814895CC9B2090900EB0D
:1029800042035970521C202AEDD3704710B58EB007
:1029900020210022DFF8C844200002F061FF24213A
:1029A000552204AC200002F05BFF002413E0242039
:1029B00000FB04F0C030242204A980B203F0A4F884
:1029C000202104A8FFF783FF0C99814202D1200047
:1029D000FFF7ABFF641C102C0AD2DFF86404C07B45
:1029E0000128E4D1242000FB04F010F54070E2E758
:1029F000102155226C46200002F032FF002413E023
:102A0000200110F5A8601022694680B203F07CF81E
:102A10000C216846FFF75BFF0399814203D114F153
:102A20001000FFF782FF641CF02C08D2DFF81004BE
:102A3000C07B0128E4D1200110F5A250E3E70EB0DD
:102A400010BD80B5DFF80004007DFF2856D1DFF807
:102A500014040068DFF8E8130968401A04F0C4FDA4
:102A600047F23051884212DADFF8FC030078002880
:102A700032D10120DFF8F01308702420FDF7B9FBF4
:102A80000123022228213C20FFF7ECF824E04EF637
:102A90006021884212DADFF8D403007800281BD1C5
:102AA0000120DFF8C81308703420FDF7A2FB0223D1
:102AB000012228213C20FFF7D5F80DE0DFF8800344
:102AC0000068DFF8A01308600020DFF89C1308708E
:102AD0000020DFF8981308704FF4FA71DFF89003C4
:102AE000FFF701FF002809D0D3480068002801D172
:102AF000012000E00020C0B2CF49086001BD80B5D0
:102B00006846FDF7F6FB322003F06FFE0DF1020080
:102B1000FDF726FC322003F068FE0DF10200FDF700
:102B2000A6FC322003F061FE6846FDF7B7FC3220B8
:102B300003F05BFE002002BD80B56846FDF7EAFCAD
:102B4000322003F052FE6846FDF749FD322003F0C3
:102B50004CFE6846FDF7A8FD322003F046FE00203B
:102B600002BD80B56846FDF7DFFD322003F03DFE73
:102B70006846FDF756FE322003F037FE6846FDF743
:102B8000CCFE322003F031FE6846FDF7AAFF32206A
:102B900003F02BFE6846FEF710F8322003F025FE06
:102BA0006846FEF73AF8322003F01FFE6846FEF74B
:102BB00064F8322003F019FE002002BD80B568469B
:102BC000FEF7C8F8322003F010FE6846FEF7EAF878
:102BD000322003F00AFE6846FEF70EF9322003F0B9
:102BE00004FE6846FEF734F9322003F0FEFD694624
:102BF0000DF10100FEF763F9322003F0F6FD68469F
:102C0000FEF7A7F9322003F0F0FD6846FEF7D4F98D
:102C1000322003F0EAFD6846FEF7FEF9322003F0A9
:102C2000E4FD6846FEF73CFA322003F0DEFD68461C
:102C3000FEF79EFA322003F0D8FD6846FEF7DAFA76
:102C4000322003F0D2FD6846FEF714FB322003F079
:102C5000CCFD6846FEF748FB322003F0C6FD00209D
:102C600002BD0020704780B500208DF800000020D4
:102C7000ADF802007248007B00281DD040F24D11D3
:102C80007C48FFF730FE002816D001220DF102012A
:102C9000472002F057F800280ED16C480088BDF894
:102CA0000210884202D1002065490873BDF8020075
:102CB0006649088002F070FA6148C079002840F047
:102CC000B880C8215E488068FFF721FE002800F028
:102CD000B0804FF4FA716848FFF705FE002800F055
:102CE000A88066480078002830D0012833D0022818
:102CF00035D0032837D004283AD005283CD0062800
:102D00003ED0072840D0082842D0092844D00A28BD
:102D100046D00B2848D00C284AD00D284CD00E287D
:102D20004ED00F2850D0102852D0122854D013283B
:102D300056D0142859D015285BD016285DD01728F6
:102D40005FD0182861D0192863D066E00DF1020029
:102D5000FDF7CFFA61E06846FDF702FB5DE06846EB
:102D6000FDF785FB59E00DF10200FDF797FB54E0FC
:102D70006846FDF7CFFB50E06846FDF730FC4CE0BD
:102D80006846FDF791FC48E06846FDF7CDFC44E05D
:102D90006846FDF746FD40E06846FDF7BEFD3CE0B5
:102DA0006846FDF79EFE38E06846FDF706FF34E012
:102DB0006846FDF732FF30E06846FDF75EFF2CE025
:102DC0006846FDF7C7FF28E06846FDF7EBFF24E003
:102DD0006846FEF711F820E06846FEF739F81CE077
:102DE00069466846FEF76BF817E06846FEF7B1F8EB
:102DF00013E06846FEF7E0F80FE06846FEF70CF9CE
:102E00000BE06846FEF74CF907E06846FEF7B0F9BC
:102E100003E06846FEF7EEF9FFE718480078401C2B
:102E200016490870154800781E2802DB0020134957
:102E3000087001BDD4190020A0012142D51900203D
:102E4000CC180020A0F2000898180020C01700201D
:102E50009E180020B0180020A2180020A3180020FF
:102E60005C1800207C190020D6190020D7190020FA
:102E7000801900208419002088190020D81900200A
:102E800038B54FF49671DFF8F40AFFF72CFD0028EF
:102E900026D0DFF8EC0A8079012821D0DFF8E00B9A
:102EA0004079002802D000F01CF819E004F0C1FBC2
:102EB0000624002500E06D1CE4B2A5420ADADFF822
:102EC000C40A182101FB05F1084404F0F2FB0028B4
:102ED000F1D005E00120DFF8A81B487104F01DFCCB
:102EE00031BD80B54FF49671DFF8900AFFF7FBFC17
:102EF000002832D0DFF8880B407901281DD104F07A
:102F0000AFFB002816D0012203210F2001F0E1FFC2
:102F1000012201210F2001F0DCFF0020DFF8601BFF
:102F2000487104F097FA02F037F904F022FDFFF738
:102F30005EFC12E004F0F1FB0FE0DFF8440B407997
:102F400002280AD102F0A8F8012202210F2001F084
:102F5000C0FF0120DFF8281B487101BD80B54FF488
:102F60009671DFF8200BFFF7BEFC00280ED0DFF8CB
:102F7000100B4079012802D104F03AFC06E0DFF89A
:102F8000000B4079022801D102F09EF801BD80B506
:102F90004FF49671DFF8380BFFF7A5FC00280ED030
:102FA000DFF8DC0A4079012802D104F052FC06E087
:102FB000DFF8CC0A4079022801D102F096F801BD71
:102FC00080B54FF49671DFF8540BFFF78CFC0028A6
:102FD00010D0DFF8AC0A4079012804D17FF004005A
:102FE00004F068FC06E0DFF8980A4079022801D175
:102FF00002F08EF801BD80B54FF49671DFF8200B1A
:10300000FFF771FC002810D0DFF8740A407901281E
:1030100004D17FF0050004F04DFC06E0DFF8600A03
:103020004079022801D102F087F801BD80B54FF444
:103030009671DFF8840BFFF756FC002808D0DFF804
:10304000400A4079012803D17FF0070004F032FCE8
:1030500001BD10B504004FF49671DFF8600BFFF767
:1030600042FC002808D0DFF8180A4079012803D173
:10307000E4B2200004F01EFC10BD80B20A280CDA75
:103080002021DFF8F42B11702021DFF8EC2B517098
:103090003030DFF8E41B88703DE080B2642816DA37
:1030A0002021DFF8D42B117080B20A2190FBF1F1BE
:1030B0003031DFF8C42B517080B20A2190FBF1F25D
:1030C00001FB12003030DFF8B01B887023E080B2C3
:1030D000642190FBF1F13031DFF89C2B117080B24C
:1030E000642190FBF1F201FB12010A2291FBF2F143
:1030F0003031DFF8842B517080B2642190FBF1F203
:1031000001FB12000A2190FBF1F201FB12003030AA
:10311000DFF8641B8870DFF8600B704738B57FF00C
:103120000700091A01D0891E17D104F082FA05247C
:10313000002500E06D1CE4B2A5420BDADFF8B40C08
:10314000182101FB05F1084404F0B3FA0028F1D07E
:10315000012003E004F0E1FAFFE7002032BD30B5C2
:1031600087B005000C006846DFF8201C1C2204F024
:1031700027FF20007FF00501401A22D0401E0ED00C
:10318000001F2FD107226846DFF8F41709780723BC
:10319000594301441635280004F002FF22E0DFF80D
:1031A000E0070078002807D0DFF8D4070078401E39
:1031B000DFF8CC17087003E00320DFF8C4170870AD
:1031C00010E0DFF8BC070078032807DADFF8B00763
:1031D0000078401CDFF8A817087003E00020DFF833
:1031E000A017087014F1050F02D014F1060F14D1C6
:1031F000DFF88C070078002804D0DFF88407007817
:10320000012808D1DFF878074078082803DB01207F
:10321000DFF86C17487004F0CDFA002007B030BD1D
:1032200010B504007FF00500091A4BD0491E0FD0DD
:10323000091F40F08080DFF84807407880B2FFF730
:103240001CFF03221A340100200004F0A9FE72E0E2
:10325000DFF82C070078002804D0DFF82407007876
:10326000012811D1DFF818074078022807DBDFF8C2
:1032700010074078401EDFF8081748701FE007204D
:10328000DFF8FC1648701AE0DFF8F4060078022830
:1032900004D0DFF8EC060078032810D1DFF8E00650
:1032A0004078002807D0DFF8D8064078401EDFF8C5
:1032B000D016487003E0FF20DFF8C416487004F011
:1032C00079FA38E0DFF8B8060078002804D0DFF893
:1032D000B0060078012811D1DFF8A406407807284D
:1032E00007DADFF89C064078401CDFF89416487037
:1032F0001FE00120DFF8881648701AE0DFF880062A
:103300000078022804D0DFF878060078032810D16E
:10331000DFF86C064078FF2807D0DFF864064078B5
:10332000401CDFF85C16487003E00020DFF8501600
:10333000487004F03FFA002010BD30B589B0040099
:103340000D006846DFF8241C242204F039FE7FF0CB
:1033500005002D1A24D06D1E0ED02D1F33D106224C
:103360006846DFF81C168978062359430144173450
:10337000200004F015FE26E0DFF80406807800281F
:1033800007D0DFF8FC058078401EDFF8F415887060
:1033900003E00520DFF8E815887004F00BFA12E06E
:1033A000DFF8DC058078052807DADFF8D4058078B7
:1033B000401CDFF8CC15887003E00020DFF8C01552
:1033C000887004F0F7F9002009B030BD30B583B043
:1033D0006A46DFF8303CD3E90045C2E900457FF09A
:1033E0000502891A01290FD9491F1DD103226946F7
:1033F000DFF88C35DB7803246343194410F11A0499
:10340000200004F0CDFD0FE0DFF87405C07800283F
:1034100004D00020DFF86815C87003E00120DFF851
:103420006015C87004F0C6F900203EBD10B57FF0ED
:103430000502891A012910D9491F1ED10322DFF87C
:10344000C81BDFF83C355B7903246343194410F152
:103450001A04200004F0A4FD0FE0DFF824054079F1
:10346000012804D00120DFF81815487103E000207E
:10347000DFF80C15487104F09DF9002010BD38B537
:103480007FF00700091A01D0891E17D104F0D1F886
:103490000724002500E06D1CE4B2A5420BDADFF83A
:1034A000C00C182101FB05F1084404F002F90028C2
:1034B000F1D0012003E004F030F9FFE7002032BD35
:1034C00010B57FF00502891A012912D9491F25D1AB
:1034D0000322DFF8341BDFF88C3C9B7893F0030366
:1034E00003246343194410F11A04200004F058FD2A
:1034F00014E0DFF8700C8078032804D10220DFF894
:10350000641C887003E00320DFF8581C8870DFF823
:10351000540C8078FCF704FF04F04CF9002010BD37
:1035200070B584B06A46DFF8403C70CB70C20C3B8B
:103530000C3A7FF00502891A012911D9491F24D1BB
:1035400006226946DFF81C3C1B7A93F0030306242D
:103550006343194410F11704200004F021FD14E026
:10356000DFF8000C007A022804D10320DFF8F41BF6
:10357000087203E00220DFF8EC1B0872DFF8E40BAE
:10358000007AFCF704FF04F015F9002004B070BDC8
:1035900010B504007FF00500091A24D0491E0ED092
:1035A000091F33D1DFF8D803007B80B2FFF765FD38
:1035B00003221A340100200004F0F2FC26E0DFF8B8
:1035C000C003007B022807DBDFF8B403007B401E4A
:1035D000DFF8AC13087303E01020DFF8A4130873BE
:1035E00004F0E8F812E0DFF89803007B102807DA0F
:1035F000DFF88C03007B401CDFF88413087303E0C2
:103600000120DFF87C13087304F0D4F8002010BD0B
:1036100010B57FF00502891A01290FD9491F1AD167
:103620000722DFF82C1CD64B9B7A072463431944EE
:1036300010F11604200004F0B3FC0CE0D048807AAE
:10364000012803D00120CE49887202E00020CC4935
:10365000887204F0AFF8002010BD10B57FF00502AD
:10366000891A01290FD9491F1AD10722DFF8E01B57
:10367000C34BDB7A07246343194410F1160420007E
:1036800004F08EFC0CE0BE48C07A012803D0012073
:10369000BB49C87202E00020B949C87204F08AF838
:1036A000002010BD10B57FF00502891A012913D939
:1036B000491F2AD10322DFF85019DFF8A83A93F8FE
:1036C000263093F0030303246343194410F11A04D2
:1036D000200004F065FC18E0DFF8880A90F8260066
:1036E000022805D10320DFF87C1A81F8260004E0C7
:1036F0000220DFF8701A81F82600DFF8680A90F8D7
:103700002600FDF751FD04F055F8002010BD10B55E
:103710007FF00502891A012913D9491F2AD10322F2
:10372000DFF8E418DFF8683C93F8253093F00303E2
:1037300003246343194410F11A04200004F030FC00
:1037400018E0DFF84C0C90F82500022805D1032082
:10375000DFF83C1C81F8250004E00220DFF8301C73
:1037600081F82500DFF8280C90F82500FDF7C8FC4B
:1037700004F020F8002010BD80B57FF00700091A82
:1037800001D0891E50D103F054FFDFF8080C03F07C
:1037900090FFDFF8D009807B03280CD1DFF8F80B0D
:1037A00003F087FFDFF8400C03F083FFDFF83C0CE9
:1037B00003F07FFF35E0DFF8AC09807B0A280CD1ED
:1037C000DFF8D40B03F075FFDFF8240C03F071FF72
:1037D000DFF8200C03F06DFF23E0DFF88809807B21
:1037E0000B280CD1DFF8000C03F063FFDFF8000CAE
:1037F00003F05FFFDFF8FC0B03F05BFF11E0DFF885
:103800006409807B0D2804D1DFF8EC0B03F051FF35
:1038100007E0DFF8DC0B03F04CFFDFF8D80B03F018
:1038200048FF03F07AFFFFE7002002BDDFF8600BDE
:10383000807B002808D0032808D00A2808D00B284D
:1038400008D00D2808D009E0002008E0012006E09B
:10385000022004E0032002E0042000E00020C0B2C7
:10386000704730B58FB004000D006846DFF88C1B40
:10387000382204F0A5FB7FF005002D1A46D06D1EFE
:103880000ED02D1F77D1FFF7D1FF0B226946C0B2B2
:103890000B23584301441234200004F081FB6AE0FA
:1038A000DFF8EC0A807B002804D10320DFF8E01A5F
:1038B000887321E0DFF8D80A807B032804D10D202B
:1038C000DFF8CC1A887317E0DFF8C40A807B0D2874
:1038D00004D10B20DFF8B81A88730DE0DFF8B00AC6
:1038E000807B0B2804D10A20DFF8A41A887303E038
:1038F0000020DFF89C1A8873DFF8940A807BFCF7BD
:10390000F5FE03F0ADFEFFF791FB34E0DFF8800A2F
:10391000807B002804D10A20DFF8741A887321E024
:10392000DFF86C0A807B0A2804D10B20DFF8601ACC
:10393000887317E0DFF8580A807B0B2804D10D202C
:10394000DFF84C1A88730DE0DFF8440A807B0D28FD
:1039500004D10320DFF8381A887303E00020DFF871
:10396000301A8873DFF8280A807BFCF7BFFE03F06B
:1039700077FEFFF75BFB00200FB030BD3C19002045
:10398000981800204CEC000830B5C9B004000D00B8
:1039900027A8DFF8381C842204F012FB6846DFF801
:1039A000301C9C2204F00CFB7FF005002D1A32D055
:1039B0006D1E2AD02D1F33D1DFF8600C80790C28C2
:1039C00009D0DFF8580C80790F2804D0DFF84C0CB0
:1039D000807912280CD1062227A8DFF8B419097CB7
:1039E0000623594301441734200004F0D9FA0BE0B0
:1039F00006226846DFF89819097C072359430144D9
:103A00001734200004F0CCFA0AE00320FCF7A6FEED
:103A100003F0D0FE04E00220FCF7A0FE03F0CAFE93
:103A2000002049B030BD30B593B004000D006846A9
:103A3000DFF8341C482204F0C3FA7FF005002D1A89
:103A400016D06D1E0ED02D1F17D105226846DFF847
:103A50004019497C0523594301441834200004F0DF
:103A60009FFA0AE00320FCF7F6FE03F0A3FE04E051
:103A70000220FCF7F0FE03F09DFE002013B030BDE5
:103A8000CC1800204019002010B504007FF005007C
:103A9000091A16D0491E0ED0091F17D1DFF8F008F9
:103AA000807C80B2FFF7E9FA03221A34010020007B
:103AB00004F076FA0AE00320FCF749FF03F07AFEEF
:103AC00004E00220FCF743FF03F074FE002010BD69
:103AD0004419002010B504007FF00500091A16D023
:103AE000491E0ED0091F17D1DFF8A408C07C80B290
:103AF000FFF7C3FA03221A340100200004F050FA41
:103B00000AE00320FCF795FF03F054FE04E00220D6
:103B1000FCF78FFF03F04EFE002010BD4819002077
:103B20004C19002010B504007FF00500091A29D0B7
:103B3000491E0ED0091F3DD1DFF85408407D80B2E8
:103B4000FFF79BFA03221A340100200004F028FA40
:103B500030E0DFF83C08407D002807D0DFF830086F
:103B6000407D401EDFF82818487503E00F20DFF87D
:103B700020184875DFF81808407DFDF70AF803F0B3
:103B800019FE17E0DFF80808407D0F2807DADFF894
:103B90000008407D401CDFF8F817487503E000205E
:103BA000DFF8EC174875DFF8E807407DFCF7F1FF18
:103BB00003F000FE002010BD501900205419002011
:103BC00010B57FF00702891A14D0891E012912D975
:103BD000491F25D10322DFF83014DFF8B4379B7D6D
:103BE00093F0030303246343194410F11A042000E3
:103BF00004F0D6F914E0DFF89807807D022804D09D
:103C00000220DFF88C17887503E00320DFF88017A7
:103C10008875DFF87C07807DFCF7E7FF03F0CAFDBD
:103C2000002010BD80B57FF00700091A01D0891E61
:103C30001FD103F0FEFCDFF8D40B03F03AFDDFF8F0
:103C40002405C07A052808D1DFF8040C03F031FD03
:103C5000DFF8000C03F02DFD08E0DFF80805C07A5E
:103C6000032803D1DFF8380C03F023FD03F055FDE2
:103C7000FFE7002002BD00005819002030B58DB0CC
:103C800004000D006846DFF81C1C302204F098F98F
:103C90007FF005002D1A2AD06D1E0DD02D1F40D1AA
:103CA00008226846DFF8E816C97A00EBC10115342E
:103CB000200004F075F934E0DFF8D406C07A00285B
:103CC00007D0DFF8CC06C07A401EDFF8C416C872F1
:103CD00003E00520DFF8B816C872DFF8B406C07A32
:103CE000FCF708FC03F0BCFCFFF7A0F919E0DFF8D3
:103CF000A006C07A052807DADFF89406C07A401CCF
:103D0000DFF88C16C87203E00020DFF88416C87252
:103D1000DFF87C06C07AFCF7EDFB03F0A1FCFFF7AF
:103D200085F900200DB030BD10B504007FF005000E
:103D3000091A1DD0491E0ED0091F25D1DFF85006E3
:103D4000007B80B2FFF799F903221A3401002000AA
:103D500004F026F918E0DFF83806C07A052801D00B
:103D6000002012E00320FCF7EFFB03F023FD0BE043
:103D7000DFF81C06C07A052801D0002005E00220EB
:103D8000FCF7E2FB03F016FD002010BD6CF100080B
:103D900010B504007FF00500091A1DD0491E0ED091
:103DA000091F25D1DFF8E805407B80B2FFF765F9F0
:103DB00003221A340100200004F0F2F818E0DFF8C2
:103DC000D005C07A052801D0002012E00320FCF7BE
:103DD00020FC03F0EFFC0BE0DFF8B405C07A052807
:103DE00001D0002005E00220FCF713FC03F0E2FC08
:103DF000002010BDF0ED000880B57FF00700091A23
:103E000001D0891E01D1FCF769FC002002BD38B544
:103E10007FF00700091A01D0891E17D103F009FCB1
:103E20000924002500E06D1CE4B2A5420BDADFF89E
:103E3000D80A182101FB05F1084403F03AFC0028D8
:103E4000F1D0012003E003F068FCFFE7002032BD61
:103E500010B57FF00702891A13D0891E012911D9E4
:103E6000491F24D103226849DFF82435DB7F93F012
:103E7000030303246343194410F11A04200004F0DF
:103E80008FF814E0DFF80805C07F022804D1032072
:103E9000DFF8FC14C87703E00220DFF8F414C877D9
:103EA000DFF8EC04C07FFDF733F803F083FC00205B
:103EB00010BD30B587B004000D006846DFF84C1A1D
:103EC000182204F07DF87FF005002D1A2ED06D1E0B
:103ED0000ED02D1F47D104226846DFF8B41491F8A4
:103EE000201000EB81011934200004F059F83AE069
:103EF000DFF89C0490F82000002809D0DFF8900437
:103F000090F82000401EDFF8881481F8200004E0BB
:103F10000520DFF87C1481F82000DFF8740490F8A5
:103F20002000FDF735F803F045FC1CE0DFF86004E5
:103F300090F82000052809DADFF8540490F82000F2
:103F4000401CDFF84C1481F8200004E00020DFF86A
:103F5000401481F82000DFF8380490F82000FDF7C5
:103F600017F803F027FC002007B030BD08F1000867
:103F700010B504007FF00500091A29D0491E0ED0A3
:103F8000091F3DD1DFF80804C07E80B2FFF775F845
:103F900003221A340100200004F002F830E0DFF8B8
:103FA000F003C07E002807D0DFF8E403C07E401E87
:103FB000DFF8DC13C87603E00F20DFF8D413C876EF
:103FC000DFF8CC03C07EFCF731FF03F0F3FB17E012
:103FD000DFF8BC03C07E0F2807DADFF8B403C07E29
:103FE000401CDFF8AC13C87603E00020DFF8A01314
:103FF000C876DFF89C03C07EFCF718FF03F0DAFBFD
:10400000002010BDF8F20008F0F2000810B504001E
:104010007FF00500091A29D0491E0ED0091F3AD198
:10402000DFF86C03807E80B2FFF727F803221A3492
:104030000100200003F0B4FF2DE0DFF85403807E80
:10404000002807D0DFF84803807E401EDFF84013C9
:10405000887603E00F20DFF838138876DFF8300326
:10406000807EFCF7B7FE03F0A5FB14E0DFF8200329
:10407000807E0F2806DADFF81803807E401CC449D2
:10408000887602E00020C2498876C148807EFCF72D
:10409000A1FE03F08FFB002010BD10B504007FF0DF
:1040A0000500091A15D0491E0DD0091F16D1B848B0
:1040B000007F80B2FEF7E1FF03221A3401002000E6
:1040C00003F06EFF0AE00320FCF7F2FD03F072FB41
:1040D00004E00220FCF7ECFD03F06CFB002010BDB7
:1040E00010B504007FF00500091A23D0491E0DD039
:1040F000091F32D1A648407F80B2FEF7BEFF0322DF
:104100001A340100200003F04BFF26E0A048407F56
:10411000002805D09E48407F401E9D49487702E018
:1041200004209B4948779A48407FFCF72BFE03F018
:1041300041FB12E09648407F042805DA9448407F0E
:10414000401C9349487702E0002091494877904805
:10415000407FFCF717FE03F02DFB002010BD000090
:1041600060EA0008C01700207CF2000810B50400C7
:104170007FF00500091A43D0491E1BD0091F64D1E6
:104180008348007E032809D10020FEF776FF032232
:104190001A340100200003F003FF0AE07C48407E4F
:1041A00080B2FEF76AFF010003221A34200003F0F8
:1041B000F7FE4AE07648007E022814D17448407E1B
:1041C000022809DB7248407E401E714948767048DB
:1041D000407EFCF73DFF10E003206D49087600208B
:1041E000FCF736FF09E00220694908760620684995
:1041F00048766748407EFCF72BFF03F0DBFA24E0AB
:104200006348007E022814D16148407E062809DAFE
:104210005F48407E401C5E4948765D48407EFCF722
:1042200017FF10E003205A4908760020FCF710FF22
:1042300009E002205649087601205549487654483D
:10424000407EFCF705FF03F0B5FA002010BD00002A
:104250001CF2000810B504007FF00500091A2AD0EE
:10426000491E0ED0091F3FD1494890F8210080B265
:10427000FEF703FF03221A340100200003F090FE32
:1042800032E0434890F82100002807D0404890F8D9
:104290002100401E3E4981F8210003E00F203C49E7
:1042A00081F821003A4890F821100220FCF7E8FD3F
:1042B00003F080FA18E0364890F821000F2807DA5A
:1042C000334890F82100401C314981F8210003E077
:1042D00000202F4981F821002D4890F8211002205C
:1042E000FCF7CEFD03F066FA002010BD70B584B077
:1042F0006A46DFF81C3670CB70C20C3B0C3A7FF07C
:104300000502891A29D0491E0ED0091F3DD1042269
:1043100069461F4B93F8223001EB830110F1190419
:10432000200003F03DFE30E0194890F822000028FC
:1043300007D0174890F82200401E154981F8220046
:1043400003E00220124981F82200114890F822006F
:10435000FCF74EFE03F02EFA17E00D4890F822000D
:10436000022807DA0A4890F82200401C084981F820
:10437000220003E00020064981F82200044890F85A
:104380002200FCF735FE03F015FA002004B070BDE2
:10439000C017002008EB000820EB000838B57FF0BC
:1043A0000700091A01D0891E1CD19C488079DFF8CA
:1043B0006415087003F03DF90624002500E06D1C2B
:1043C000E4B2A5420BDADFF85005182101FB05F134
:1043D000084403F06EF90028F1D0012003E003F057
:1043E0009CF9FFE7002032BD38EB000868EB0008BD
:1043F00080EB000898EB000850EB000840F0000844
:1044000030B5B1B004000D006846DFF81015C022C9
:1044100003F0D6FD7FF007002D1A71D0AD1E40D0FD
:104420006D1E0FD02D1F40F0808007226846DFF8F8
:10443000E41409780723594301441634200003F09B
:10444000AFFD72E0DFF8CC0400780A2807DBDFF864
:10445000C4040078401EDFF8BC14087003E0142088
:10446000DFF8B0140870DFF8AC0400780A280ED02A
:10447000DFF8A00400780D2809D0DFF89804007850
:10448000102804D0DFF88C040078132806D1DFF858
:1044900084040078401EDFF87C14087003F08AF969
:1044A00043E0DFF870040078142807DADFF86404CA
:1044B0000078401CDFF85C14087003E00920DFF886
:1044C00054140870DFF84C0400780A280ED0DFF886
:1044D000440400780D2809D0DFF83804007810284B
:1044E00004D0DFF830040078132806D1DFF8240464
:1044F0000078401CDFF81C14087003F05BF914E02E
:10450000DFF810040078DFF81814897988420CD09D
:10451000DFF80004007802F031FADFF8F8030078E1
:10452000DFF8FC13887103F0F8F8002031B030BDDB
:1045300010B504007FF00500091A31D0491E1BD0C8
:10454000091F40D1DFF8D803407D00280CD0DFF8E8
:10455000D003407D80B2FEF790FD03221A340100A3
:10456000200003F01DFD06E00322DFF8B8131A3423
:10457000200003F015FD26E0DFF8A403407D0028AD
:1045800007D0DFF89C03407D401EDFF89413487588
:1045900003E00320DFF88813487503F00BF912E0FD
:1045A000DFF87C03407D032807DADFF87403407DE1
:1045B000401CDFF86C13487503E00020DFF860133F
:1045C000487503F0F7F8002010BD00006CED0008FE
:1045D000B0EB000810B57FF00502891A01290ED949
:1045E000491F19D10322CF49CD4B9B7D032463433F
:1045F000194410F11A04200003F0D2FC0CE0C84862
:10460000807D012803D10020C549887502E0012082
:10461000C349887503F0CEF8002010BD981800201B
:1046200010B57FF00502891A01290ED9491F19D149
:104630000322BC49BA4B9B7C03246343194410F109
:104640001A04200003F0ACFC0CE0B548807C012883
:1046500003D10020B249887402E00120B049887477
:1046600003F0A8F8002010BDB8EF000880B50729B6
:104670000DD102F0DEFFAC4803F01BF8AB4803F0AD
:1046800018F8AB4803F015F803F047F80BE00829D9
:1046900009D1012203210F2000F01BFC00F0FCFCDB
:1046A0000220A4494871002002BD10B57FF0050228
:1046B000891A01290ED9491F1DD1032299499D4B01
:1046C0009B7903246343194410F11A04200003F07A
:1046D00067FC10E097488079012803D100209549B4
:1046E000887102E00120934988719248807902F034
:1046F00043FF03F05FF8002010BD10B57FF0050206
:10470000891A01290ED9491F19D103228549844BE1
:104710005B7C03246343194410F11A04200003F066
:104720003FFC0CE07E48407C012803D100207C49FE
:10473000487402E001207A49487403F03BF80020F5
:1047400010BD10B57FF00502891A01290ED9491F45
:1047500019D103227349724BDB7D0324634319444F
:1047600010F11A04200003F01BFC0CE06C48C07D23
:10477000012803D100206A49C87502E00120684978
:10478000C87503F017F8002010BD38B57FF007009A
:10479000091A01D0891E16D102F04BFF032400250F
:1047A00000E06D1CE4B2A5420ADA6348182101FB5F
:1047B00005F1084402F07DFF0028F2D0012003E05B
:1047C00002F0ABFFFFE7002032BD80B511F1060F0C
:1047D00002D011F1080F16D1012201210F2000F0A3
:1047E00078FB012202210F2000F073FB01225349C4
:1047F000052000F0DDFBFDF7AFFF4FF4FA6001F09C
:10480000F4FFFEF76EFB002002BD000068EE00081A
:1048100080B511F1060F02D011F1080F16D1012257
:1048200001210F2000F055FB012202210F2000F092
:1048300050FB01224149052000F0BAFBFDF70EFCB8
:104840004FF4FA6001F0D1FFFEF74BFB002002BDF0
:1048500080EE000898EE000880B511F1060F02D036
:1048600011F1080F1AD1012201210F2000F031FBB4
:10487000012202210F2000F02CFB01222F490520EC
:1048800000F096FBFDF7EAFBFDF7E7FBFDF764FFA1
:104890004FF4FA6001F0A9FFFEF723FB002002BDF0
:1048A000B0EE0008B0F0000880B51D48807D0028FB
:1048B00028D002F0BEFE224802F0FBFE214802F0A2
:1048C000F8FE214802F0F5FE134802F0F2FE1F4800
:1048D00002F0EFFE1E4802F0ECFE1E4802F0E9FE78
:1048E00002F01BFF41F2883001F07FFF02F0B8FEBA
:1048F000012203210F2000F0ECFA012201210F20F8
:1049000000F0E7FA01BD0000C8E80008ECF100087B
:1049100088F20008CB190020DCEC0008A0E90008B0
:1049200098180020F0F2000828EF000840EF000877
:1049300058EF0008CC18002070EF0008D4F10008F0
:10494000F0ED000808EE000820EE0008F4EC000886
:104950000CED00083CED0008012819D1DFF8300704
:104960000068002804D0DFF82C070068002801D177
:1049700001200CE0DFF818070068DFF84017086036
:10498000DFF810070068DFF8841708600020704720
:10499000022818D1DFF828070068002804D0DFF8C3
:1049A00024070068002801D10120F0E7DFF8100794
:1049B0000068DFF808170860DFF808070068DFF80C
:1049C0004C170860E2E70120E1E710B50400DFF8CA
:1049D0006427DFF838070168DFF8E006006803F0B5
:1049E00065FE002801D100200FE0DFF848170978A4
:1049F000E4B222018032914206D1DFF83817014437
:104A000011F8011CFF2900D0002010BD80B5DFF88F
:104A10002427DFF8F8060168DFF8A006006803F035
:104A200045FE0028F3D101BD70B504000025E4B2B5
:104A3000642000FB04F605E00120DFF82017096878
:104A4000496888473000461E80B2002825D02000E3
:104A5000C0B2FFF7BAFF0328EEDBDFF8D806007814
:104A6000E4B2210180318842E6D1DFF8C8064078FF
:104A7000412801D1412510E0DFF8B80640785128DF
:104A800001D1512509E0DFF8AC0640786028D3D188
:104A9000DFF8A006807810F16005EDB2280070BD47
:104AA0007CB514006A46DFF8B836D3E90056C2E98F
:104AB000005681228DF800208DF803008DF8041037
:104AC00006216846DFF8F4251268D2699047E4B2FF
:104AD000002C01D100201AE00120FFF7A5FF0028DB
:104AE00001D0002013E02000441EC0B200280DD0E9
:104AF00006216846DFF8C4251268D2699047012074
:104B0000FFF792FF0028EED0002000E0012076BDE4
:104B1000FEB514006A46DFF84C36E0CBE0C20C3B31
:104B20000C3A81228DF800208DF80300080080B235
:104B3000000B8DF8040089B2081210F00F008DF8F8
:104B40000500C1F303108DF8060011F00F008DF879
:104B5000070009216846DFF864251268D26990478A
:104B6000E4B2002C01D100201AE00120FFF75CFF25
:104B7000002801D0002013E02000441EC0B200280D
:104B80000DD009216846DFF834251268D2699047B4
:104B90000120FFF749FF0028EED0002000E00120AF
:104BA000FEBD7CB514006A46DFF8BC35D3E900567B
:104BB000C2E9005681228DF800208DF8040008001B
:104BC000C0B200098DF8050011F00F008DF8060045
:104BD00008216846DFF8E4241268D2699047E4B2FD
:104BE000002C01D100201AE00120FFF71DFF002852
:104BF00001D0002013E02000441EC0B200280DD0D8
:104C000008216846DFF8B4241268D2699047012071
:104C1000FFF70AFF0028EED0002000E0012076BD5B
:104C20007FB506000C0015006846DFF8401510221D
:104C300003F0C6F981208DF800008DF80360200F85
:104C40008DF80400200E10F00F008DF80500200DE7
:104C500010F00F008DF80600200C10F00F008DF8FA
:104C60000700200B10F00F008DF80800200A10F04C
:104C70000F008DF80900C4F303108DF80A0014F03A
:104C80000F008DF80B000D216846DFF83024126804
:104C9000D2699047EDB2002D01D100201AE0012029
:104CA000FFF7C2FE002801D0002013E02800451EB7
:104CB000C0B200280DD00D216846DFF8002412682C
:104CC000D26990470120FFF7AFFE0028EED0002008
:104CD00000E0012004B070BD7CB50C0015006946F1
:104CE000DFF88C24D2E90036C1E9003681218DF845
:104CF00000108DF803006426FFF788FE0521684642
:104D0000DFF8B8231268D269904705E00120DFF888
:104D10004C14096849688847761E36B2012E0ADBB2
:104D20000120FFF752FE0428F0D1DFF80804807854
:104D30002070002005E02800451EC0B20028DAD10E
:104D4000012076BD7CB50C0015006946DFF82424EF
:104D5000D2E90036C1E90036002181218DF800102A
:104D60008DF803006426FFF751FE05216846DFF841
:104D70004C231268D269904705E00120DFF8DC136C
:104D8000096849688847761E36B2012E19DB012072
:104D9000FFF71BFE0728F0D1DFF89803817809019F
:104DA000DFF89003C07801430901DFF88803007938
:104DB00001430901DFF87C03407901432180002091
:104DC00005E02800451EC0B20028CBD1012076BDE9
:104DD0007CB50C0015006946DFF89C23D2E900364B
:104DE000C1E900360021216081218DF800108DF885
:104DF00003006426FFF70AFE05216846AF4A1268E1
:104E0000D269904705E00120DFF85013096849682E
:104E100088473000461E00B2002815D00120FFF759
:104E2000D4FD0B28EFD1022009E02168090121609F
:104E30002168C04AC0B2125C11432160401CC0B25C
:104E40000A28F2DB002005E02800451EC0B2002839
:104E5000CFD1012076BD1B21C0B2B0F13102092AA9
:104E600002D2B0F1130131E0C0B2B0F141021A2A0E
:104E700002D2B0F1410129E0C0B2202816D0212889
:104E800018D0262810D02C281AD02D281CD02E2837
:104E900014D02F2816D0302804D03A280CD03F2820
:104EA00006D013E0272111E01A210FE01B210DE0AD
:104EB0001C210BE01D2109E04A2107E04C2105E0FF
:104EC0004D2103E04E2101E04F21FFE70800C0B271
:104ED00070477CB514006A46A84BD3E90056C2E976
:104EE000005650EA01108DF8040006216846734A06
:104EF0001268D2699047E4B2002C01D1002019E079
:104F00000120FFF791FD002801D0002012E02000D1
:104F1000441EC0B200280CD006216846674A1268B9
:104F2000D26990470120FFF77FFD0028EFD00020D5
:104F300000E0012076BDF0B585B005000E00170039
:104F40001C0068468E49102203F03AF855F0100014
:104F50008DF804008DF806608DF807708DF8084014
:104F600010216846554A1268D26990470A9CE4B2FB
:104F7000002C01D1002019E00120FFF755FD002889
:104F800001D0002012E02000441EC0B200280CD046
:104F900010216846494A1268D26990470120FFF7FC
:104FA00043FD0028EFD0002000E0012005B0F0BD57
:104FB000F0B589B007000C00150004A87149102253
:104FC00002F0FEFF68467049102202F0F9FF002649
:104FD00057F020008DF8140057F030008DF80400D1
:104FE0000A2100220DF11507380000F039FC0A21D2
:104FF00000220DF10507380000F032FC0CE0F6B29B
:10500000142E07DA2078FFF726FF6946F6B23144FE
:1050100001F8050C761C641CF6B2142E0ADAF6B2FE
:105020000A2EECDA2078FFF716FF04A9F6B2314415
:105030004871EFE7102104A8204A1268D26990470E
:10504000EDB2002D02D00120FFF7EEFC10216846E2
:105050001A4A1268D2699047EDB2002D02D00120A1
:10506000FFF7E2FC002009B0F0BD00B583B0684650
:105070004649D1E90023C0E9002381208DF80000D2
:10508000072168460D4A1268D269904707BD0000A3
:10509000AC190020B019002080B581203C4908706F
:1050A0007F203B49C87002203949087106213848E1
:1050B000024A1268D269904701BD00009819002089
:1050C000B4190020B819002080B58120304908703B
:1050D00007202F49C87002202D49087106212C484D
:1050E0002C4A1268D269904701BD80B581202849B9
:1050F000087007202649C870032025490871062139
:105100002348244A1268D269904701BD9C190020A7
:1051100080B581201E49087008201D49C8700220F2
:105120001B49087106211A481A4A1268D269904729
:1051300001BD0000DC18002080B5812014490870F2
:1051400008201349C870032011490871062110482E
:10515000104A1268D269904701BD0000A8190020CA
:1051600000F30008ACF2000808F300082CF2000875
:1051700010F3000818F3000820F3000828F30008D3
:105180003CF200084CF200085CF2000830F3000822
:10519000A00000209819002010B5DFF864060088F0
:1051A00080B2000AD0F14000DFF858160870DFF82E
:1051B0005806007B01F0F6FCDFF8501601F090FD78
:1051C000DFF84C160860DFF84006007B032190FBF7
:1051D000F1F001F0DDFC0400DFF82806007801F0B2
:1051E000E1FCDFF82C16096801F0ECFC210001F06D
:1051F000F5FDDFF820160860DFF818060068DFF814
:10520000181603F0F7FA04D8DFF81006DFF80416D2
:105210000860DFF8000600685FF07E5103F0FCFADA
:1052200004D25FF07E50DFF8EC150860DFF8E4058B
:10523000006801F033FDDFF8E8154873DFF8D405A6
:10524000006801F02BFDDFF8D815887310BD80B51C
:10525000C0B201F0A7FCDFF8CC1501F0B3FC5FF0A1
:105260007C5101F0BBFD01F019FDC0B2002800D156
:105270000120C0B202BD80B5C0B201F093FCDFF8DE
:10528000A81501F09FFC5FF07C5101F0A7FD01F033
:1052900005FDC0B2002800D10120C0B202BD80B51A
:1052A000002803D13C20FFF7D2FF02E03C20FFF7AB
:1052B000E2FFC0B202BD00B585B001214FF400602D
:1052C00001F03FFEDFF8640501F094FE0120ADF827
:1052D0000A000020ADF8060044F62060ADF8080092
:1052E0005F20ADF8040000208DF80C0001A9DFF864
:1052F0003C0501F06EFF0121DFF8300501F0CCFF25
:1053000019208DF8000007208DF8010001208DF88C
:105310000300684601F0F3FF01220121DFF80C05CC
:1053200001F0AEFF0121DFF8040501F09BFF05B09D
:1053300000BD10B50C000121DFF8F4241160C0B2EB
:1053400003F0B1FA2000C0B203F0ADFAA4B2200A13
:10535000C0B203F0A8FA0020DFF8D41408600020DF
:1053600010BDDFF8C804008850F00100DFF8BC145D
:1053700008807047DFF8B40400884FF6FE710840DB
:10538000DFF8A8140880704710B584B06846DFF8CD
:10539000A4141CC91CC00C390C38684600F0B9FEB6
:1053A000322001F0A7F90021002000F063FE002167
:1053B000012000F05FFE0121002001F03CF90121F5
:1053C000012001F038F90021002000F092FE0021B8
:1053D000012000F08EFE6421002000F07AFE64219E
:1053E000012000F076FE3221002000F062FE502104
:1053F000012000F05EFEFFF75EFF1FBD80B50020BC
:10540000DFF81C1408710020DFF8141488600020F5
:10541000DFF80C1448710020DFF8E4130880FFF770
:10542000BBFE0020DFF8F813C87301BD70B582B071
:1054300004000D000020DFF8001408600020DFF8F1
:10544000FC1308600A21002000F0D4FE0A2101208C
:1054500000F0D0FE002001F024F90028FAD101204C
:1054600001F01FF90028F5D1DFF8D4030068002807
:1054700004D10120DFF8CC13087003E00020DFF82E
:10548000C4130870142001F0B0F9DFF8B403006809
:10549000002801D1012000E00020DFF8A8130978DE
:1054A000C0B28142E0D1DFF8A0030068002804D137
:1054B0000120DFF89813087003E00020DFF88C1358
:1054C0000870142001F091F9DFF87C0300680028CF
:1054D00001D1012000E00020DFF870130978C0B28C
:1054E0008142E0D1DFF85C030078002810D003206F
:1054F000DFF85C130870002001F0EBF810F5C841EC
:105500000520009001233222002000F0A9FE0EE0C9
:105510000220CF490870002001F0DBF8B0F5C84147
:105520000520009001233222002000F099FEC74898
:10553000007800280FD00320C6490870012001F030
:10554000C8F810F5C8410520009005230522012068
:1055500000F086FE0EE00220BE490870012001F036
:10556000B8F8B0F5C84105200090052305220120B8
:1055700000F076FE002602E0012001F036F9B04886
:105580000068002801D1012000E00020AD49097821
:10559000C0B2814235D00A2001F027F9A84800683E
:1055A000002801D1012000E00020A6490978C0B2FE
:1055B000814226D0A2480068002803D10120A149D9
:1055C000087002E000209F490870A14890F900008F
:1055D000012816DB9E480078401E9D4908709C48B3
:1055E00090F90000002806D10121002000F002FE01
:1055F0009149086005E00A21002000F0FBFD8E497A
:10560000086091480068002801D1012000E00020D6
:105610008E490978C0B2814235D00A2001F0E5F800
:1056200089480068002801D1012000E00020874956
:105630000978C0B2814226D083480068002803D18F
:1056400001208249087002E00020804908708148EA
:1056500090F90000012816DB7E480078401E7D4945
:1056600008707C4890F90000002806D10121012033
:1056700000F0C0FD7149086005E00521012000F03F
:10568000B9FD6E490860002001F00BF8002841D1F7
:105690006F4890F9000001281DDB69480068002868
:1056A0000CD1002001F015F810F5C8410120009040
:1056B00001230122002000F0D3FD2BE0002001F0A7
:1056C00008F8B0F5C8410120009001230122002014
:1056D00000F0C6FD1EE05E4890F90000002819D1D8
:1056E0005FF0FF305A4908705B48534909685FF022
:1056F000FF3202FB1101002000F0F3FF3C20FFF716
:10570000A6FD0200032000900323D2B22100002056
:1057100000F0A6FD012000F0C4FF002841D14D4853
:1057200090F9000001281DDB4748006800280CD1D3
:10573000012000F0CEFF10F5C841012000900123A8
:105740000122012000F08CFD2BE0012000F0C1FFC0
:10575000B0F5C8410120009001230122012000F092
:105760007FFD1EE03B4890F90000002819D15FF052
:10577000FF30384908703948304909685FF0FF3216
:1057800002FB1101012000F0ACFF3C20FFF773FD8C
:105790000121009101230200D2B22900012000F072
:1057A0005FFD2B4890F9000010F1010F05D1294849
:1057B00090F9000010F1010F1FD0761C47F2315014
:1057C0008642FFF4D9AE0A21002000F013FD0A2121
:1057D000012000F00FFD002000F063FF0028FAD147
:1057E000012000F05EFF0028F5D10021002000F02C
:1057F00078FF0021012000F074FF73BD000000005D
:10580000C0170020CF190020981800200000D841B0
:105810006C190020701900200100704200007042D5
:10582000CC180020610BB63F610BB63E002C014046
:105830009001214294F20008741900207819002088
:105840000C812142D019002010812142D119002061
:10585000D2190020D319002002D6FFFFF8FDFFFF68
:1058600062F30F2262F31F42401810F0030308D0C6
:10587000C91A1FD3DB0748BF00F8012D28BF20F845
:10588000022D130030B414461546103928BF20E904
:105890003C00FAD8490728BF20E90C0048BF40F86F
:1058A000042D890028BF20F8022D48BF00F8012DE3
:1058B00030BC7047C91818BF00F8012DCB0728BFAE
:1058C00000F8012D704700000100481EC9B20029F0
:1058D00005D00021C9B23029F6DA491CFAE7704731
:1058E00080B50120DFF8081208600120DFF80412FB
:1058F00008600220FFF7E8FF0020DFF8F4110860DD
:105900000220FFF7E1FF0020DFF8E8110860012026
:10591000FFF7DAFF01BD80B50020DFF8D411086081
:105920000120FFF7D1FF0120DFF8C8110860022035
:10593000FFF7CAFF0120DFF8B81108600220FFF767
:10594000C3FF01BD10B5DFF8B001006820F0704062
:10595000DFF8A4110860DFF8A001006850F0804073
:10596000654908600120624908600120FFF7ACFF2B
:105970000120604908600220FFF7A6FF5F48006829
:10598000002801D0012400E00024002059490860CB
:105990000120FFF799FF5848006820F070405649F1
:1059A00008605548006850F0405053490860200096
:1059B000C0B210BD80B5C0B2002803D000204C4951
:1059C000086002E001204A4908600120FFF77CFFDF
:1059D0000120484908600220FFF776FF0020454972
:1059E00008600120FFF770FF01BD38B504000025F5
:1059F00013E000203E4908600120FFF765FF6400C6
:105A000001203C4908600220FFF75EFF0020394971
:105A100008600120FFF758FF6D1CEDB2082D05DA74
:105A20002006E6D5012032490860E5E7FFF78AFF46
:105A3000C0B232BD70B5040000252F48006820F0C8
:105A400070402D4908602C48006850F080402A4979
:105A50000860002616E00120FFF736FF01202549E7
:105A600008600220FFF730FF6D002448006800281E
:105A700001D055F0010500201E4908600120FFF704
:105A800023FF761CF6B2082EE5DB1B48006820F0E9
:105A90007040194908601848006850F04050164995
:105AA00008602000C0B2FFF785FF2800C0B270BDBB
:105AB00011480068000900010F4908600E4800689D
:105AC00050F040700C4908600B48006820F07040AE
:105AD000094908600848006850F0405006490860CD
