:020000040800F2
:10000000C0240020110E0508A7A00108A9A001081E
:10001000ABA00108ADA00108AFA0010800000000DE
:10002000000000000000000000000000ABA101087B
:10003000B1A001080000000065A10108DD920108DF
:1000400095120508991205089D120508A1120508C8
:10005000A5120508A9120508AD120508B112050878
:10006000B5120508B9120508BD120508C112050828
:10007000C5120508C9120508CD120508D1120508D8
:10008000D5120508D9120508DD120508E112050888
:10009000E5120508E9120508ED120508F112050838
:1000A000F5120508F9120508FD12050801130508E7
:1000B00005130508091305080D1305081113050894
:1000C00015130508191305081D1305082113050844
:1000D0002513050803CB0108291305082D1305086E
:1000E0003113050835130508391305083D130508B4
:1000F0004113050845130508491305084D13050864
:100100005113050855130508591305085D13050813
:10011000611305086513050869130508B3A00108F4
:10012000BDA00108C7A00108D1A001086D130508F2
:1001300071130508EFA00108751305087913050868
:100140007D13050881130508851305088913050823
:100150008D130508DBA00108E5A001083DCB0108CF
:100160009113050895130508991305089D130508B3
:10017000A1130508A5130508A91305080000000030
:10018000AD13050880B5002807D090F874205206FA
:1001900005D5DFF8C01203F048FB002002BD00299E
:1001A00008D090F87010C90704D4DFF8AC1203F03F
:1001B0003CFBF2E7416F51F4804141670120EDE7DC
:1001C000F8B504000D0016001F0000212000FFF705
:1001D000D9FF002801D0002D00D12CE0002E05D140
:1001E000DFF87812200003F0DCFA24E0A06F40F47E
:1001F000802050F08000A067A06F30F40000A0675E
:10020000606F30F4005060674FF48870204429001C
:100210000A2203F025FC0698C4F80C0184F80A6150
:10022000002F04D0A06F50F48070A06703E0A06F8F
:1002300030F48070A067F1BDF8B504000D00160021
:100240001F00DFF81C020090DDE90623200005F006
:10025000E1F900903B00320029002000FFF7B0FFD9
:10026000F1BD10B5040000212000FFF78BFF00282E
:1002700003D0A06F50F48060A06710BD11F1010F92
:1002800003D0DFF8E03199420BD1416F51F4805136
:100290004167002A02D0DFF8D01110E04BF28F1135
:1002A0000DE011F1020F03D0DFF8C001814206D149
:1002B000002A02D0DFF8B81101E0DFF8B811080019
:1002C000704770B5060014001D00200029000022B0
:1002D000002305F0F5FD10D2200029000022DFF8F0
:1002E000983105F005FE08D20022DFF89031200099
:1002F000290005F015FE04000D000022DFF8803112
:100300002000290005F0DEFE05F050FF04000D007E
:1003100020002900DFF86C21DFF86C3105F0D0FDFA
:1003200008D920002900DFF86421DFF8643105F0E6
:10033000DFFD04D2DFF85C11300003F005FB200084
:10034000290005F063FF70BD70B504000D001600B4
:1003500000212000FFF716FF002823D001222900EA
:100360002000FFF78BFF0500002231002000FFF77F
:1003700085FF0600012E04DADFF8B81B200003F029
:1003800085F9012D04DADFF8B01B200003F07EF9B7
:10039000C4F86062B4F8AA0250F00100A4F8AA02FE
:1003A000C4F8285170BDF8B5060014001D00DDE941
:1003B00006233000FFF785FF070022002B003000E6
:1003C000FFF77FFF3A0001003000FFF7BDFFF1BDEE
:1003D00010B5040000212000FFF7D4FE002805D04E
:1003E000A06F40F0007050F48050A06710BD10B5B1
:1003F000040000212000FFF7C5FE002803D0A06FF5
:1004000050F48050A06710BD10B5040000212000FA
:10041000FFF7B8FE002806D02000FFF7E8FFA06F26
:1004200050F48040A06710BD80B5DFF8C83C0A00DA
:100430000100684605F01CF9002804D0009805F07A
:100440008DF9002801D0012000E00020C0B202BDDB
:1004500000000000CCDB040830EE040884DD040852
:10046000FC0605086079FEFF605B0300B03CFFFFFF
:10047000AC5002007501010000006040006AF840C5
:100480000000E03F0100C0FFFFFFDF410000C0FFB0
:10049000FFFFDFC1340F050810B400210022B0F8BF
:1004A000F830002B14D0002300E05B1CB0F8F840BB
:1004B000A3420DDAD0F85041E45CFF2CF5D0D0F81F
:1004C0005021D25C002A01D10122EEE70122012154
:1004D00000290DD1816F31F400018167416F31F442
:1004E00000514167002A03D1816F31F4C0718167E7
:1004F000816F11F48851B1F5885F31D1D0F8EC10DB
:1005000090F8102103235A43895CA0F81211D0F807
:10051000EC1090F8102103235A4311444978A0F8B5
:100520001411D0F8EC1090F8102103235A43114411
:100530008978A0F81611816F090311D5816F89019F
:100540000ED4B0F8F820002108E0D0F850315B5C00
:10055000D3F1FF03D0F850416354491C9142F4DBBE
:1005600010BC704790F8FF10C1F3800111F0010139
:10057000B0F8F820002A01D0012200E00022002972
:100580000DD1816F31F400018167416F31F4005169
:100590004167002A03D1816F31F4C0718167816F97
:1005A00011F48851B1F5885F2ED190F8FF108907BA
:1005B0002AD4B0F81811B0F85C2190F80031012B62
:1005C00004D0022B07D0042B0AD00EE0FF2359439E
:1005D000FF235A4309E05523594355235A4304E066
:1005E0001123594311235A43FFE7A0F81611A0F82D
:1005F0001411A0F81211816F890105D4A0F85A21B5
:10060000A0F85821A0F8562170472DE9FC410400BC
:100610000025D4F86002002812D0D4F82801002860
:1006200007D0D4F82811D4F86002FFF7FDFE0500CA
:1006300019E0D4F8600205F06DF8C4F8280112E062
:10064000D4F82801002806D0D4F8280105F062F873
:10065000C4F8600207E0DFF89C0AC4F86002D4F82E
:100660006002C4F82801B4F8AA0250F00100A4F80E
:10067000AA02002D04D0A06F50F40050A06703E040
:10068000A06F30F40050A067A06FDFF86C1A08402C
:10069000B0F5802F0BD1A06FDFF8601A0840A0677B
:1006A000606F30F4005060670020A4F8F800D4F8C0
:1006B000280105F053F8002807D1A06F30F400009E
:1006C000A067606F30F400506067A06F10F4C00F37
:1006D00002D0200004F04FFDA06FC00508D594F8AB
:1006E000FF0080071FD4206F50F4006020671AE0DD
:1006F00094F87800000616D5A06F400413D5B4F81E
:100700001201B4F8141188420DD1B4F81201B4F8F2
:100710001611884207D1206F50F400602067B4F8AA
:100720001201A4F8180194F8FF00032803D1200057
:10073000FFF7B2FE02E02000FFF714FFA06F10F4F5
:100740006070B0F5207F2BD194F80001102827D0DD
:10075000B4F81201FF2148F27F0201FB0020000CD7
:10076000A4F81201B4F81401FF2148F27F0201FB42
:100770000020000CA4F81401B4F81601FF2148F27F
:100780007F0201FB0020000CA4F81601B4F8180148
:10079000FF2148F27F0201FB0020000CA4F81801A1
:1007A000A06F10F0042F24D0A06F10F4C070802828
:1007B0001FD194F8000110281BD1B4F8120140F2A7
:1007C00001114843A4F81201B4F8140140F20111D8
:1007D0004843A4F81401B4F8160140F2011148434B
:1007E000A4F81601B4F8180140F201114843A4F826
:1007F00018014FF48D7020444FF4887121440A226F
:1008000003F02EF9A06F800434D4A06F10F4C00F51
:100810000BD0D4F8600204F0A1FF00282AD1D4F84C
:10082000280104F09BFF002824D194F878000006EA
:1008300015D5D4F8600204F091FF00281AD1D4F83D
:10084000280104F08BFF002814D194F80A01032832
:1008500005D1D4F80C0104F081FF00280AD1A06F63
:10086000000240F17282D4F8280104F077FF0028DA
:1008700000F06B8294F80011200005F027FA94F83C
:100880007800000640F12182A06F10F4C00F04D060
:10089000DFF86C18200002F084FF94F8FF000328B2
:1008A00040F06B81D4F8EC50B4F8F06094F80A0191
:1008B00002282AD1D4F82C01B4F81211405C8DF82A
:1008C0000400D4F82C01B4F81411405C8DF8050034
:1008D000D4F82C01B4F81611405C8DF80600D4F859
:1008E0003801B4F81211405C8DF80000D4F83801DA
:1008F000B4F81411405C8DF80100D4F83801B4F854
:100900001611405C8DF8020079E094F80A01012884
:1009100004D022D3032813D005D31EE0D4F82871C5
:10092000DFF8D0871DE0D4F8600204F0F3FE070082
:10093000D4F82811D4F8600204F05AFF804610E081
:10094000D4F80C0104F0E6FE0700D4F82811D4F81E
:100950000C0104F04DFF804603E0DFF89877DFF8E4
:100960009487404604F0FAFE002815D04146B4F8BA
:10097000120104F079FF8DF804004146B4F8140127
:1009800004F072FF8DF805004146B4F8160104F03A
:100990006BFF8DF806000BE0B4F812018DF804002F
:1009A000B4F814018DF80500B4F816018DF80600AE
:1009B000380004F0D3FE002815D03900B4F8120135
:1009C00004F052FF8DF800003900B4F8140104F06F
:1009D0004BFF8DF801003900B4F8160104F044FF14
:1009E0008DF802000BE0B4F812018DF80000B4F8A5
:1009F00014018DF80100B4F816018DF802000027EB
:100A000025E0D4F82C01032101FB07F1695C405C6F
:100A1000032101FB07F16854D4F82C01032101FBE9
:100A200007F129444978405C032101FB07F129447F
:100A30004870D4F82C01032101FB07F1294489787F
:100A4000405C032101FB07F1294488707F1CB742F9
:100A500080F28E80B4F8F8008742D2DAD4F85001E0
:100A6000C05DFF28CDD0D4F85001C05D002808D16A
:100A7000032000FB07F0284401A9032202F0F0FF45
:100A8000E4E7D4F83801032101FB07F1695C405C1D
:100A9000C0B2D4F85011C95D9DF80020D4F850318F
:100AA000DB5DD3F1FF035A4301FB002010F180010D
:100AB00089B2080080B2000A80B240180012D4F84F
:100AC0003411C0B2085C032101FB07F16854D4F86B
:100AD0003801032101FB07F129444978405CC0B289
:100AE000D4F85011C95D9DF80120D4F85031DB5D78
:100AF000D3F1FF035A4301FB002010F1800189B2BA
:100B0000080080B2000A80B240180012D4F83411F4
:100B1000C0B2085C032101FB07F129444870D4F8F6
:100B20003801032101FB07F129448978405CC0B2F8
:100B3000D4F85011C95D9DF80220D4F85031DB5D26
:100B4000D3F1FF035A4301FB002010F1800189B269
:100B5000080080B2000A80B240180012D4F83411A4
:100B6000C0B2085C032101FB07F1294488706DE7DE
:100B7000A06F30F40250A0677BE1DFF87855DFF812
:100B8000746594F80A01012804D020D3032811D0F9
:100B900003D31CE0D4F828511EE0D4F8600204F01E
:100BA000B9FD0500D4F82811D4F8600204F020FE45
:100BB000060011E0D4F80C0104F0ACFD0500D4F8F7
:100BC0002811D4F80C0104F013FE060004E0DFF84D
:100BD0003415200002F05AFD280004F0BFFD070084
:100BE000300004F0BBFD8046002F07D02A00B4F887
:100BF0001811200004F0AAFEA4F82201B8F1000F99
:100C000007D03200B4F81811200004F09FFEA4F8B9
:100C10001801B4F81201B4F8141188420BD1B4F8D9
:100C20001201B4F81611884205D1B4F81201B4F8D3
:100C30001811884235D0002F17D02A00B4F81211AD
:100C4000200004F083FEA4F81C012A00B4F814115B
:100C5000200004F07BFEA4F81E012A00B4F816114F
:100C6000200004F073FEA4F82001B8F1000F28D092
:100C70003200B4F81211200004F068FEA4F812014A
:100C80003200B4F81411200004F060FEA4F814013E
:100C90003200B4F81611200004F058FEA4F8160132
:100CA0000FE0B4F82201A4F82001A4F81E01A4F872
:100CB0001C01B4F81801A4F81601A4F81401A4F852
:100CC0001201012084F80A01D3E094F8FF00032800
:100CD00040F0CF80A06FC00404D5A06F10F4C00F07
:100CE00040F0C780D4F8EC00B4F8F010002225E002
:100CF000D4F82C31032505FB02F5455D5B5D03252A
:100D000005FB02F54355D4F82C31032505FB02F50C
:100D100005446D785B5D032505FB02F505446B70AA
:100D2000D4F82C31032505FB02F50544AD785B5D55
:100D3000032505FB02F50544AB70521C8A42D7DB44
:100D4000A06F30F40050A06793E094F8780000069C
:100D500040F18F8094F8FF00032840F08A80B4F8B7
:100D6000F850D4F8EC60B4F812018DF80000B4F833
:100D700014018DF80100B4F816018DF80200002767
:100D800063E0D4F85001C05DFF285DD0032000FB74
:100D900007F0305CD4F85011C95D9DF80020D4F8FC
:100DA0005031DB5DD3F1FF035A4301FB002010F10A
:100DB000800189B2080080B2000A80B24018001297
:100DC000032101FB07F17054032000FB07F03044BE
:100DD0004078D4F85011C95D9DF80120D4F8503105
:100DE000DB5DD3F1FF035A4301FB002010F18001CA
:100DF00089B2080080B2000A80B2401800120321B4
:100E000001FB07F131444870032000FB07F0304438
:100E10008078D4F85011C95D9DF80220D4F8503183
:100E2000DB5DD3F1FF035A4301FB002010F1800189
:100E300089B2080080B2000A80B240180012032173
:100E400001FB07F1314488707F1CAF420DDAD4F802
:100E50005001C05D002894D1032000FB07F030440E
:100E60006946032202F0FCFDEEE7A06F30F080003F
:100E7000A067A06F41F208010840082858D194F8F3
:100E8000FF00032854D1B4F8F00094F84411D1F1D4
:100E90000801A26F32F00802A2674A1E072A11D287
:100EA00000220DE0D4F8EC30032505FB02F55B5D74
:100EB0000B41D4F8EC50032606FB02F6AB55521C4E
:100EC0008242EFDB94F84511D1F108014A1E072A4E
:100ED00013D200220FE0D4F8EC30032505FB02F515
:100EE0002B445B780B41D4F8EC50032606FB02F64A
:100EF00035446B70521C8242EDDB94F84611D1F1FF
:100F000008014A1E072A13D200220FE0D4F8EC3061
:100F1000032505FB02F52B449B780B41D4F8EC50DC
:100F2000032606FB02F63544AB70521C8242EDDB11
:100F3000BDE8F38124F4040820F0040838B5040067
:100F40000D00A06FC0042AD5687E032815D1B4F81F
:100F5000F800002802D00620687601E002206876BA
:100F6000082028760020E882D4F8EC00002816D16A
:100F70006549200002F08AFB11E0B4F8F80000286F
:100F800006D0A06F800103D5687E50F0040068761B
:100F9000287E082801DA082028760020E88294F8C4
:100FA0007800000607D515F1AA004FF48871214496
:100FB0000A2202F055FDD4F86002A862287E1028AB
:100FC00009D1A06F400101D508202876A06F400507
:100FD00001D508202876A06F400403D5687E50F024
:100FE00002006876A06F10F4C00F03D0687E10F086
:100FF000FD00687694F8780040060ED5687E0228D9
:1010000002D0687E062808D1D4F8A401002804D0B4
:10101000287E082801D103206876A06F800507D5B7
:10102000287E082804D1687E032801D01020287665
:1010300094F87800400704D5287E082801DA0820B3
:101040002876687E032802D10120687707E0687E51
:10105000800702D50320687701E001206877A06F40
:10106000400305D5687E10F0FB0068760020E8821A
:10107000687E400702D5687F401C6877A06F000437
:101080000FD5687E022802D0687E002809D1687FCB
:10109000401C6877A06FC00103D5687E50F0040043
:1010A0006876A06FC0020FD5287E94F86C10884235
:1010B00002D294F86C002876687F94F86D1088420C
:1010C00002D294F86D006877687F297E4843A8773C
:1010D000A87F082804DB2868A97FC908484304E0E2
:1010E0002868A97F4843C01DC008E860E868C4F8C4
:1010F000E00031BDA086010080000400FFFE7FFDFE
:101100007CDC040804F9040848F4040870B4427A4A
:10111000082A68DA0268437A012B04D0022B1ED019
:10112000042B39D055E0531EDB080B4411444C1EF0
:10113000D11D11F00701D1F10705002102E06D1C5E
:10114000641E491C914209D21E782E4116F00106F8
:101150002670072DF3D100255B1EF1E739E0531E01
:101160009B080B4411444C1ED11C11F00301D1F11A
:1011700003014D00002102E0AD1C641E491C914298
:1011800009D21E782E4116F003062670062DF3D1E3
:1011900000255B1EF1E71CE0531E5B080B44114465
:1011A0004C1E511C11F00101D1F101018D000021F3
:1011B00002E00425641E491C914209D21E782E418A
:1011C00016F00F062670042DF3D100255B1EF1E703
:1011D000FFE708214172817AC9B2C900C172817AE0
:1011E00001FB02F1416070BC7047FFB4057A032D2A
:1011F00000F08B800023447AAE0712D51678A61B28
:101200006F4647F823605B1C5678A61B6F4647F86D
:1012100023605B1C9678A61B6F4647F823605B1C17
:1012200005E0D678A61B6F4647F823605B1C6D0768
:1012300005D51279A21A6D4645F823205B1C0025BE
:101240002A0001E00125521C9A420EDA6E4656F839
:101250002260012E04DB6E4656F82260A642F1DBC6
:1012600000266F4647F82260EDE7002D4DD0022C96
:1012700006D0042C10D0082C1ED0102C2ED044E008
:101280004068084405E00A78521012F055020A70CE
:10129000491C8142F7D338E040680844009A0F2384
:1012A000134153EA031304E00C7814411C400C7002
:1012B000491C8142F8D328E04068084400220AE033
:1012C0000C786D4655F822502C41521C9A4200DB96
:1012D00000220C70491C8142F2D316E04068084499
:1012E000002210E00C784D7815EB04246D4655F87B
:1012F00022502C41521C9A4200DB002225120D7014
:10130000491C0C70491C8142ECD3FFBC704770B47F
:10131000427A102A1CD10A0043680B440CE00C7876
:10132000491C0D782D1B80354FF6FF76754314EB65
:101330002564491C1470521C9942F0D30821417253
:10134000817AC9B2C900C1720168827A5143416091
:1013500070BC704710B4427A102A13D10A00436857
:101360000B4403E00C781470521C891C9942F9D389
:1013700008214172817AC9B2C900C1720168827ABA
:101380005143416010BC704738B40268037A062BA1
:101390004AD1437A082B17D1406808440100002441
:1013A000944277D2401E0378491E401E05780D7086
:1013B000491E401E05780D70491E401E05780D70AF
:1013C000491E0B70641CEBE7406801440B000020D1
:1013D00090425FD2491E0C788DF80040491E0C786F
:1013E0008DF801405B1E491E0C781C705B1E491E67
:1013F0000C781C705B1E491E0C781C705B1E491E0D
:101400000C781C705B1E491E0C781C705B1E491EFC
:101410000C781C705B1E9DF800401C705B1E9DF8D4
:1014200001401C70401CD3E7037A042B32D1437A6D
:10143000082B0FD14068084401000024944229D2AF
:10144000401E0378491E401E05780D70491E0B7022
:10145000641CF3E7406808440100002318E0401EC4
:1014600004788DF80040401E04788DF80140491E34
:10147000401E04780C70491E401E04780C70491EF2
:101480009DF800400C70491E9DF801400C705B1CDB
:101490009342E4D331BC704710B40268037A062B40
:1014A00028D1437A082B0FD140680844010000235B
:1014B00093424DD2491E401E0478D4F1FF040C70B3
:1014C000C01E01005B1CF3E74068084401000023D4
:1014D00093423DD2491E401E0478D4F1FF040C70A3
:1014E000491E401E0478D4F1FF040C70801F0100D7
:1014F0005B1CEDE7037A042B2AD1437A082B11D128
:101500004068084401000023934221D2491E401E36
:101510000478D4F1FF040C70491E401E04780C704E
:101520005B1CF1E740680844010000230EE0491EFF
:10153000401E0478D4F1FF040C70491E401E04784C
:10154000D4F1FF040C70801E01005B1C9342EED3AB
:1015500010BC7047F0B40468150A067A002E74D1E6
:10156000467A082E2FD11B0617D501EB040303EB97
:101570000405012106E06D1E2A706D1E5B1E1E789B
:101580002E70491CA142F6D36D1E2A700221817271
:101590001021C1726100416006E101EB040303EB1D
:1015A0000405002106E06D1E5B1E1E782E706D1E68
:1015B0002A70491CA142F6D3022181721021C17206
:1015C00061004160F0E0467A102E40F0ED801B068D
:1015D0001FD501EB440303EB440601210CE0761E0A
:1015E0003570761E3270761E5B1E1F783770761E41
:1015F0005B1E1F783770491CA142F0D3761E3570F0
:10160000761E3270022181722021C172A1004160D8
:10161000CAE001EB440303EB440600210CE0761E14
:101620005B1E1F783770761E5B1E1F783770761E24
:101630003570761E3270491CA142F0D302218172AE
:101640002021C172A1004160AEE0067A022E40F076
:10165000AB80467A082E43D11B0621D5032303FB1A
:1016600004F30B4403EB040501210EE06D1E2A7008
:101670006D1E5B1E1E782E706D1E5B1E1E782E70FA
:101680006D1E5B1E1E782E70491CA142EED36D1E8E
:101690002A70042181722021C172A100416083E07F
:1016A000032303FB04F30B4403EB040500210EE0CA
:1016B0006D1E5B1E1E782E706D1E5B1E1E782E70BA
:1016C0006D1E5B1E1E782E706D1E2A70491CA14275
:1016D000EED3042181722021C172A100416063E038
:1016E000467A102E60D11B0631D5062303FB04F386
:1016F0000B4403EB440601211CE0761E3570761E78
:101700003270761E5B1E1F783770761E5B1E1F7848
:101710003770761E5B1E1F783770761E5B1E1F7833
:101720003770761E5B1E1F783770761E5B1E1F7823
:101730003770491CA142E0D3761E3570761E327098
:10174000042181724021C172E10041602CE0062336
:1017500003FB04F30B4403EB440600211CE0761E5C
:101760005B1E1F783770761E5B1E1F783770761EE3
:101770005B1E1F783770761E5B1E1F783770761ED3
:101780005B1E1F783770761E5B1E1F783770761EC3
:101790003570761E3270491CA142E0D3042181725B
:1017A0004021C172E1004160F0BC704730B4026872
:1017B000437A082BC0F29C80037A9B0700F1988043
:1017C000037A002B35D1437A082B12D111444B1EDA
:1017D00003EB42040021914271D21D782570641EF2
:1017E0001D782570641E1D7825705B1E641E491CC3
:1017F000F1E701EB42014B1E03EB82040021914211
:101800005DD21D782570641E13F8015C2570641E7E
:101810001D782570641E13F8015C2570641E1D7808
:1018200025705B1E641E1D7825705B1E641E491C9E
:10183000E5E7037A042B42D1437A082B17D101EB59
:1018400042014B1E03EB42040021914237D21D7826
:1018500025705B1E641E1D782570641E1D78257022
:10186000641E1D7825705B1E641E491CEDE701EBAC
:1018700082014B1E03EB820400211EE01D782570BF
:101880005B1E641E1D7825705B1E641E1D7825700E
:10189000641E13F8015C2570641E1D782570641E9B
:1018A00013F8015C2570641E1D7825705B1E641E94
:1018B0001D7825705B1E641E491C9142DED3817A1F
:1018C000891C8172017A51F002010172817A437A96
:1018D0005943C172C17A082904DBC17AC90801FBE6
:1018E00002F104E0C17A01FB02F1C91DC90841609F
:1018F00030BC70472DE9FE4F160000250A7A12F021
:101900000302022A40F00982B0F8E6210192B0F801
:10191000E821019BD3F500439B1A02930B680C7AD4
:10192000C4F3800414F001044F7A082F40F0B38010
:10193000D0F83471002F6BD0D0F83871002F67D0F9
:1019400037005FF0000C17E0D0F82CE1BEF1000F7B
:1019500005D0D0F82CE15FFA8BFB1EF80BB086F8AF
:1019600000B0761C002C05D097F800E086F800E067
:101970007F1C761C1CF1010C9C4580F0B58197F80A
:1019800000B07F1C97F800A07F1C97F800E07F1C38
:10199000D846D1465FFA88F85FFA89F9C84507D179
:1019A000D846F1465FFA88F85FFA89F9C845CBD086
:1019B000D0F838815FFA8BFB18F80BB0D0F838817B
:1019C0005FFA8AFA18F80AA0D0F838815FFA8EFE1A
:1019D00018F80EE055F00105D0F83481DDF80490D8
:1019E0005FFA8BFB5FFA8AFA0AFB02FA0BFB09A982
:1019F000DDF808A05FFA8EFE0EFB0A9E1EF5804EF3
:101A00005FEADE3E18F80EE086F800E0761CA9E7F3
:101A1000300000270BE086F800C0761C002C05D0B3
:101A200090F800C086F800C0401C761C7F1C9F42C6
:101A300080F05A8190F800C0401C90F800E0401CF3
:101A400090F80080401CE146F2465FFA89F95FFA9F
:101A50008AFAD14507D1E146C2465FFA89F95FFAB1
:101A60008AFAD145D7D055F00105DDF804905FFA28
:101A70008CFC5FFA8EFE0EFB02FE0CFB09ECDDF81F
:101A800008E05FFA88F808FB0ECC5FEADC3C86F8D9
:101A900000C0761CC2E7D0F84071002F00F0D18062
:101AA000D0F83C71002F00F0CC8037005FF0000CC4
:101AB00084E0D0F840A1CDF800A01FFA88F808F023
:101AC000FF0BD0F824A15BFA0AFBDDF800A05AF85E
:101AD0002BA01FFA88F85FEA28283AF81880D0F877
:101AE00040A1CDF800A01FFA89F909F0FF0BD0F84A
:101AF00024A15BFA0AFBDDF800A05AF82BA01FFA1C
:101B000089F95FEA29293AF81990D0F840A1CDF86F
:101B100000A01FFA8EFE0EF0FF0BD0F824A15BFA96
:101B20000AFBDDF800A05AF82BA01FFA8EFE5FEA30
:101B30002E2E3AF81EE0DDF804A01FFA88F81FFAEE
:101B400089F909FB02F908FB0A98DDF808901FFAE9
:101B50008EFE0EFB098E1EF5804E5FEADE3ED0F84B
:101B60003C811FFA8EFE0EF0FF09D0F824A159FA2D
:101B70000AF958F829801FFA8EFE5FEA2E2E38F8EF
:101B80001E8055F00105C6461FFA8EFE5FEA1E2E26
:101B900087F800E07F1C87F800807F1C002C0BD0AA
:101BA00096F800E087F800E0761C7F1C96F800E0CD
:101BB00087F800E0761C7F1C1CF1010C9C4580F02E
:101BC000938096F800E096F8018058EA0E28B61C3B
:101BD00096F800E096F8019059EA0E29B61C96F89E
:101BE00000E096F801A05AEA0E2EB61CC246CB467B
:101BF0001FFA8AFA1FFA8BFBDA457FF45AAFC24606
:101C0000F3461FFA8AFA1FFA8BFBDA457FF451AFCD
:101C1000D0F830E1BEF1000F12D0D0F830E11FFA59
:101C200088F808F0FF09D0F824A159FA0AF95EF8FB
:101C300029E01FFA88F85FEA28283EF81880A2E712
:101C4000A1E737005FF0000C4CE0307896F801E037
:101C50005EEA0020B61C96F800E096F8018058EA8B
:101C60000E2EB61C96F8008096F8019059EA0828C6
:101C7000B61C8146F2461FFA89F91FFA8AFAD14545
:101C800007D18146C2461FFA89F91FFA8AFAD1455F
:101C900001D055F00105DDF8049080B21FFA8EFEE8
:101CA0000EFB02FE00FB09E0DDF808E01FFA88F8F1
:101CB00008FB0E0010F580405FEAD03E704680B20F
:101CC000000A38707F1C87F800E07F1C002C07D0CA
:101CD00030783870761C7F1C30783870761C7F1C0A
:101CE0001CF1010C9C45B0D3887A801E8872087A5A
:101CF00010F0FD000872887A4A7A5043C872C87A98
:101D0000082804DBC87AC00800FB03F004E0C87AA6
:101D100000FB03F0C01DC00848602800BDE8FE8F2E
:101D20002DE9F04FD2F82C81D2F83491D2F838A1B5
:101D3000D2F83041D2F83C51D2F84061D2F8247147
:101D4000536FC3F3403313F0010C036890F808E0BD
:101D5000BEF1000F0DD0BEF1020F00F06B81BEF19D
:101D6000040F00F06182BEF1060F00F0698300F0FD
:101D7000CABD407A01280BD002282CD0042800F0DC
:101D80008C80082800F0E780102800F00F814FE1D8
:101D900007205FF0000E02E0401E1EF1010E9E457E
:101DA00018D20C78044114F00104B2F85C51AC4232
:101DB0000BD10C7847F67F75D0F1070635412C40E2
:101DC000B2F8185185402C430C700028E4D107204C
:101DD000491CE2E72CE1B8F1000F3BD006205FF090
:101DE000000E02E0801E1EF1010E9E4554D20C78BA
:101DF000044114F00304B2F85C51AC420CD10C78ED
:101E000043F63F75D0F1060635412C40B2F8185123
:101E100085402C430C7018E00C78044114F0030446
:101E200054EA840555EA041555EA841418F8044068
:101E3000E4B2A409E4B20D7843F63F76D0F1060788
:101E40003E413540844025430D700028CAD106200C
:101E5000491CC8E706205FF0000E02E0801E1EF15C
:101E6000010E9E4518D20C78044114F00304B2F818
:101E70005C51AC420BD10C7843F63F75D0F10606AD
:101E800035412C40B2F8185185402C430C70002885
:101E9000E4D10620491CE2E7CAE0B8F1000F37D0D0
:101EA00004205FF0000E02E0001F1EF1010E9E45AF
:101EB00050D20C78044114F00F04B2F85C51AC42DB
:101EC0000CD10C7840F60F75D0F1040635412C404A
:101ED000B2F8185185402C430C7014E00C78044182
:101EE00014F00F0454EA041418F80440E4B224096E
:101EF000E4B20D7840F60F76D0F104073E4135404C
:101F0000844025430D700028CED10420491CCCE725
:101F100004205FF0000E02E0001F1EF1010E9E453E
:101F200018D20C78044114F00F04B2F85C51AC42A2
:101F30000BD10C7840F60F75D0F1040635412C40DA
:101F4000B2F8185185402C430C700028E4D10420CD
:101F5000491CE2E76CE0B8F1000F15D05FF0000E0D
:101F600006E0087818F8000008701EF1010E491C00
:101F70009E451AD20878B2F85C4180B2A042F0D1F6
:101F8000B2F818010870F0E75FF0000E0BE0087877
:101F9000B2F85C4180B2A04202D1B2F818010870D8
:101FA0001EF1010E491C9E45F1D341E0002C25D0C5
:101FB0005FF0000E0EE04878384154F820000D78AC
:101FC00030F81550280080B2000A08704D701EF1DC
:101FD000010E891C9E452AD208784D7815EB002504
:101FE000B2F85C01ADB28542E5D1B2F8180180B219
:101FF000000A0870B2F818014870E8E75FF0000EB8
:1020000013E008784C7814EB0020B2F85C4180B201
:10201000A04207D1B2F8180180B2000A0870B2F8E5
:10202000180148701EF1010E891C9E45E9D3FFE797
:1020300000F069BC407A082857D1B8F1000F30D0C1
:102040005FF0000E0EE0087818F80000087048787D
:1020500018F800004870887818F8000088701EF1A1
:10206000010EC91C9E4580F0DE800878B2F856410A
:1020700080B2A042E7D14878B2F8584180B2A0427D
:10208000E1D18878B2F85A4180B2A042DBD1B2F8EF
:1020900012010870B2F814014870B2F81601887085
:1020A000DDE75FF0000E9E4580F0BD800878B2F855
:1020B000564180B2A04214D14878B2F8584180B25B
:1020C000A0420ED18878B2F85A4180B2A04208D11D
:1020D000B2F812010870B2F814014870B2F8160193
:1020E00088701EF1010EC91CDDE7002C60D05FF086
:1020F000000E26E04878384154F820000D7830F87A
:102100001550280080B2000A08704D70C878384118
:1021100054F820008D7830F81550280080B2000A5D
:102120008870CD704879384154F820000D7930F826
:102130001550280080B2000A08714D711EF1010E81
:10214000891D9E456FD208784D7815EB00208D785B
:10215000CE7816EB05250E7991F805C01CEB062606
:10216000B2F856C180B26045C4D1B2F85801ADB2E0
:102170008542BFD1B2F85A01B6B28642BAD1B2F89E
:10218000120180B2000A0870B2F812014870B2F869
:10219000140180B2000A8870B2F81401C870B2F855
:1021A000160180B2000A0871B2F816014871C5E73D
:1021B0005FF0000E35E008784C7814EB00208C7846
:1021C000CD7815EB04240D794E7916EB0525B2F880
:1021D000566180B2B04221D1B2F85801A4B2844213
:1021E0001CD1B2F85A01ADB2854217D1B2F8120132
:1021F00080B2000A0870B2F812014870B2F81401F7
:1022000080B2000A8870B2F81401C870B2F81601E2
:1022100080B2000A0871B2F8160148711EF1010E71
:10222000891D9E45C7D36EE3407A082865D1BAF16F
:10223000000F39D0B9F1000F36D0B8F1000F33D00C
:102240005FF0000E1DE008781AF80000C0B2B2F886
:102250002251D4F1FF06754304FB005010F18004B5
:10226000A4B2200080B2000A80B200190012BCF1B2
:10227000000F02D1C0B219F8000008701EF1010E63
:10228000891C9E4580F0DB804C78A4B2FF2C04D1E1
:10229000087818F800000870F0E7A4B2002CD2D13A
:1022A000B2F818010870E9E75FF0000E1AE0C0B25A
:1022B000FF2814D00C78C0B2B2F818510600F6B25C
:1022C000D6F1FF06754300FB045010F18004A4B260
:1022D000200080B2000A80B20019001208701EF1BE
:1022E000010E891C9E4580F0AA804878C0B2002863
:1022F000DDD1B2F818010870F1E7002C68D0002D8C
:1023000066D0002E64D05FF0000E15E01FFA88F84A
:1023100008F0FF00384155F820001FFA88F85FEAFE
:10232000282830F81880404680B2000A087081F8EA
:1023300001801EF1010E091D9E4580F08080887885
:1023400091F8038018EB002080B24FF6FF784045EB
:102350000ED14878384154F8200091F8008030F8C8
:102360001880404680B2000A087081F80180E0E7DA
:1023700080B2002808D1B2F8180180B2000A0870B3
:10238000B2F818014870D4E791F8018058FA07F8BC
:1023900056F8288091F8009038F819801FFA88F8CC
:1023A00080B2B2F822914FF6FF7A83461FFA8BFB78
:1023B000BAEB0B0A0AFB09F900FB089010F5004084
:1023C00010EB10405FEA1048BCF1000F9ED0AAE766
:1023D0005FF0000E21E080B24FF6FF74A04219D0EA
:1023E0000C784D7815EB0424A4B280B2B2F81851E1
:1023F0004FF6FF760700BFB2F61B754300FB045093
:1024000010F5004010EB1040040C200080B2000AD0
:1024100008704C701EF1010E091D9E450FD2887880
:10242000CC7814EB002080B20028D4D1B2F8180187
:1024300080B2000A0870B2F818014870EAE762E258
:10244000407A082840F0E280BAF1000F00F087805F
:10245000B9F1000F00F08380B8F1000F00F07F8029
:102460005FF0000E5AE008781AF80000C0B2E4B23B
:10247000B2F81C51E4B2D4F1FF06754304FB0050DE
:1024800010F18005ADB2280080B2000A80B2401978
:102490000012BCF1000F02D1C0B219F800000870A0
:1024A00048781AF80000C0B2E4B2B2F81E51E4B2A3
:1024B000D4F1FF06754304FB005010F18005ADB266
:1024C000280080B2000A80B240190012BCF1000F4F
:1024D00002D1C0B219F80000487088781AF80000DC
:1024E000C0B2E4B2B2F820512600F6B2D6F1FF062F
:1024F000754304FB005010F18004A4B2200080B2A8
:10250000000A80B200190012BCF1000F02D1C0B263
:1025100019F8000088701EF1010E091D9E4580F01B
:10252000F181CC78E4B2FF2C0CD1087818F80000C7
:102530000870487818F800004870887818F800008B
:102540008870E8E7E4B2002C8DD1B2F8120108706F
:10255000B2F814014870B2F816018870DBE75FF03A
:10256000000E42E0E4B2FF2C3CD00878E4B2B2F8AE
:102570001251E4B2D4F1FF06754304FB005010F190
:102580008005ADB2280080B2000A80B24019001266
:1025900008704878E4B2B2F81451E4B2D4F1FF06FE
:1025A000754304FB005010F18005ADB2280080B2E5
:1025B000000A80B24019001248708878E4B2B2F87C
:1025C00016512600F6B2D6F1FF06754304FB005003
:1025D00010F18004A4B2200080B2000A80B2001979
:1025E000001288701EF1010E091D9E4580F08A813F
:1025F000CC78E4B2002CB5D1B2F812010870B2F870
:1026000014014870B2F816018870EBE7002C00F056
:10261000FE80002D00F0FB80002E00F0F8805FF0BF
:10262000000E9CE04878384156F8200091F8009060
:1026300030F8190080B21FFA88F8B2F81C914FF6F2
:10264000FF7A1FFA88F8BAEB080A0AFB09F908FBB7
:10265000009010F5004010EB10405FEA1049BCF10B
:10266000000F0CD11FFA89F909F0FF00384155F825
:1026700020001FFA89F95FEA292930F819904846A5
:1026800080B2000A087081F80190C878384156F885
:10269000200091F8029030F8190080B21FFA88F8F3
:1026A000B2F81E914FF6FF7A1FFA88F8BAEB080AC3
:1026B0000AFB09F908FB009010F5004010EB1040F0
:1026C0005FEA1049BCF1000F0CD11FFA89F909F03B
:1026D000FF00384155F820001FFA89F95FEA2929DF
:1026E00030F81990484680B2000A887081F803904B
:1026F0004879384156F8200091F8049030F81900D4
:1027000080B21FFA88F8B2F820914FF6FF7AC346DC
:102710001FFA8BFBBAEB0B0A0AFB09F908FB0090C6
:1027200010F5004010EB10405FEA1049BCF1000FBB
:102730000CD11FFA89F909F0FF00384155F8200043
:102740001FFA89F95FEA292830F81890484680B2C4
:10275000000A087181F805901EF1010E08319E45AE
:1027600080F0D080887991F8078018EB00281FFA54
:1027700088F84FF6FF7080452AD14878384154F8E0
:10278000200091F8008030F81880404680B2000A9E
:10279000087081F80180C878384154F8200091F819
:1027A000028030F81880404680B2000A887081F8B4
:1027B00003804879384154F8200091F8048030F8BB
:1027C0001880404680B2000A087181F80580C3E78E
:1027D0001FFA88F8B8F1000F7FF424AFB2F81201A5
:1027E00080B2000A0870B2F812014870B2F8140101
:1027F00080B2000A8870B2F81401C870B2F81601ED
:1028000080B2000A0871B2F816014871A4E75FF0BF
:10281000000E55E0A4B24FF6FF7084424DD0087808
:102820004D7815EB00208D78CE7816EB05250E79C6
:102830004F7917EB062680B2A4B2B2F812714FF6A8
:10284000FF7CA4B2BCEB040C0CFB07F704FB00708C
:1028500010F5004010EB1040070C380080B2000A61
:1028600008704F70ADB2A4B2B2F814014FF6FF7702
:10287000A4B23F1B784304FB050010F5004010EBA9
:102880001040070C380080B2000A8870CF70B6B2D2
:10289000A4B2B2F816014FF6FF752700BFB2ED1BC8
:1028A000684304FB060010F5004010EB1040070CD5
:1028B000380080B2000A08714F711EF1010E083114
:1028C0009E451FD28879CC7914EB0024A4B2002C49
:1028D000A0D1B2F8120180B2000A0870B2F8120159
:1028E0004870B2F8140180B2000A8870B2F814017E
:1028F000C870B2F8160180B2000A0871B2F8160169
:102900004871DAE7FFE7BDE8F08F2DE9F0470E00E8
:10291000D2F82C71D2F83011D2F824210368447A0D
:10292000092C01DA002F06D1447A102C40F04D8199
:10293000002900F04A81047A002C00F0B080022CBB
:1029400005D0042C00F08A80062C43D03DE1407A6B
:10295000082811D1350000249C423AD22878385CEE
:1029600028706D1C2878385C28706D1C2878385CBD
:1029700028706D1C641CEFE73500002427E06878A0
:10298000104151F820002E7830F81660300080B2E7
:10299000000A28706E70AD1C6878104151F8200054
:1029A0002E7830F81660300080B2000A28706E7001
:1029B000AD1C6878104151F820002E7830F8166070
:1029C000300080B2000A28706E70AD1C641C9C42FE
:1029D000D5D3FAE0407A082812D1350000249C4271
:1029E0003BD22878385C28706D1C2878385C2870B9
:1029F0006D1C2878385C28706D1C6D1C641CEEE71B
:102A00003500002427E06878104151F820002E7826
:102A100030F81660300080B2000A28706E70AD1C6D
:102A20006878104151F820002E7830F81660300098
:102A300080B2000A28706E70AD1C6878104151F8A1
:102A400020002E7830F81660300080B2000A28701E
:102A50006E702D1D641C9C42D5D3B6E0407A0828C8
:102A600009D1350000249C4218D22878385C28709F
:102A7000AD1C641CF7E7350000240DE068781041B8
:102A800051F820002E7830F81660300080B2000A2D
:102A900028706E702D1D641C9C42EFD395E0447A23
:102AA000022C52D1350000244DE095F800C01CF0F6
:102AB000C00E95F800C01CF0300895F800C01CF05E
:102AC0000C0995F800C01CF0030C5EEAAE0A5AEA45
:102AD0002E1A5AEAAE1E17F80EE01EF0C00E58EA83
:102AE000880A5AEAA80A5AEA281817F808805FFAEA
:102AF00088F85FEA980818F0300858EA0E0E5FEA86
:102B0000890858EA091859EA080858EAA90817F87C
:102B100008805FFA88F85FEA181818F00C0858EA7D
:102B20000E0E5FEA0C1858EA8C1858EA8C085CEA1A
:102B3000080C17F80CC05FFA8CFC5EEA9C1C85F848
:102B400000C06D1C241D9C42AFD3447A042C18D1C4
:102B5000350000249C4237D2287810F0F000297804
:102B600011F00F0150EA2010385C10F0F00051EA2B
:102B70000111795CC9B250EA111028706D1CA41CB7
:102B8000E8E7447A082C09D1350000249C421BD286
:102B90002878385C28706D1C641CF7E7407A102890
:102BA00012D1350000240DE06878104151F8200062
:102BB0002E7830F81660300080B2000A28706E70EF
:102BC000AD1C641C9C42EFD3FFE7BDE8F08770B5F5
:102BD0000368047A64073BD5447A082C14D1D2F8F0
:102BE0003441002C34D0007A800701D5042000E065
:102BF00002200144491E04E00A78A25C0A705B1EB0
:102C00000144002BF8D128E0447A102C20D1D2F8CE
:102C10003C41D2F82451002C1AD0007A800701D50B
:102C2000082200E0042201EB0200811E0DE048783A
:102C3000284154F820000E7830F81660300080B239
:102C4000000A08704E705B1E1144002BEFD104E0A7
:102C5000DFF81C1A100000F0A4FD70BDF0B5046888
:102C6000057A032D40F0F380457A082D7DDA457A08
:102C7000012D04D0022D2DD0042D50D070E0651E02
:102C8000ED080D4401EB0406761EE71D17F007075B
:102C9000D7F1070C002703E01CF1010C761E7F1C06
:102CA000A74216D295F800E05EFA0CFE5FEACE7EEF
:102CB00004D55FF0010E86F800E003E05FF0000E3F
:102CC00086F800E0BCF1070FE6D15FF0000C6D1E46
:102CD000E4E745E0651EAD080D4401EB0406761EF1
:102CE000E71C17F00307D7F103075FEA470C00273B
:102CF00003E01CF1020C761E7F1CA7420ED295F851
:102D000000E05EFA0CFE1EF0030E86F800E0BCF157
:102D1000060FEED15FF0000C6D1EECE720E0651EA3
:102D20006D080D4401EB0406761EA70017F0040C95
:102D3000002703E01CF1040C761E7F1CA7420ED274
:102D400095F800E05EFA0CFE1EF00F0E86F800E02B
:102D5000BCF1040FEED15FF0000C6D1EECE7FFE755
:102D6000082545720825C5724460457A082D6ED144
:102D7000DDF814C0BCF1010F3BDB01EB04056D1E57
:102D800001EB84014E1E00271FE02978595C317049
:102D9000761E29785FF0030E0EFB01F1114489784D
:102DA0003170761E29785FF0030E0EFB01F111449D
:102DB00049783170761E29785FF0030E0EFB01F121
:102DC000515C3170761E6D1E7F1CA74206D2297899
:102DD0006145DADBFF213170761EDAE708214172A6
:102DE0002021C172A100416006210172042181727B
:102DF0002DE001EB04035D1E032303FB04F31944E0
:102E00004E1E002715E02978032359431144897881
:102E10003170761E29780323594311444978317063
:102E2000761E297803235943515C3170761E6D1E3E
:102E30007F1CA742E7D3082141721821C1720321E8
:102E400001FB04F141600221017203218172F0BD96
:102E50002DE9F0470368047A002C40F00881002A2D
:102E600001D0178900E00027447A082C80F299806D
:102E7000447A012C04D0022C32D0042C60D08BE098
:102E800017F00104FF2505FB04F75C1EE4080C4461
:102E900001EB03056D1EDE1D16F00706D6F1070CCB
:102EA000002603E01CF1010C6D1E761C9E4216D21A
:102EB00094F800E05EFA0CFE5FEACE7E04D54FF097
:102EC000FF0E85F800E003E05FF0000E85F800E0FB
:102ED000BCF1070FE6D15FF0000C641EE4E75BE095
:102EE00017F00304552505FB04F75C1EA4080C44E9
:102EF00001EB03056D1EDE1C16F00306D6F103067A
:102F00005FEA460C002603E01CF1020C6D1E761CE5
:102F10009E4214D294F800E05EFA0CFE1EF0030EFE
:102F20005EEA8E0858EA0E1858EA8E1E85F800E010
:102F3000BCF1060FE8D15FF0000C641EE6E72BE061
:102F400017F00F04112505FB04F75C1E64080C4400
:102F500001EB03056D1E5E1C16F00106D6F101069D
:102F60005FEA860C002603E05FF0040C6D1E761C01
:102F70009E4210D294F800E05EFA0CFE1EF00F0E96
:102F80005EEA0E1E85F800E0BCF1040FECD15FF0A4
:102F9000000C641EEAE7FFE7082444720824C472A8
:102FA0004360002A00F02581427A082A1AD107F0EE
:102FB000FF0701EB0302541E01EB43014D1E0026E7
:102FC00007E0FF2129706D1E21782970641E6D1E97
:102FD000761C9E4235D22178B942F2D10021297067
:102FE0006D1EF1E7427A102A2BD1C7F3072207F0B2
:102FF000FF0744680C44641E456801EB45014D1E03
:1030000000260EE0FF2129706D1EFF2129706D1E24
:1030100021782970641E6D1E21782970641E6D1E32
:10302000761C9E420DD214F8011C9142EAD12178FF
:10303000B942E7D1002129706D1E002129706D1E53
:10304000E6E70421017202218172417A4900C172CE
:10305000C17A082904DBC17AC90801FB03F104E045
:10306000C17A01FB03F1C91DC9084160C1E0047ABE
:10307000022C40F0BE80002A00F0BB80447A082C6D
:1030800036D15788B2F804C0D28844680C44641E14
:1030900001EB83014D1E00260FE0FF2129706D1EFC
:1030A00021782970641E6D1E21782970641E6D1EA2
:1030B00021782970641E6D1E761C9E4280F08480EB
:1030C00014F8021CBE465FFA8EFE7145E5D114F875
:1030D000011CE6465FFA8EFE7145DED121789646E8
:1030E0005FFA8EFE7145D8D1002129706D1ED7E799
:1030F000447A102C68D15488A4B2270A9488A4B2C8
:103100005FEA142CD488A4B25FEA142EB2F80280CD
:10311000B2F80490D28844680C44641E01EBC301E9
:103120004D1E00261EE0FF2129706D1EFF21297013
:103130006D1E21782970641E6D1E21782970641E11
:103140006D1E21782970641E6D1E21782970641E01
:103150006D1E21782970641E6D1E21782970641EF1
:103160006D1E761C9E422FD214F8051CBA465FFADB
:103170008AFA5145D7D114F8041CC2465FFA8AFA7C
:103180005145D0D114F8031CE2465FFA8AFA514542
:10319000C9D114F8021CCA465FFA8AFA5145C2D155
:1031A00014F8011CF2465FFA8AFA5145BBD1217826
:1031B00092465FFA8AFA5145B5D1002129706D1EF9
:1031C000002129706D1EB4E706210172042181726D
:1031D000417A8900C172C17A082904DBC17AC90821
:1031E00001FB03F104E0C17A01FB03F1C91DC90829
:1031F0004160BDE8F087427A082A1BD1027A032A8F
:1032000018D04268114442680A4408E0491E0B780D
:1032100002F8013C12F8013C02F8023C921E914275
:10322000F4D341684900416010214172817AC9B2EA
:103230000901C1727047F0B40468457A082D76D14F
:10324000057A022D30D1002A2ED00B00002514E083
:103250000E78491C0F78491C91F800C0491CF601F2
:1032600016F4F846BF0017F478773E43CCF3C40752
:103270003E43965D1E705B1C6D1CA542E8D3032186
:10328000017201218172417AC172C17A082904DB7D
:10329000C17AC90801FB04F104E0C17A01FB04F121
:1032A000C91DC908416042E0057A062D31D1002AC6
:1032B0002FD00B00002515E00E78491C0F78491C13
:1032C00091F800C0491C491CF60116F4F846BF00ED
:1032D00017F478773E43CCF3C4073E43965D1E70E7
:1032E0005B1C6D1CA542E7D3032101720121817291
:1032F000417AC172C17A082904DBC17AC90801FB8D
:1033000004F104E0C17A01FB04F1C91DC908416060
:103310000DE0007A03280AD1002B08D0002504E034
:103320000878185C08706D1C491CA542F8D3F0BCE5
:10333000704738B505000C00D5F8DC00002803D133
:10334000CC49280000F0A2F9686F44F2400108401F
:10335000B0F5804F03D1C849280000F097F9A86F55
:10336000C00429D5207A03280DD1B5F8F8000090C3
:10337000D5F85031D5F8EC20D5F8DC00411C200000
:10338000FFF76CFC18E0B5F8F80000280DD0A86F26
:1033900080010AD54FF4AA7005EB0002D5F8DC00D5
:1033A000411C2000FFF754FD06E00022D5F8DC00A8
:1033B000411C2000FFF74CFDA86FB0490840B0F554
:1033C000802F0CD1207A062802D0207A042806D13A
:1033D0000022D5F8DC00411C200002F0B1FFA86FEC
:1033E00010F4C00F1FD0D5F8DC00421C21002800CB
:1033F000FEF780FA002816D0012085F8E401A86FB6
:1034000010F4C000B0F5800F03D19D49280000F0F2
:10341000C8F9A86F10F4C000B0F5001F03D1984997
:10342000280000F033F9A86F400408D5286F000584
:1034300005D4D5F8DC00411C2000FEF7B7F995F85B
:103440007800000606D52A00D5F8DC00411C2000D3
:10345000FEF766FCA86F8B490840B0F5005F16D1F7
:1034600095F87800000607D5B5F8F80000280ED1C9
:1034700095F8FF0040070AD495F8FF00032806D00E
:103480002A00D5F8DC00411C2000FFF73EFAA86FA7
:103490007A490840794988420CD1207A062802D01E
:1034A000207A042806D10022D5F8DC00411C200037
:1034B00002F046FFA86F000209D5207A400706D522
:1034C0002A00D5F8DC00411C2000FFF780FBA86F24
:1034D000400105D5D5F8DC00411C2000FDF717FFA1
:1034E000A86F400505D5D5F8DC00411C2000FDF78C
:1034F00031FF95F87800400610D5D5F8A831D5F8F9
:10350000A421D5F8DC00411C2000FFF794FE606880
:10351000002803D15C49280000F0B8F8A86F8005A6
:1035200005D5D5F8DC00411C2000FFF764FEA86F2C
:10353000400408D5286F000505D5D5F8DC00411CEE
:103540002000FEF733F995F87800800605D5D5F808
:10355000DC00411C200002F093FEA86F000305D59B
:10356000D5F8DC00411C2000FDF796FF95F87800A7
:10357000000707D505F24912D5F8DC00411C2000F0
:10358000FDF733FE95F87800400705D5D5F8DC0047
:10359000411C2000FDF7BAFD207A032807D1D5F899
:1035A000F400002803D42100280002F0A0FF95F8C1
:1035B0007800C00705D5D5F8DC00411C200002F0DA
:1035C0004DFFA86FC00305D5D5F8DC00411C2000D5
:1035D00002F09AFEA86F000408D56B6FB5F80821B9
:1035E000D5F8DC00411C2000FDF7B4FFA86F800374
:1035F00005D5D5F8DC00411C2000FDF7C5FE95F887
:103600007800C00605D5D5F8DC00411C200002F08A
:1036100068FEA86FC00229D5686E002806D0D5F8CC
:10362000DC00421C210028006B6E984795F86C0066
:10363000002802D095F86C00607295F86D000028A3
:1036400002D095F86D00A072607AA17A4843E072CA
:10365000E07A082804DB2068E17AC908484304E0DE
:103660002068E17A4843C01DC008606031BD000099
:1036700048F00408B00B0508100705088000040096
:1036800070F00408002060006CF4040838B50400F1
:103690000D00002C06D0E06C002803D0290020008B
:1036A000E26C90472900200000F094F931BD10B47D
:1036B000002810D08A420ED2002B0AD003E01C78DA
:1036C00084545B1C521C1C78002C02D04C1EA2425D
:1036D000F5D300218154100010BC7047F0B40400F1
:1036E0000800002101250026401E0027077002E087
:1036F000401E2E270770844251D2002B01D1A942CF
:103700004DDA012A21D03AD3032A2ED01CD3052A20
:1037100001D029D333E00525002E06D10A27B3FBBB
:10372000F7FC07FB1C37002F0AD0401E0A26B3FB0C
:10373000F6F706FB1736DFF80873BE5D0670012644
:103740000A27B3FBF7F31BE00225401E0A27B3FB51
:10375000F7FC07FB1C37DFF8E8C21CF8077007709E
:103760000A27B3FBF7F30BE00225401EDFF8D07207
:1037700013F00F0C17F80C7007701B0900E0002302
:10378000491C052AB7D10529B5D18442B3D2002EF0
:10379000AED1002BAFD1401E30270770ABE7F0BC95
:1037A000704780B5002200280AD00B78232B07D160
:1037B000012200E0521C0F2A02DA8B5C202BF9D187
:1037C000002806D0036D002B03D01144026D9047F2
:1037D00002E0114400F021F901BD80B5426FD20230
:1037E0000CD5026F120406D5D0F8D420002A02D0DE
:1037F00000F083F80EE0FFF7D4FF0BE0026F120435
:1038000006D5D0F8D420002A02D000F062F801E0FA
:10381000FFF73CFF01BD80B5426F920202D5FFF772
:10382000C0FF01E0FFF732FF01BD80B5426F5202D9
:1038300002D5FFF7B6FF01E0FFF728FF01BDF0B4A6
:10384000D0F8D4300020182411E05B260E54401C20
:103850007C4EC5F30317F65D0E54401C794E15F0EF
:103860000F05755D0D54401C5D250D54401C002C4A
:1038700015D41D00E54005F0FF05083CB5F14106F3
:103880003A2E03D2B5F15B06062E01D2012600E0E6
:103890000026F6B2002ED8D10D54401CE7E7002ACE
:1038A00002D100220A5412E000233A240C54401C96
:1038B00020240C54401C03E0D45C0C545B1C401CC2
:1038C000C32B02DAD45C002CF6D100220A54F0BCDF
:1038D000704710B5B6B00400002C03D12000FFF7EC
:1038E000D5FE08E00A0069462000FFF7A8FF6946F8
:1038F0002000FFF7CBFE36B010BD10B5B6B0040007
:10390000002C03D12000FFF74CFF08E00A006946B5
:103910002000FFF794FF69462000FFF742FF36B012
:1039200010BD80B5426FD20202D5FFF7E6FF01E07D
:10393000FFF7CFFF01BD80B5022A02DAFFF7DDFFF6
:1039400001E0FFF7EEFF01BD70B5B8B004000D0057
:1039500018223D496E46300000F082F80020002D0C
:103960000AD004E0295C6A4602441176401CC32850
:1039700002DA295C0029F5D100216A46104401765B
:1039800069462000FFF782FE38B070BD30B591B0B7
:103990000400002C1CD0656C002D13D0A06C0028F6
:1039A00010D0A5420ED0684602F034FE002809D19E
:1039B000684660640020A064244820642900200038
:1039C00002F0FCFE0020A06400206064002020645F
:1039D00011B030BD10B50400002900D11C490A0007
:1039E0001C491D4802F00EFF14A11B4802F00AFFFB
:1039F0000121200000F001F810BD80B50200002A6E
:103A000008D0106C002805D0506C002802D0506CF3
:103A1000126C904702F010FF01BD80B50A000F49FB
:103A20000D4802F0EFFE05A10B4802F0EBFE01BDD0
:103A3000002802D04165C264036570470A00000097
:103A4000E8060508900B050874FC040825660008C4
:103A50001C0F0508C0060508E0020020D406050872
:103A600062B38B0708D0521E11F8013B00F8013BEE
:103A700000F024808B07F6D1830740F0208000BF40
:103A8000103A07D330B4B1E83810103AA0E8381033
:103A9000F9D230BC530724BFB1E80810A0E80810E1
:103AA00044BF51F8043B40F8043BD20724BF31F82F
:103AB000022B20F8022B44BF0B7803707047083AA2
:103AC00007D3B1E80810083A40F8043B40F804CBAB
:103AD000F7D25307E4E70268531C03601170704784
:103AE00038B504000D00002C0CD0092D04DBDFF8E4
:103AF0007C192000FFF7CAFD002D01D50025FFE746
:103B000084F8045131BD7CB50B006946DFF860498B
:103B1000D4E90056C1E90056092A05D30822082B2A
:103B200007D35FF0FF300EE0002AF8D15FF0FF30DE
:103B300009E0D118092901D3D3F1080269461944D3
:103B4000184402F07DFE76BD10B51300002801D1A7
:103B500000200FE05FF0FF34B4FBF2F2914205D396
:103B6000DFF81019FFF71DFE002003E04B4319009A
:103B700002F00FFE10BD80B502F020FE01BD10B5B1
:103B8000040000220021002002F08CFEC4F8E800AE
:103B900010BDF8B504000D0016000120D4F8D410B3
:103BA000C1F34071002907D0616F11F44071B1F584
:103BB000407F05D1002003E0616F090500D500209A
:103BC000002812D0002E10D0D4F8E8003700002FC3
:103BD00001D15FF0FF373A00290002F063FE3D4457
:103BE000F61B002EF2D1C4F8E800F1BD30B5A1B04B
:103BF00004000D00002D1CD05FF0FF300021401CA0
:103C00002A5CDFF874381B5C9A4203D0626F52F46E
:103C1000003262672A5C2E2A00D1491C02290CDA84
:103C20002A5C002A09D0DFF85028125C002AE6D16D
:103C300003E0606F50F400306067606F800321D54F
:103C40000020DFF83838020080216846FFF72FFD9A
:103C50002B00020080216846FFF729FDDFF820389D
:103C6000020080216846FFF722FDDFF80C380200D1
:103C700080216846FFF71BFD69462000FFF791FD94
:103C8000002000E0012021B030BD2DE9F041ADF56C
:103C90003C7D04000D0016001F004FF42C71002223
:103CA0000DF14008404602F06FFE7FF00040959015
:103CB0007FF0004096900020979000209890C49B41
:103CC000C39AC29910A802F094FD3B00320029006B
:103CD00010A8FFF7ADFE684602F09CFC002829D131
:103CE0006846219000202290DFF8440A20902100AD
:103CF00010A8FFF77BFF00281CD04FF42C7110A8F0
:103D000002F047FD0400002C14D0DFF8280A389098
:103D1000DFF8240A39903A94002021900020229064
:103D200000202090200010A94FF42C72FFF7A8FE6D
:103D3000200000E000200DF53C7DBDE8F08110B5CD
:103D4000002801D100200DE04FF4867102F09FFCA5
:103D50000400002C05D04FF486710022200002F0F0
:103D600013FE200010BD38B504000025002C18D02B
:103D7000002900D00D68002D13D0002008605FF0EE
:103D8000FF3347F6FF722900200000F00BF84FF4D4
:103D900086710022280002F0F7FD2900200002F0C1
:103DA0000DFD31BD2DE9F04104000D0016001F008E
:103DB000002C01D0002D00D196E1D5F88800002814
:103DC00038D0D5F8E8003040400433D517F1010F62
:103DD00012D0D5F888001C2101FB07F10844416886
:103DE000200002F0EBFCD5F888001C2101FB07F154
:103DF0000844002141601DE05FF000080BE0D5F8A9
:103E000088001C2101FB08F108444168200002F0F1
:103E1000D5FC18F10108D5F880008045EFDBD5F816
:103E20008810200002F0CAFC0020C5F8880000209D
:103E3000C5F88000D5F8E800304080040BD5D5F8EF
:103E40009C10200002F0BAFC0020C5F89C00A86875
:103E500030F01000A860D5F8E8003040C00513D558
:103E6000D5F80011200002F0A9FCD5F804112000BB
:103E700002F0A4FC0020C5F800010020C5F80401F0
:103E8000A86830F48040A860D5F8E800304000060B
:103E90002FD5D5F8D010200002F090FCD5F8DC101A
:103EA000200002F08BFC0020C5F8D0000020C5F8EF
:103EB000DC00D5F8E000002817D05FF0000808E02B
:103EC000D5F8E00050F82810200002F077FC18F137
:103ED000010895F8E5008045F2DBD5F8E0102000F8
:103EE00002F06CFC0020C5F8E000A86830F48060A7
:103EF000A860D5F8E8003040C0060FD5696F2000F3
:103F000002F05CFCA96F200002F058FC00206867FA
:103F10000020A867A86830F48050A860D5F8F400A5
:103F200000284FD0D5F8E800304080064AD517F178
:103F3000010F1AD0D5F8F40039014158200002F0E1
:103F40003DFCD5F8F400390108448168200002F0F6
:103F500035FC0020D5F8F4103A018850D5F8F4006B
:103F600039010844002181602CE0D5F8F8000028D0
:103F700024D05FF0000812E0D5F8F4005FEA0811E1
:103F80004158200002F01AFCD5F8F4005FEA08114D
:103F900008448168200002F011FC18F10108D5F8EE
:103FA000F8008045E8DBD5F8F410200002F006FCAC
:103FB0000020C5F8F4000020C5F8F800A86830F427
:103FC0000050A860D5F8EC0000283CD0D5F8E800F7
:103FD0003040800537D517F1010F12D0D5F8EC002D
:103FE000142101FB07F108448168200002F0E6FB80
:103FF000D5F8EC00142101FB07F108440021816091
:1040000021E0D5F8F00000281DD05FF000080BE09B
:10401000D5F8EC00142101FB08F108448168200068
:1040200002F0CCFB18F10108D5F8F0008045EFDB79
:10403000D5F8EC10200002F0C1FB0020C5F8EC0020
:104040000020C5F8F000D5F8E800304000070BD597
:10405000D5F8CC10200002F0B1FB0020C5F8CC0050
:10406000A86830F04000A860D5F8E8003040C004EF
:104070000BD52969200002F0A1FB00202861A86867
:1040800030F00800A8600020A882D5F8E800304091
:1040900040061ED5D5F80801002816D05FF00008AC
:1040A00008E0D5F8080150F82810200002F086FB3F
:1040B00018F1010868688045F3D3D5F8081120008D
:1040C00002F07CFB0020C5F80801A86830F400402D
:1040D000A86017F1010F02D0DFF858080640D5F8A4
:1040E000E800B043C5F8E800BDE8F08170B50C0009
:1040F000002805D0002C03D0D0F8DC11002901D114
:10410000002014E0D0F8E061D0F8DC01052148433C
:1041100006EB00056D1F04222900200002F090FB31
:10412000002801D1287902E0AE42F3D3002070BD0F
:1041300000B583B00A0E8DF800200A0C8DF801201E
:104140000A0A8DF802208DF8031000218DF8041062
:104150006946FFF7CBFF0EBDD0F89820002A44D166
:10416000491E16D0491E19D07FF00802891A38D08E
:10417000491E31D0491E2AD0491E23D0491E1CD0C9
:10418000491E15D0491E0ED0DFF8241AC0F8981029
:104190002BE0DFF8201AC0F8981026E0DFF8181A94
:1041A000C0F8981021E0DFF8141AC0F898101CE04D
:1041B000DFF80C1AC0F8981017E0DFF8081AC0F8FA
:1041C000981012E0DFF8001AC0F898100DE0DFF840
:1041D000FC19C0F8981008E0DFF8F419C0F898103E
:1041E00003E0DFF8F019C0F89810704770B582B09E
:1041F00004000D001E0095F84A00C0072DD51300DD
:10420000DFF8D8292968684601F032FA002804D07E
:10421000009801F0A3FA00281FD095F84A00800604
:1042200001D4022E0CD10222DFF8B4192000FFF7CE
:1042300082FB022E01D1012000E00020C0B20DE07F
:104240000022DFF8A4192000FFF775FB012E01D131
:10425000012000E00020C0B200E0012076BD38B5AA
:104260000C001500B5F11001DFF8802991420BD345
:10427000DFF87C19B4F84A2052F40042A4F84A202E
:104280000122FFF758FB31BD016F090406D594F8F0
:104290004A10090702D5DFF85C19EBE7B4F84A10B9
:1042A0000904F0D401232A002100FFF79FFF002812
:1042B00006D02560B4F84A0050F00900A4F84A007E
:1042C000E1E780B5B1F8722012040AD58A68DFF8F8
:1042D00028391A408A605FF0FF331022FFF762FD31
:1042E00026E091F87200000604D5886850F400605A
:1042F000886003E0886830F40060886091F872009C
:10430000800704D5886850F00400886003E088685E
:1043100030F00400886091F87200C00704D5886806
:1043200050F00100886003E0886840084000886021
:1043300001BD38B504000D00002D0BD015F128008B
:104340004FF4187121444C22FFF79AFB29002000FA
:10435000FFF7B7FF31BD2DE9F84304000D002868D1
:1043600069680818A96811EB00094B46DFF86C284A
:104370002968200001F07CF9002801D1012071E0BA
:104380004B46DFF858286968201D01F071F90028B4
:1043900001D1012066E04E462F68D5F80480E86818
:1043A00029690818696911EB00094B46DFF82C28C8
:1043B000E96814F1080001F05BF9002801D101203F
:1043C00050E04B46DFF81428296914F10C0001F085
:1043D0004FF9002801D1012044E019EB0606E868F6
:1043E000C719286910EB0808A869E9690818296A3B
:1043F00011EB00094B46DFF8E427A96914F110001E
:1044000001F036F9002801D101202BE04B46DFF8FE
:10441000CC27E96914F1140001F02AF9002801D130
:1044200001201FE019EB0606A869C719E86910EB1F
:1044300008083300DFF8A427390014F1180001F050
:1044400017F9002801D101200CE03300DFF88C2798
:10445000414614F11C0001F00BF9002801D10120A4
:1044600000E00020BDE8F2830000000004F304082F
:104470002C11050828F3040834110508E4F6040893
:10448000480605087FB504000D002868001EDFF807
:10449000E419884201D3012048E16868002806D465
:1044A000DFF838072968401A6968884201DA012074
:1044B0003CE1A868001EDFF8BC19884201D3012046
:1044C00034E1E868002806D4DFF81007A968401A2C
:1044D000E968884201DA012028E12869001EDFF836
:1044E0009419884201D3012020E16869002806D48C
:1044F000DFF8E8062969401A6969884201DA012073
:1045000014E1A869001EDFF86C19884201D301206C
:104510000CE1E869002806D4DFF8C006A969401A52
:10452000E969884201DA012000E1072368686969C6
:10453000421AA8682969411A01A801F099F80028CF
:1045400001D10220F2E0072328682969421AE868AD
:104550006969411A684601F08BF8002801D10220F0
:10456000E4E001980099461A0723E8696969421A4C
:10457000A8682969411A01A801F07AF8002801D138
:104580000220D3E00723A8692969421AE86869690B
:10459000411A684601F06CF8002801D10220C5E0FC
:1045A00001980099431A3200E96903A801F060F804
:1045B000002803D0E8690399884201DB0120B5E0B7
:1045C0000723A8692969421A68686969411A01A81C
:1045D00001F04EF8002801D10220A7E00723E86986
:1045E0006969421A28682969411A684601F040F849
:1045F000002801D1022099E001980099431A320065
:10460000E96902A801F034F8002803D0E8690299AA
:10461000884201DB012089E0E86901F07BF80600AF
:10462000039801F077F8361A029801F073F8361AF9
:10463000012E01DA012079E0039BDFF8A02529682B
:10464000200001F015F8002801D101206EE0039B45
:10465000DFF888256968201D01F00AF8002801D1DB
:10466000012063E0039BDFF87425DFF870052968FB
:10467000401A6968411A14F1080000F0F9FF002897
:1046800001D1012052E0029BDFF85025A96814F106
:104690000C0000F0EDFF002801D1012046E0029B54
:1046A000DFF83825E96814F1100000F0E1FF002878
:1046B00001D101203AE0029BDFF82025DFF81C053C
:1046C000A968401AE968411A14F1140000F0D0FFFB
:1046D000002801D1012029E0DFF8003532002969E6
:1046E00014F1180000F0C4FF002801D101201DE0E2
:1046F000DFF8E8343200696914F11C0000F0B8FFFB
:10470000002801D1012011E0DFF8D0343200DFF8B9
:10471000CC042969401A6969411A14F1200000F09B
:10472000A7FF002801D1012000E0002004B070BDE7
:1047300025660008493B0008773B000810B48369F0
:104740008C69A41AA3424ADB8B69D3188469A342FB
:1047500045DBC369CC69A41AA34240DBCB69D318FB
:10476000C469A3423BDB03680C68A41AA34236DB8E
:104770000B68D3180468A34231DB43684C68A41A61
:10478000A3422CDB4B68D3184468A34227DB836821
:104790008C68A41AA34222DB8B68D3188468A342D6
:1047A0001DDBC368CC68A41AA34218DBCB68D318FE
:1047B000C468A34213DB03690C69A41AA3420EDB8D
:1047C0000B69D3180469A34209DB43694C69A41A35
:1047D000A34204DB496951184069814201DA002093
:1047E00000E0012010BC704730B589B004000D0016
:1047F00029002000FFF746FE00280FD1210068465F
:10480000FFF7A9FD002809D1052269462800FFF716
:1048100095FF002801D0002000E0012009B030BD44
:104820002DE9F04104000D0016001F00B5F84A0004
:10483000000401D500204AE0DDF81880B8F1020F2D
:104840001CDA95F84A00800718D56422291D30002B
:10485000FFF774FF00280CD1B5F84A0050F400406F
:10486000A5F84A00DFF8601A2000FEF7B6FF002026
:104870002DE0B8F1000F01D1012028E0281D310002
:104880002022FFF7FDF815F1240039002422FFF75C
:10489000F7F8B5F84A0050F00200A5F84A004FF4C6
:1048A0007A72DFF8A81B3000FFF748FF002806D017
:1048B000B5F84A0050F04000A5F84A0006E0B5F807
:1048C0004A004FF6BF710840A5F84A000220BDE833
:1048D000F081F0B58BB004000D0016001F00310010
:1048E00001A8FFF781FF002802D0012808D013E0BB
:1048F000009701AB320029002000FFF791FF17E07D
:10490000B5F84A0050F40040A5F84A00DFF8401B13
:104910002000FEF762FF0AE0B5F84A0050F40040BC
:10492000A5F84A00DFF82C1B2000FEF7AFFE0020A0
:104930000BB0F0BDDFBDFFFF00F0FF00B0F12001C4
:104940005F2901D2C0B200E03F20704738B50400B3
:104950000D0027202070280EFFF7EEFF6070280C56
:10496000FFF7EAFFA070280AFFF7E6FFE0702800D3
:10497000FFF7E2FF20712720607131BD20280AD0A7
:10498000B0F130010A2906D3B0F141011A2902D34E
:1049900061381A2801D2012000E00020C0B270471F
:1049A00010B50400200EFFF7E9FF002813D0C4F370
:1049B0000740FFF7E3FF00280DD0C4F30720FFF7FF
:1049C000DDFF002807D004F0FF00FFF7D7FF002825
:1049D00001D0012000E00020C0B210BD2DE9F0415F
:1049E000B8B004000D0017009846002D05D0B5F8AA
:1049F0004A0050F40040A5F84A00DFF85C3A002273
:104A0000C42106A8FEF753FE06003B00320016F153
:104A10004F0106A8FEF74BFE06006FA33200C4212B
:104A200006A8FEF744FE06004046FFF7B9FF00283F
:104A30000ED0414606A83044FFF788FFB61D3A2045
:104A400006A98855761C202006A98855761C13E0F7
:104A50004346032206A96846FEF740FE03003200E3
:104A6000C42106A8FEF723FE06005EA33200C4217F
:104A700006A8FEF71CFE06003E9B3200C42106A8D5
:104A8000FEF715FE0600002D01D0022200E00122F3
:104A900006A92000FEF74FFF002038B0BDE8F081E6
:104AA00070B582B004000D001600B5F84A0000048D
:104AB00001D500206FE0301E04280AD3DFF8C80AB1
:104AC00000903300DFF8C42A29002000FFF786FF9A
:104AD00061E095F84A0040070ED5B5F84800B042AD
:104AE0000AD0DFF8AC0A00903300DFF8A02A2900D2
:104AF0002000FFF773FF4EE095F84A00800606D5C8
:104B0000DFF8901A2000FEF768FE002043E095F8D9
:104B10004A0080070DD56422291DDFF83009FFF710
:104B20000DFE002805D10222DFF86C1A2000FEF7E6
:104B300002FF02234BF28F1229002000FFF756FBE1
:104B4000A5F84860B5F84A0050F00400A5F84A00FE
:104B5000281DDFF8F8182022FEF792FF15F1240037
:104B6000DFF8381A2422FEF78BFFB5F84A0050F020
:104B70004200A5F84A004BF28F102860B5F84A00B1
:104B800050F00100A5F84A00B5F84A0050F0A00026
:104B9000A5F84A00012076BD10B582B0842B05D25D
:104BA000DFF8FC490094FFF719FF00E0012016BD73
:104BB00008FB040824FB040854020508700B0508D0
:104BC0006C0205085C06050870060508E00E05087D
:104BD00040FB040884020508273A2000A086010053
:104BE00004F70408683A200028ED040831BE402587
:104BF0005CFB0408EC0E0508FAE7FFFFF8B50400BB
:104C00000D0016001800069F39787A78120412EB0E
:104C10000161BA7811EB0221FA785318834208D067
:104C2000DFF880090090320029002000FFF7D6FE4F
:104C30001EE13B7A042B0CD310F0030F09D0DFF8F0
:104C4000681900910300320029002000FFF7C6FE1A
:104C50000EE197F8801097F88120120412EB0161A1
:104C600097F8822011EB022197F883205318DFF880
:104C70003C198B4205D20C2101FB03F1843188429F
:104C800008D2DFF82C090090320029002000FFF73D
:104C9000A5FEEDE097F8400097F84110090411EBEC
:104CA000006097F8421010EB012097F843100B18A2
:104CB0004FF6FF70834208D3DFF8F8080090320007
:104CC00029002000FFF78AFED2E0042B07D3DFF88B
:104CD000E8080090320000212000FFF77FFE97F8DF
:104CE000240097F82510090411EB006097F82610AE
:104CF00010EB012097F827100B18DFF8C00883424B
:104D000008D0DFF8BC080090320029002000FFF72F
:104D100065FEADE00C22DFF8AC1817F1440001F09D
:104D20008FFD002808D0DFF8A00800900023320093
:104D300000212000FFF752FE387C797C090411EB3A
:104D40000060B97C10EB0120F97C0B180798190062
:104D5000DFF87828914236D0DFF8742891423ED1AE
:104D6000800708D4DFF86C0800903200290020008A
:104D7000FFF734FE7CE0387B797B090411EB00609F
:104D8000B97B10EB0120F97B0B181800DFF84818ED
:104D900088422DD0DFF84418884232D0DFF840181E
:104DA00088420FD0DFF83C18884233D0DFF838183B
:104DB000884207D0DFF83418884203D0DFF8301873
:104DC000884230D137E0800708D5DFF82808009006
:104DD000320029002000FFF701FE49E0CBE7DFF8B1
:104DE00018080090320029002000FFF7F7FD3FE08F
:104DF000DFF808080090320029002000FFF7EEFDE0
:104E000036E0DFF8FC070090320029002000FFF7B1
:104E1000E5FD2DE0DFF8EC070090320000212000D6
:104E2000FFF7DCFD07E0DFF8E0070090320000212B
:104E30002000FFF7D3FD387D797D090411EB006078
:104E4000B97D10EB0120F97D0B181800DFF8BC17B5
:104E5000884203D0DFF8B817884201D1012007E06B
:104E6000DFF804080090320029002000FFF7B6FDAB
:104E7000F2BD0000A18601002DE9F24F82B00400CE
:104E800015001E000C9890F8801090F881201204F4
:104E900012EB016190F8822011EB022190F883203F
:104EA0005118019110F18408002702E07F1C18F1CD
:104EB0000C080198874248D298F8000098F8011031
:104EC000090411EB006098F8021010EB012098F82B
:104ED000031011EB000998F8040098F80510090474
:104EE00011EB006098F8061010EB012098F80710FD
:104EF00011EB000A98F8080098F80910090411EB62
:104F0000006098F80A1010EB012098F80B1011EBD4
:104F1000000B1AF0030F08D0DFF8500700904B4643
:104F20002A0000212000FFF759FD564503D3B6EBB8
:104F30000A005845BAD2DFF83C0800904B462A00D8
:104F400002992000FFF74AFD00E00120BDE8FE8F36
:104F50002DE9F04104000D00100000265FF48031BF
:104F6000002794F8AC21C2F30112D2B2032A01D176
:104F70000020E0E05FF0000801E018F10108B8F15E
:104F8000070F80F0D78095F8542095F855301B0412
:104F900013EB026295F8563012EB032295F8573066
:104FA0009A18DFF86C375FEA481C6344DB689A4262
:104FB000E3D195F8582095F859301B0413EB0262A1
:104FC00095F85A3012EB032295F85B309A18DFF807
:104FD00040375FEA481C63441B699A42CDD195F87B
:104FE0005C2095F85D301B0413EB026295F85E308F
:104FF00012EB032295F85F309A18DFF814375FEA56
:10500000481C63445B699A42B7D195F8602095F8D3
:1050100061301B0413EB026295F8623012EB03223D
:1050200095F863309A18DFF8E8365FEA481C634465
:105030009B699A42A1D1002E17D129786A7812046F
:1050400012EB0161AA7811EB0221EA78561895F863
:10505000401095F84120120412EB016195F84220AE
:1050600011EB022195F843205118DFF8A4265FEADE
:1050700048131A44926896427FF47FAFDFF8902677
:105080005FEA48131A44D28B91427FF476AF00282E
:1050900008D100220021002001F0AAFC32002900E2
:1050A00001F0A6FCDFF868165FEA481289588842CA
:1050B0003AD1002F0BD100220021002001F0F2FB99
:1050C000070032002900380001F0ECFB0700DFF890
:1050D00040065FEA481108444068874224D1DFF85F
:1050E00030065FEA48110844407F002806D00222BB
:1050F000DFF8F4162000FEF71EFC0DE0DFF81006C6
:105100005FEA48110844007F002805D10022DFF83B
:10511000DC162000FEF70FFCDFF8F4055FEA48110B
:105120000844407F401C06E00022DFF808182000F9
:10513000FEF701FC0020BDE8F08170B504000D0011
:1051400016001A0031002000FFF702FF002811D0DE
:1051500096F8400096F84110090411EB006096F8AB
:10516000421010EB012096F843100A182900200085
:10517000FFF796FC70BD3EB5040094F8E5010028E9
:1051800040F09F8094F8AA02800740F19A80D4F8FA
:1051900088020190D4F894020090D4F8A002029002
:1051A00001980099081802990D18012DC0F2848009
:1051B0000198002800F180802B004FF400420199F3
:1051C00001A800F055FA002876D00198001EB0F52D
:1051D000004F71D8009800286ED42B004FF4004285
:1051E0000099684600F044FA002865D00098001E37
:1051F000B0F5004F60D8029800285DD42B004FF422
:105200000042029902A800F033FA002854D0029814
:10521000001EB0F5004F4FD8019800990818029968
:10522000081848F20201884246DA00200199009AE3
:105230005118029A5118B1F5004F02DD5FF0FF30AE
:1052400008E00199009A5118029A5118B1F5004FDF
:1052500000DA012000281AD00099019A914207DB58
:105260000099029A914203DB0099401800900EE0E9
:105270000199009A914207DB0199029A914203DB5E
:1052800001994018019002E002994018029001989B
:105290000099081802990818B0F5004F05D0DFF8FA
:1052A00098162000FEF7F2F90BE00198A4F8E60149
:1052B0000098A4F8E80104E0DFF8D8172000FEF712
:1052C000E5F937BD0000000078FB0408F8B50400DC
:1052D00016001F000025002906D1DFF86016200007
:1052E000FEF75FFA01251EE0B1F1004F06D3DFF8AB
:1052F00050162000FEF755FA012514E0DFF84406A9
:10530000814206D3DFF840162000FEF74AFA012555
:1053100009E0D4F81402884205D2DFF87C17200097
:10532000FEF73FFA0125002E06D1DFF870172000A6
:10533000FEF737FA012513E0B6F1004F06D3DFF888
:1053400060172000FEF72DFA012509E0D4F81802B5
:10535000B04205D2DFF84C172000FEF722FA0125F3
:10536000012F0DD0022F0BD0042F09D0082F07D00A
:10537000102F05D0DFF830172000FEF712FA0125B4
:10538000069E002E05D4012E03D0052E01D0072E37
:1053900005DBDFF818172000FEF703FA0125032EBE
:1053A00001D1092F07DA022E03D0042E01D0062ED8
:1053B00007D1082F05DADFF8F8162000FEF7F1F91B
:1053C00001250798022805DBDFF8E8162000FEF724
:1053D000E8F901250898002805D0DFF8DC16200040
:1053E000FEF7DFF90125206FC00408D5D4F8EC01E1
:1053F000002804D0DFF8C4162000FEF7D2F909987F
:1054000000281BD094F8EC11490708D5402806D194
:10541000206FC00403D4022E07D0062E05D0DFF87B
:10542000A0162000FEF7BDF90125206FC00405D5A8
:10543000DFF890162000FEF7B4F90125012D04D104
:10544000DFF884162000FEF721F9F1BDC4F8040846
:105450009C02050830EF0408F80E0508F0B4156842
:105460001C6811E015F03C0F0CD06AE084261FE0A8
:1054700010261DE008261BE04FF4847618E0202655
:1054800016E05EE03543641C8C425AD2065D2B3E2A
:105490000DD0B61EEAD0761EEAD0B61EEAD0761E31
:1054A000082EE9D9143EEAD0203EE8D0E9E70426E8
:1054B00015F0030716F03C0C1CEB0707FFB2042F96
:1054C000D0D0062F34D0082F16D0092F25D00A2F80
:1054D00034D0102F04D0202F18D0212F21D030E02D
:1054E000EF062ED42F0701D5354304E015F4E075FF
:1054F000354355F00105C6E7EF0603D515F4E07511
:1055000055F0110556F040063543BCE72E0718D577
:1055100015F4E07555F00205B5E756F04006354341
:10552000B1E72E070DD515F4E07555F00205AAE791
:1055300015F03C0F05D155F00405A4E755F04805DA
:10554000A1E715601C60E81010F00100F0BC704786
:1055500030B583B004000D000020019000200090C1
:105560006B4601AA29002000FFF778FF002808D029
:105570000098A84203D00098205C002801D101982F
:1055800000E000203EBD000024F704083C1105089F
:1055900044F704084CF3040864F70408DCF3040837
:1055A000040F050884F70408800B05084B555515B2
:1055B0008406050894FB0408A4F70408707363616B
:1055C00098060508100F0508B0FB0408594152471A
:1055D000204247521CEB0408747362616B6E696C65
:1055E00072746E6D6C636D6E72747270726E6373D2
:1055F0006361707354ED0408C4F7040858EF04089D
:1056000080EF0408A8EF0408E4F704082062614C66
:10561000205A595870B506000020DFF8681800F0CD
:105620007FFC0022DFF8583800F04CFD00F0BEFD92
:1056300004000D0020002900DFF84C28DFF84C386A
:1056400000F03EFC07D9200029000022DFF8403896
:1056500000F04EFC03D204993000FEF775F92000EB
:10566000290000F0D3FD70BDCCFB040880ED0408D8
:105670002DE9F0410600080017009846B8F1000F28
:1056800042D0002801D0002F03D10020306001203B
:105690003BE001F07FFA04000D00380001F07AFAD7
:1056A00022002B0000F03CFC04000D00404601F0FD
:1056B00071FA02000B002000290001F083FA0400B7
:1056C0000D000020DFF8B81722002B0000F0FAFCD4
:1056D00000F06CFD04000D0020002900DFF8A82771
:1056E000DFF8A83700F004FC0ED2200029000022C9
:1056F000DFF89C3700F0E4FB06D82000290000F01A
:1057000085FD3060012000E00020BDE8F081000050
:105710009457040880B501F03DFA02000B005FF0D9
:105720000050DFF8701701F04DFA0022DFF8503713
:1057300000F0C8FC00F03AFDDFF84C27DFF84C37EA
:1057400000F0D6FB08D20022DFF8443700F0B8FBA7
:1057500002D800F05BFD00E0002002BDDFF8381742
:10576000401A42F21171884201D3012000E000206A
:10577000C0B2704704F8040870B50E0001F00AFAD0
:10578000DFF81827DFF8183700F0CAFB04000D0017
:10579000300001F0FFF922002B0000F0C1FB0400F3
:1057A0000D000020DFF8D81622002B0000F08AFC44
:1057B00000F0FCFC04000D0020002900DFF8C826E2
:1057C000DFF8C83600F094FB0CD22000290000223C
:1057D000DFF8BC3600F074FB04D82000290000F08C
:1057E00015FD00E0002070BD24F80408ACED0408AD
:1057F00070B50E0001F0CEF902000B00DFF8A40630
:10580000DFF8A41601F0DEF904000D00300001F00D
:10581000C1F902000B002000290001F0D3F90400B7
:105820000D000020DFF8581622002B0000F04AFC83
:1058300000F0BCFC04000D0020002900DFF8482621
:10584000DFF8483600F054FB0CD22000290000227B
:10585000DFF83C3600F034FB04D82000290000F0CB
:10586000D5FC00E0002070BD70B506000800002ED9
:1058700029D0FF2E27D201F08DF9DFF82026DFF89E
:10588000203600F04DFB02000B0014001D0030001C
:1058900001F080F90022DFF8143601F093F92200BC
:1058A0002B0001F0C7FC0022DFF8003600F038FBC7
:1058B0000022DFF8CC3500F005FC00F077FC00F0AA
:1058C000A5FCC0B201E03000C0B270BD70B50600EA
:1058D0000800002E2BD04FF6FF718E4227D201F028
:1058E00059F9DFF8B825DFF8B83500F019FB0200E8
:1058F0000B0014001D00300001F04CF90022DFF80D
:10590000B03501F05FF922002B0001F093FC00227A
:10591000DFF89C3500F004FB0022DFF8643500F06E
:10592000D1FB00F043FC00F071FC80B201E03000DC
:1059300080B270BD44DC0408D8ED0408E8FB04081C
:1059400004FC04088FFFFF0F4CEB040880B50B002C
:10595000110090F80001082804D11800FFF784FF17
:1059600080B202E01800FFF7B1FF02BD2DE9F94F48
:1059700085B00D0014000120D4F108018840029088
:105980000120D4F110018840401E01F003F902000B
:105990000B000020DFF8E41401F014F982468B4676
:1059A0000120D4F110018840401E04900120D4F160
:1059B0000F018840039002988100059800F058FE7E
:1059C000286028680190002515E0D4F1080011FA3C
:1059D00000F02818002C07D04FF6FF72039B02FB43
:1059E0000030049AB0FBF2F0009A22F81100491C32
:1059F000FF29EAD96D1C0298854247D24FF4007105
:105A0000059800F0B4FE019941F82500019850F87E
:105A1000250000900698FFF7A1FE002834D000264C
:105A2000FF2EE7D8D4F1080016FA00F02F180698D8
:105A300001F0B0F8DFF86424DFF8643400F070FAA5
:105A400002000B0090469946380001F0ADF852462E
:105A50005B4600F065FA42464B4601F0EBFB020064
:105A60000B000020DFF8481400F05AFA0022DFF89B
:105A7000103400F027FB00F099FB00F0C7FB009901
:105A800021F81600761CCBE70021B1E707B0BDE88E
:105A9000F08F000070F30408D0EF040844F8040805
:105AA00064F80408F8EF040820FC04083CFC04082F
:105AB0001CDD040894F30408B8F3040850DD04085E
:105AC00084F80408A4F80408AC0605082DE9F84F8A
:105AD0008246884614001D000120D4F1080110FA06
