:020000040800F2
:10000000C8150020EDB405087F520208815202088D
:10001000835202088552020887520208000000003D
:1000200000000000000000000000000083530208F0
:1000300089520208000000003D530208613A02089C
:1000400021B9050825B9050829B905082DB90508FC
:1000500031B9050835B9050839B905083DB90508AC
:1000600041B9050845B9050849B905084DB905085C
:1000700051B9050855B9050859B905085DB905080C
:1000800061B9050865B9050869B905086DB90508BC
:1000900071B9050875B9050879B905087DB905086C
:1000A00081B9050885B9050889B905088DB905081C
:1000B00091B9050895B9050899B905089DB90508CC
:1000C000A1B90508A5B90508A9B90508ADB905087C
:1000D000B1B90508277E0208B5B90508B9B9050800
:1000E000BDB90508C1B90508C5B90508C9B90508EC
:1000F000CDB90508D1B90508D5B90508D9B905089C
:10010000DDB90508E1B90508E5B90508E9B905084B
:10011000EDB90508F1B90508F5B905088B520208D3
:10012000955202089F520208A9520208F9B905081F
:10013000FDB90508C752020801BA050805BA050845
:1001400009BA05080DBA050811BA050815BA050857
:1001500019BA0508B3520208BD520208617E0208AE
:100160001DBA050821BA050825BA050829BA0508E7
:100170002DBA050831BA050835BA05080000000097
:1001800039BA0508FFFFFFFFFFFFFFFFFFFFFFFF7B
:10019000FFFFFFFFFFFFFFFFFFFFFFFFFFFFFFFF6F
:1001A000FFFFFFFFFFFFFFFFFFFFFFFFFFFFFFFF5F
:1001B000FFFFFFFFFFFFFFFFFFFFFFFFFFFFFFFF4F
:1001C000FFFFFFFFFFFFFFFFFFFFFFFFFFFFFFFF3F
:101BC000FFFFFFFFFFFFFFFFFFFFFFFF7ECEDB52A8
:101BD000FB5AFB5AFB5AFB5AFB5AFB5AFB5AFB5A5D
:101BE000FB5AFB5AFB5AFB5A1B5BBFF7FFFFFFFF79
:101BF000FFFFFFFFFFFFFFFFFFFFFFFFFFFFFFFFF5
:101C0000FFFFFFFFFFFFFFFFFFFFFFFFFFFFFFFFE4
:101C10005B63FB5AFB5AFB5AFB5AFB5AFB5AFB5AB3
:101C2000FB5AFB5AFB5AFB5AFB5AFB5AFB5AFB5A0C
:101C3000FB5A5B63BB52BDB5FFFFFFFFFFFFFFFF1A
:101C4000FFFFFFFFFFFFFFFFFFFFFFFFFFFFFFFFA4
:101C5000FFFFFFFFFFFFFFFFFFFFFFFFFFFFFFFF94
:101C6000FFFFFFFFFFFFFFFFE8D409D509D509D526
:101C700009D509D509D509D509D509D509D5E8D496
:101C800011E6FFFFFFFFFFFFFFFFFFFFFFFFFFFF6B
:101C9000FFFFFFFFFFFFFFFFFFFFFFFFFFFFFFFF54
:101CA000FFFFFFFFFFFFFFFFFFFFFFFFFFFFFFFF44
:101CB000FFFFFFFFFFFFFFFFFFFFADDD08D509D5E9
:101CC00009D509D509D509D509D509D509D509D524
:101CD00009D509D509D509D509D509D509D509D514
:101CE00009D509D509D509D509D509D509D509D504
:101CF00009D509D509D509D509D509D509D509D5F4
:101D000009D509D5E8D453E6FFFFFFFFFFFFFFFF2A
:101D1000FFFFFFFFFFFFFFFFFFFFFFFFFFFFFFFFD3
:101D2000FFFFFFFFFFFFFFFFFFFFDEFF74E68CDD1D
:101D30002AD509D509D509D509D509D509D509D592
:101D400009D509D509D509D509D509D509D509D5A3
:101D500009D509D509D509D509D509D509D509D593
:101D600009D529D56CDD73E6DEFFFFFFFFFFFFFF1E
:101D7000FFFFFFFFFFFFFFFFFFFFFFFFFFFFFFFF73
:101D8000FFFFFFFFFFFFCEDD29D509D509D509D516
:101D900009D509D509D509D509D509D509D509D553
:101DA00009D509D509D5FFFFFFFFFFFFFFFFFFFFA3
:101DB000FFFFFFFFFFFFFFFFFFFFFFFFFFFFFFFF33
:101DC000FFFFFFFFFFFFFFFFFFFFFFFFFFFFFFFF23
:101DD00011E6E8D409D509D509D509D509D509D51C
:101DE00009D509D509D509D509D509D52AD508D5E3
:101DF0009DF7FFFFFFFFFFFFFFFFFFFF1D9DFC7B28
:101E00007FEF3EE73EE73EE73EE73EE73EE73EE761
:101E10003EE73EE73EE79FEF1A3A5FE7FFFFFFFF2F
:101E2000FFFFFFFFFFFFFFFFFFFFFFFFFFFFFFFFC2
:101E3000FFFFFFFFFFFFFFFFFFFFFFFFFFFF7A290D
:101E40001C7C7FEF3EE73EE73EE73EE73EE73EE7AE
:101E50003EE73EE73EE73EE73EE73EE71EDF1EE7A2
:101E6000DFF73B639B4AFFFFFFFFFFFFFFFFFFFF23
:101E7000FFFFFFFFFFFFFFFFFFFFFFFFFFFFFFFF72
:101E8000FFFFFFFFFFFFFFFFFFFFFFFFFFFFFFFF62
:101E9000FFFFFFFFFFFF2AD573E69CF79CF79CF737
:101EA0009CF79CF79CF79CF79CF79CF79CF7BDF779
:101EB00001C4BDF7FFFFFFFFFFFFFFFFFFFFFFFFB5
:101EC000FFFFFFFFFFFFFFFFFFFFFFFFFFFFFFFF22
:101ED000FFFFFFFFFFFFFFFFFFFFFFFFFFFFFFFF12
:101EE000FFFFFFFFFFFFFFFFFFFF43CC9CF77CF7E7
:101EF0009CF79CF79CF79CF79CF79CF79CF79CF74A
:101F00009CF79CF79CF79CF79CF79CF79CF79CF739
:101F10009CF79CF79CF79CF79CF79CF79CF79CF729
:101F20009CF79CF79CF79CF79CF79CF79CF79CF719
:101F30009CF79CF795EE29D5FFFFFFFFFFFFFFFF02
:101F4000FFFFFFFFFFFFFFFFFFFFFFFFFFFFFFFFA1
:101F5000FFFFFFFFFFFF3AF764CC43CCCFDDF7EE86
:101F60007BF79CF79CF79CF79CF79CF79CF79CF7FA
:101F70009CF79CF79CF79CF79CF79CF79CF79CF7C9
:101F80009CF79CF79CF79CF79CF79CF79CF79CF7B9
:101F90009CF77BF718EFF0DD63CC85CC39F7FFFFBA
:101FA000FFFFFFFFFFFFFFFFFFFFFFFFFFFFFFFF41
:101FB000FFFFFFFFFFFFF7EE43CCDEFF7BF77CF771
:101FC0009CF79CF79CF79CF79CF79CF79CF79CF779
:101FD0009CF79DF7CFDDAEDDFFFFFFFFFFFFFFFFAB
:101FE000FFFFFFFFFFFFFFFFFFFFFFFFFFFFFFFF01
:101FF000FFFFFFFFFFFFFFFFFFFFFFFFFFFFBDF73B
:1020000085CCBDFF9CF79CF79CF79CF79CF79CF751
:102010009CF79CF79CF79CF77BF79DF732E664CC26
:10202000FFFFFFFFFFFFFFFFFFFFFFFF3DA5BC948A
:10203000FFFF3EE73EE73EE73EE73EE73EE73EE79F
:102040003EE73EE79FEFFFFF9B4A5FE7FFFFFFFF93
:10205000FFFFFFFFFFFFFFFFFFFFFFFFFFFFFFFF90
:10206000FFFFFFFFFFFFFFFFFFFFFFFF5A217C8CF9
:10207000FFFFBFF73EE73EE73EE73EE73EE73EE7CE
:102080003EE73EE73EE73EE73EE7DED6FFFFFFFFE7
:102090009C8C1B3AFFFFFFFFFFFFFFFFFFFFFFFFCF
:1020A000FFFFFFFFFFFFFFFFFFFFFFFFFFFFFFFF40
:1020B000FFFFFFFFFFFFFFFFFFFFFFFFFFFFFFFF30
:1020C000FFFFFFFF9CF744CCFFFFFFFF7BF79CF770
:1020D0009CF79CF79CF79CF79CF79CF79CF7FFFFFD
:1020E00018EF85CCFFFFFFFFFFFFFFFFFFFFFFFFA4
:1020F000FFFFFFFFFFFFFFFFFFFFFFFFFFFFFFFFF0
:10210000FFFFFFFFFFFFFFFFFFFFFFFFFFFFFFFFDF
:10211000FFFFFFFFFFFFFFFFFFFF64CCFFFFFFFF9D
:102120007BF79CF79CF79CF79CF79CF79CF79CF738
:102130009CF79CF79CF79CF79CF79CF79CF79CF707
:102140009CF79CF79CF79CF79CF79CF79CF79CF7F7
:102150009CF79CF79CF79CF79CF79CF79CF79CF7E7
:102160007BF7FFFF39F72AD5FFFFFFFFFFFFFFFFD8
:10217000FFFFFFFFFFFFFFFFFFFFFFFFFFFFFFFF6F
:10218000FFFFFFFF6CDD43CC9CF7FFFFFFFFFFFF6E
:10219000BDFF9CF79CF79CF79CF79CF79CF79CF77E
:1021A0009CF79CF79CF79CF79CF79CF79CF79CF797
:1021B0009CF79CF79CF79CF79CF79CF79CF79CF787
:1021C0009CF79CF7FFFFFFFFFFFF9CF743CC09D56F
:1021D000FFFFFFFFFFFFFFFFFFFFFFFFFFFFFFFF0F
:1021E000FFFFFFFFFFFFFFFF64CC39F7FFFF9CF706
:1021F0007BF79CF79CF79CF79CF79CF79CF79CF768
:102200007BF7FFFFFFFF22C4FFFFFFFFFFFFFFFF82
:10221000FFFFFFFFFFFFFFFFFFFFFFFFFFFFFFFFCE
:10222000FFFFFFFFFFFFFFFFFFFFFFFFFFFFC7CC29
:102230007BF7FFFF7BF79CF79CF79CF79CF79CF7DD
:102240009CF79CF79CF75AF7FFFFFFFFE0C39CF752
:10225000FFFFFFFFFFFFFFFFFFFFFFFF3DA59C8C80
:10226000FFFF7908390059005900590059005900F9
:10227000590019003B63FFFF7B4A5FE7FFFFFFFF49
:10228000FFFFFFFFFFFFFFFFFFFFFFFFFFFFFFFF5E
:10229000FFFFFFFFFFFFFFFFFFFFFA18BC94FFFFE8
:1022A0001EC619005900590059005900590059001B
:1022B000590059005900390018007DADFFFF7C8C92
:1022C000FA39FFFFFFFFFFFFFFFFFFFFFFFFFFFFE9
:1022D000FFFFFFFFFFFFFFFFFFFFFFFFFFFFFFFF0E
:1022E000FFFFFFFFFFFFFFFFFFFFFFFFFFFFFFFFFE
:1022F000FFFFFFFF85CC5BF7FFFF23CC60BB60BB1C
:1023000060BB60BB60BB60BB60BB60BB20BBD6EE8C
:10231000FFFF64CC39F7FFFFFFFFFFFFFFFFFFFF69
:10232000FFFFFFFFFFFFFFFFFFFFFFFFFFFFFFFFBD
:10233000FFFFFFFFFFFFFFFFFFFFFFFFFFFFFFFFAD
:10234000FFFFFFFFFFFFFFFFFFFF64CCFFFF94EEE7
:1023500020BB60BB60BB60BB60BB60BB60BB60BBE5
:1023600060BB60BB60BB60BB60BB60BB60BB60BB95
:1023700060BB60BB60BB60BB60BB60BB60BB60BB85
:1023800060BB60BB60BB60BB60BB60BB60BB60BB75
:1023900020BB9CF739F72AD5FFFFFFFFFFFFFFFFA8
:1023A000FFFFFFFFFFFFFFFFFFFFFFFFFFFFFFFF3D
:1023B000FFFF2AD56BDDFFFFFFFF11E622C440BB04
:1023C00060BB60BB60BB60BB60BB60BB60BB60BB35
:1023D00060BB60BB60BB60BB60BB60BB60BB60BB25
:1023E00060BB60BB60BB60BB60BB60BB60BB60BB15
:1023F00060BB60BB60BB22C411E6FFFFFFFFCFDD07
:1024000064CCFFFFFFFFFFFFFFFFFFFFFFFFFFFFAA
:10241000FFFFFFFFFFFFFFFF9CF701C4FFFFD6EEAA
:1024200000B360BB60BB60BB60BB60BB60BB60BB3C
:1024300040BB85CCFFFFF7EE08D5FFFFFFFFFFFF96
:10244000FFFFFFFFFFFFFFFFFFFFFFFFFFFFFFFF9C
:10245000FFFFFFFFFFFFFFFFFFFFFFFF39F709D57A
:10246000FFFF94EE20BB60BB60BB60BB60BB60BB8A
:1024700060BB60BB40BB64CCFFFF11E609D5FFFF2A
:10248000FFFFFFFFFFFFFFFFFFFFFFFF3DA59C8C4E
:10249000FFFF1A19FA101A191A191A191A191A1902
:1024A0001A19B9089C6BFFFF7B4A5FE7FFFFFFFF2C
:1024B000FFFFFFFFFFFFFFFFFFFFFFFFFFFFFFFF2C
:1024C000FFFFFFFFFFFFFFFF3A19DD94FFFF1EBE76
:1024D0005900FA181A191A191A191A191A191A195F
:1024E0001A191A19FA183900FDBDFFFF9C8CFA3928
:1024F000FFFFFFFFFFFFFFFFFFFFFFFFFFFFFFFFEC
:10250000FFFFFFFFFFFFFFFFFFFFFFFFFFFFFFFFDB
:10251000FFFFFFFFFFFFFFFFFFFFFFFFFFFFFFFFCB
:10252000FFFF18EFE8D4FFFFB6EE60BBE0C3E0C3E7
:10253000E0C3E0C3E0C3E0C3E0C3E0C3C0C301C481
:10254000FFFF9CF722C4FFFFFFFFFFFFFFFFFFFF1E
:10255000FFFFFFFFFFFFFFFFFFFFFFFFFFFFFFFF8B
:10256000FFFFFFFFFFFFFFFFFFFFFFFFFFFFFFFF7B
:10257000FFFFFFFFFFFFFFFFFFFF64CCFFFFB6EE93
:1025800080BBE0C3E0C3E0C3E0C3E0C3E0C3E0C39B
:10259000E0C3E0C3E0C3E0C3E0C3E0C3E0C3E0C323
:1025A000E0C3E0C3E0C3E0C3E0C3E0C3E0C3E0C313
:1025B000E0C3E0C3E0C3E0C3E0C3E0C3E0C3E0C303
:1025C00080BB9CF739F72AD5FFFFFFFFFFFFFFFF16
:1025D000FFFFFFFFFFFFFFFFFFFFFFFFFFFFFFFF0B
:1025E000F8EE85CCFFFFBDFFE0C380BBC0C3E0C3F6
:1025F000E0C3E0C3E0C3E0C3E0C3E0C3E0C3E0C3C3
:10260000E0C3E0C3E0C3E0C3E0C3E0C3E0C3E0C3B2
:10261000E0C3E0C3E0C3E0C3E0C3E0C3E0C3E0C3A2
:10262000E0C3E0C3E0C3C0C380BBA0C319EFFFFF9A
:10263000ADDD6CDDFFFFFFFFFFFFFFFFFFFFFFFFD3
:10264000FFFFFFFFFFFFFFFFFFFF09D594E6FFFF3E
:10265000C6CCC0C3E0C3E0C3E0C3E0C3E0C3E0C393
:10266000E0C360BBF7EEFFFF85CC7BF7FFFFFFFF0A
:10267000FFFFFFFFFFFFFFFFFFFFFFFFFFFFFFFF6A
:10268000FFFFFFFFFFFFFFFFFFFFFFFF43CCFFFF49
:10269000FFFFE0C3C0C3E0C3E0C3E0C3E0C3E0C3E7
:1026A000E0C3E0C360BBBDFFFFFFA0BBFFFFFFFFB8
:1026B000FFFFFFFFFFFFFFFFFFFFFFFF3DA59C8C1C
:1026C000FFFF1A19FA101A191A191A191A191A19D0
:1026D0001A19B9089C6BFFFF7B4A5FE7FFFFFFFFFA
:1026E000FFFFFFFFFFFFFFFFFFFFFFFFFFFFFFFFFA
:1026F000FFFFFFFFFFFF5A21BC94FFFF1EBE5900E2
:10270000FA181A191A191A191A191A191A191A1952
:102710001A19FA183900BDB5FFFFDC94FA39FFFF2A
:10272000FFFFFFFFFFFFFFFFFFFFFFFFFFFFFFFFB9
:10273000FFFFFFFFFFFFFFFFFFFFFFFFFFFFFFFFA9
:10274000FFFFFFFFFFFFFFFFFFFFFFFFFFFFFFFF99
:10275000FFFF43C4DEFFFFFF01C4C0C3E0C3E0C30B
:10276000E0C3E0C3E0C3E0C3E0C3E0C3E0C380BBB9
:1027700032E6FFFFE8D4B5EEFFFFFFFFFFFFFFFFEC
:10278000FFFFFFFFFFFFFFFFFFFFFFFFFFFFFFFF59
:10279000FFFFFFFFFFFFFFFFFFFFFFFFFFFFFFFF49
:1027A000FFFFFFFFFFFFFFFFFFFF64CCFFFFB6EE61
:1027B00080BBE0C3E0C3E0C3E0C3E0C3E0C3E0C369
:1027C000E0C3E0C3E0C3E0C3E0C3E0C3E0C3E0C3F1
:1027D000E0C3E0C3E0C3E0C3E0C3E0C3E0C3E0C3E1
:1027E000E0C3E0C3E0C3E0C3E0C3E0C3E0C3E0C3D1
:1027F00080BB9CF739F72AD5FFFFFFFFFFFFFFFFE4
:10280000FFFFFFFFFFFFFFFFFFFFFFFFFFFFFFFFD8
:1028100002C4FFFFFFFFE0C3C0C3E0C3E0C3E0C3E7
:10282000E0C3E0C3E0C3E0C3E0C3E0C3E0C3E0C390
:10283000E0C3E0C3E0C3E0C3E0C3E0C3E0C3E0C380
:10284000E0C3E0C3E0C3E0C3E0C3E0C3E0C3E0C370
:10285000E0C3E0C3E0C3E0C3E0C3C0C380BB5AF73A
:10286000FFFF01C4BDF7FFFFFFFFFFFFFFFFFFFFFB
:10287000FFFFFFFFFFFFFFFFFFFFDEFFE0C3FFFFE4
:10288000BDF760BBE0C3E0C3E0C3E0C3E0C3E0C3A7
:10289000E0C3C0C322C4FFFF9CF764CCFFFFFFFF6F
:1028A000FFFFFFFFFFFFFFFFFFFFFFFFFFFFFFFF38
:1028B000FFFFFFFFFFFFFFFFFFFF95EEADDDFFFF17
:1028C000F0DD80BBE0C3E0C3E0C3E0C3E0C3E0C32E
:1028D000E0C3A0BB4BD5FFFF6CDDCEDDFFFFFFFFEC
:1028E000FFFFFFFFFFFFFFFFFFFFFFFF3DA59C8CEA
:1028F000FFFF1A19FA101A191A191A191A191A199E
:102900001A19B9089C6BFFFF7B4A5FE7FFFFFFFFC7
:10291000FFFFFFFFFFFFFFFFFFFFFFFFFFFFFFFFC7
:10292000FFFFFFFF5A21BC94FFFFFEBD5900FA18BC
:102930001A191A191A191A191A191A191A191A19FF
:10294000FA1859005DADFFFFFD9CBA31FFFFFFFF94
:10295000FFFFFFFFFFFFFFFFFFFFFFFFFFFFFFFF87
:10296000FFFFFFFFFFFFFFFFFFFFFFFFFFFFFFFF77
:10297000FFFFFFFFFFFFFFFFFFFFFFFFFFFFFFFF67
:1029800094E66CDDFFFF31E680BBE0C3E0C3E0C34B
:10299000E0C3E0C3E0C3E0C3E0C3E0C3E0C3C0C33F
:1029A000C0C3FFFFFFFFA0C3FFFFFFFFFFFFFFFF4D
:1029B000FFFFFFFFFFFFFFFFFFFFFFFFFFFFFFFF27
:1029C000FFFFFFFFFFFFFFFFFFFFFFFFFFFFFFFF17
:1029D000FFFFFFFFFFFFFFFFFFFF64CCFFFFB6EE2F
:1029E00080BBE0C3E0C3E0C3E0C3E0C3E0C3E0C337
:1029F000E0C3E0C3E0C3E0C3E0C3E0C3E0C3E0C3BF
:102A0000E0C3E0C3E0C3E0C3E0C3E0C3E0C3E0C3AE
:102A1000E0C3E0C3E0C3E0C3E0C3E0C3E0C3E0C39E
:102A200080BB9CF739F72AD5FFFFFFFFFFFFFFFFB1
:102A3000FFFFFFFFFFFFFFFFFFFFFFFFFFFFDEFFC7
:102A400064CCFFFFCFDD80BBE0C3E0C3E0C3E0C3E5
:102A5000E0C3E0C3E0C3E0C3E0C3E0C3E0C3E0C35E
:102A6000E0C3E0C3E0C3E0C3E0C3E0C3E0C3E0C34E
:102A7000E0C3E0C3E0C3E0C3E0C3E0C3E0C3E0C33E
:102A8000E0C3E0C3E0C3E0C3E0C3E0C3C0C343CCE2
:102A9000FFFF73E6AEDDFFFFFFFFFFFFFFFFFFFF5E
:102AA000FFFFFFFFFFFFFFFFFFFFFFFF8DDDEFDDFC
:102AB000FFFF2AD5A0BBE0C3E0C3E0C3E0C3E0C38F
:102AC000E0C3E0C380BB52E6FFFF09D5F7EEFFFF8E
:102AD000FFFFFFFFFFFFFFFFFFFFFFFFFFFFFFFF06
:102AE000FFFFFFFFFFFFFFFFFFFF01C4FFFFFFFF2F
:102AF000A0BBC0C3E0C3E0C3E0C3E0C3E0C3E0C326
:102B0000C0C380BBFFFFFFFFA0BBFFFFFFFFFFFFB6
:102B1000FFFFFFFFFFFFFFFFFFFFFFFF3DA59C8CB7
:102B2000FFFF1A19FA101A191A191A191A191A196B
:102B30001A19B9089C6BFFFF7B4A5FE7FFFFFFFF95
:102B4000FFFFFFFFFFFFFFFFFFFFFFFFFFFFFFFF95
:102B5000FFFF5A21DC94FFFF1EBE3900FA181A1934
:102B60001A191A191A191A191A191A191A19FA18EE
:102B700059003DA5FFFF5DA57A29FFFFFFFFFFFF7D
:102B8000FFFFFFFFFFFFFFFFFFFFFFFFFFFFFFFF55
:102B9000FFFFFFFFFFFFFFFFFFFFFFFFFFFFFFFF45
:102BA000FFFFFFFFFFFFFFFFFFFFFFFFFFFFFFFF35
:102BB000E0C3FFFFFFFFC0C3C0C3E0C3E0C3E0C387
:102BC000E0C3E0C3E0C3E0C3E0C3E0C3E0C3E0C3ED
:102BD00080BBAEDDFFFF6CDD11E6FFFFFFFFFFFFF7
:102BE000FFFFFFFFFFFFFFFFFFFFFFFFFFFFFFFFF5
:102BF000FFFFFFFFFFFFFFFFFFFFFFFFFFFFFFFFE5
:102C0000FFFFFFFFFFFFFFFFFFFF64CCFFFFB6EEFC
:102C100080BBE0C3E0C3E0C3E0C3E0C3E0C3E0C304
:102C2000E0C3E0C3E0C3E0C3E0C3E0C3E0C3E0C38C
:102C3000E0C3E0C3E0C3E0C3E0C3E0C3E0C3E0C37C
:102C4000E0C3E0C3E0C3E0C3E0C3E0C3E0C3E0C36C
:102C500080BB9CF739F72AD5FFFFFFFFFFFFFFFF7F
:102C6000FFFFFFFFFFFFFFFFFFFFFFFFFFFFF7EE8D
:102C70008DDDFFFF64CCC0C3E0C3E0C3E0C3E0C3AD
:102C8000E0C3E0C3E0C3E0C3E0C3E0C3E0C3E0C32C
:102C9000E0C3E0C3E0C3E0C3E0C3E0C3E0C3E0C31C
:102CA000E0C3E0C3E0C3E0C3E0C3E0C3E0C3E0C30C
:102CB000E0C3E0C3E0C3E0C3E0C3E0C3E0C380BB64
:102CC0009CF7DEFF85CCFFFFFFFFFFFFFFFFFFFF4D
:102CD000FFFFFFFFFFFFFFFFFFFFFFFFFFFFC0C37F
:102CE000FFFFFFFF80BBE0C3E0C3E0C3E0C3E0C37E
:102CF000E0C3E0C3C0C3C0C3FFFFFFFF01C4FFFFC9
:102D0000FFFFFFFFFFFFFFFFFFFFFFFFFFFFFFFFD3
:102D1000FFFFFFFFFFFFFFFFF0DD32E6FFFF4BDDB0
:102D2000A0BBE0C3E0C3E0C3E0C3E0C3E0C3E0C3D3
:102D300080BBCFDDFFFFE8D453E6FFFFFFFFFFFFBF
:102D4000FFFFFFFFFFFFFFFFFFFFFFFF3DA59C8C85
:102D5000FFFF1A19FA101A191A191A191A191A1939
:102D60001A19B9089C6BFFFF7B4A5FE7FFFFFFFF63
:102D7000FFFFFFFFFFFFFFFFFFFFFFFFFFFFFFFF63
:102D80001A19FD94FFFF1EBE3900FA181A191A19F4
:102D90001A191A191A191A191A191A19FA183900B6
:102DA0001D9DFFFFBDB51A19FFFFFFFFFFFFFFFFCE
:102DB000FFFFFFFFFFFFFFFFFFFFFFFFFFFFFFFF23
:102DC000FFFFFFFFFFFFFFFFFFFFFFFFFFFFFFFF13
:102DD000FFFFFFFFFFFFFFFFFFFFFFFFFFFFF0DD34
:102DE000F0DDFFFF8DDDA0BBE0C3E0C3E0C3E0C3C7
:102DF000E0C3E0C3E0C3E0C3E0C3E0C3E0C3E0C3BB
:102E0000E0C380BBDEFFFFFF80BBFFFFFFFFFFFFD4
:102E1000FFFFFFFFFFFFFFFFFFFFFFFFFFFFFFFFC2
:102E2000FFFFFFFFFFFFFFFFFFFFFFFFFFFFFFFFB2
:102E3000FFFFFFFFFFFFFFFFFFFF64CCFFFFB6EECA
:102E400080BBE0C3E0C3E0C3E0C3E0C3E0C3E0C3D2
:102E5000E0C3E0C3E0C3E0C3E0C3E0C3E0C3E0C35A
:102E6000E0C3E0C3E0C3E0C3E0C3E0C3E0C3E0C34A
:102E7000E0C3E0C3E0C3E0C3E0C3E0C3E0C3E0C33A
:102E800080BB9CF739F72AD5FFFFFFFFFFFFFFFF4D
:102E9000FFFFFFFFFFFFFFFFFFFFFFFFFFFF94EEBE
:102EA000F0DDFFFFE0C3C0C3E0C3E0C3E0C3E0C3A5
:102EB000E0C3E0C3E0C3E0C3E0C3E0C3E0C3E0C3FA
:102EC000E0C3E0C3E0C3E0C3E0C3E0C3E0C3E0C3EA
:102ED000E0C3E0C3E0C3E0C3E0C3E0C3E0C3E0C3DA
:102EE000E0C3E0C3E0C3E0C3E0C3E0C3E0C380BB32
:102EF00018EFFFFF22C4FFFFFFFFFFFFFFFFFFFFF1
:102F0000FFFFFFFFFFFFFFFFFFFFFFFFFFFF32E6B7
:102F10004BD5FFFFCEDD80BBE0C3E0C3E0C3E0C321
:102F2000E0C3E0C3E0C380BBADDDFFFFADDD53E632
:102F3000FFFFFFFFFFFFFFFFFFFFFFFFFFFFFFFFA1
:102F4000FFFFFFFFFFFFFFFF01C4FFFF9CF780BBF8
:102F5000E0C3E0C3E0C3E0C3E0C3E0C3E0C3C0C379
:102F6000C0C3FFFFBDF7A0C3FFFFFFFFFFFFFFFFD1
:102F7000FFFFFFFFFFFFFFFFFFFFFFFF3DA59C8C53
:102F8000FFFF1A19FA101A191A191A191A191A1907
:102F90001A19B9089C6BFFFF7B4A5FE7FFFFFFFF31
:102FA000FFFFFFFFFFFFFFFFFFFFFFFFFFFFDA1045
:102FB0003DA5FFFF1EBE3900FA181A191A191A1971
:102FC0001A191A191A191A191A19FA183900DD9446
:102FD000FFFFFDBDB910FFFFFFFFFFFFFFFFFFFF7A
:102FE000FFFFFFFFFFFFFFFFFFFFFFFFFFFFFFFFF1
:102FF000FFFFFFFFFFFFFFFFFFFFFFFFFFFFFFFFE1
:10300000FFFFFFFFFFFFFFFFFFFFFFFFFFFFA0C36B
:10301000FFFFDEFF80BBE0C3E0C3E0C3E0C3E0C36B
:10302000E0C3E0C3E0C3E0C3E0C3E0C3E0C3E0C388
:10303000E0C3A0C329D5FFFF11E66CDDFFFFFFFF52
:10304000FFFFFFFFFFFFFFFFFFFFFFFFFFFFFFFF90
:10305000FFFFFFFFFFFFFFFFFFFFFFFFFFFFFFFF80
:10306000FFFFFFFFFFFFFFFFFFFF64CCFFFF95EEB9
:1030700020BB80BB80BB80BB80BB80BB80BB80BBD8
:1030800080BB80BB80BBA0BBE0C3E0C3E0C3E0C3A8
:10309000E0C3E0C3E0C3E0C3C0C380BB80BB80BB70
:1030A00080BB80BB80BB80BB80BB80BB80BB80BB48
:1030B00040BB9CF739F72AD5FFFFFFFFFFFFFFFF5B
:1030C000FFFFFFFFFFFFFFFFFFFFFFFFFFFF94EE8C
:1030D00010E6FFFFE0C3C0C3E0C3E0C3E0C3E0C34A
:1030E000E0C3E0C3E0C3A0BB80BB80BB80BB80BBB0
:1030F00080BB80BB80BB80BB80BB80BB80BB80BBF8
:1031000080BB80BB80BB80BB80BB80BB80BBE0C37F
:10311000E0C3E0C3E0C3E0C3E0C3E0C3E0C380BBFF
:10312000F8EEFFFF22C4FFFFFFFFFFFFFFFFFFFFDF
:10313000FFFFFFFFFFFFFFFFFFFFFFFFFFFFFFFF9F
:10314000A0C3FFFFFFFFC0C3C0C3E0C3E0C3E0C331
:10315000E0C3E0C3E0C3E0C380BBDEFFFFFFC0C34A
:10316000FFFFFFFFFFFFFFFFFFFFFFFFFFFFFFFF6F
:10317000FFFFFFFFFFFF4BD5D6EEFFFFC6CCA0C37E
:10318000E0C3E0C3E0C3E0C3E0C3E0C3E0C380BB8F
:1031900073E6FFFF43CC18EFFFFFFFFFFFFFFFFFCA
:1031A000FFFFFFFFFFFFFFFFFFFFFFFF3DA59C8C21
:1031B000FFFF1A19FA101A191A191A191A191A19D5
:1031C0001A19B9089C6BFFFF7B4A5FE7FFFFFFFFFF
:1031D000FFFFFFFFFFFFFFFFFFFFFFFF99085DA558
:1031E000FFFFFDBD3900FA181A191A191A191A1910
:1031F0001A191A191A191A19FA183900DD94FFFF49
:10320000FDBDD910FFFFFFFFFFFFFFFFFFFFFFFF27
:10321000FFFFFFFFFFFFFFFFFFFFFFFFFFFFFFFFBE
:10322000FFFFFFFFFFFFFFFFFFFFFFFFFFFFFFFFAE
:10323000FFFFFFFFFFFFFFFFFFFFFFFF4AD595EEF8
:10324000FFFFE8D4A0C3E0C3E0C3E0C3E0C3E0C332
:10325000E0C3E0C3E0C3E0C3E0C3E0C3E0C3E0C356
:10326000E0C3E0C360BB7BF7FFFFC0C3DEFFFFFF2F
:10327000FFFFFFFFFFFFFFFFFFFFFFFFFFFFFFFF5E
:10328000FFFFFFFFFFFFFFFFFFFFFFFFFFFFFFFF4E
:10329000FFFFFFFFFFFFFFFFFFFF64CCFFFFBDFF4E
:1032A000F7EE18EF18EF18EF18EF18EF18EF18EF08
:1032B00018EF18EF39F7CFDDA0BBE0C3E0C3E0C3E0
:1032C000E0C3E0C3E0C3C0C322C45AF718EF18EF4D
:1032D00018EF18EF18EF18EF18EF18EF18EF18EFB6
:1032E000F8EEFFFF39F72AD5FFFFFFFFFFFFFFFFD3
:1032F000FFFFFFFFFFFFFFFFFFFFFFFFFFFF94EE5A
:1033000010E6FFFFE0C3C0C3E0C3E0C3E0C3E0C317
:10331000E0C3E0C3A0BBCEDD39F718EF18EF18EF1C
:1033200018EF18EF18EF18EF18EF18EF18EF18EF65
:1033300018EF18EF18EF18EF18EF18EFB5EEA0C35D
:10334000E0C3E0C3E0C3E0C3E0C3E0C3E0C380BBCD
:10335000F8EEFFFF22C4FFFFFFFFFFFFFFFFFFFFAD
:10336000FFFFFFFFFFFFFFFFFFFFFFFFFFFFFFFF6D
:10337000F7EEA6CCFFFF73E680BBE0C3E0C3E0C37B
:10338000E0C3E0C3E0C3E0C3A0C3E8D4FFFF73E63B
:103390008DDDFFFFFFFFFFFFFFFFFFFFFFFFFFFFD1
:1033A000FFFFFFFFBDFF64CCFFFF19EF60BBE0C371
:1033B000E0C3E0C3E0C3E0C3E0C3E0C3C0C322C4D2
:1033C000FFFF18EF22C4FFFFFFFFFFFFFFFFFFFF1C
:1033D000FFFFFFFFFFFFFFFFFFFFFFFF3DA59C8CEF
:1033E000FFFF1A19FA101A191A191A191A191A19A3
:1033F0001A19B9089C6BFFFF7B4A7FEFFFFFFFFFA5
:10340000FFFFFFFFFFFFFFFFFFFFB9107DADFFFFD5
:10341000BDB55900FA181A191A191A191A191A19D0
:103420001A191A191A19FA183900BC94FFFF1EBE8E
:10343000FA18FFFFFFFFFFFFFFFFFFFFFFFFFFFF88
:10344000FFFFFFFFFFFFFFFFFFFFFFFFFFFFFFFF8C
:10345000FFFFFFFFFFFFFFFFFFFFFFFFFFFFFFFF7C
:10346000FFFFFFFFFFFFFFFFFFFFDEFFE1C3FFFFE7
:103470005AF780BBE0C3E0C3E0C3E0C3E0C3E0C3EE
:10348000E0C3E0C3E0C3E0C3E0C3E0C3E0C3E0C324
:10349000E0C3E0C3C0C385CCFFFFB5EEE7D4FFFFB8
:1034A000FFFFFFFFFFFFFFFFFFFFFFFFFFFFFFFF2C
:1034B000FFFFFFFFFFFFFFFFFFFFFFFFFFFFFFFF1C
:1034C000FFFFFFFFFFFFFFFFFFFF44CCBDFFBDFF7E
:1034D000DEFFDEFFDEFFDEFFDEFFDEFFDEFFDEFF04
:1034E000DEFFDFFFFFFF74E680BBE0C3E0C3E0C3A5
:1034F000E0C3E0C3E0C3C0C322C4FFFFFFFFDEFFA1
:10350000DEFFDEFFDEFFDEFFDEFFDEFFDEFFDEFFD3
:10351000DEFFDEFFD6EE29D5FFFFFFFFFFFFFFFF37
:10352000FFFFFFFFFFFFFFFFFFFFFFFFFFFF94EE27
:1035300010E6FFFFE0C3C0C3E0C3E0C3E0C3E0C3E5
:10354000E0C3E0C380BB74E6FFFFFFFFDEFFDEFFEA
:10355000DEFFDEFFDEFFDEFFDEFFDEFFDEFFDEFF83
:10356000DEFFDEFFDEFFDEFFDEFFFFFFBDFFA0BBF5
:10357000E0C3E0C3E0C3E0C3E0C3E0C3E0C380BB9B
:10358000F8EEFFFF22C4FFFFFFFFFFFFFFFFFFFF7B
:10359000FFFFFFFFFFFFFFFFFFFFFFFFFFFFFFFF3B
:1035A000FFFF22C47BF7FFFF22C4C0C3E0C3E0C318
:1035B000E0C3E0C3E0C3E0C3E0C360BB5AF7FFFF72
:1035C00022C4DEFFFFFFFFFFFFFFFFFFFFFFFFFF44
:1035D000FFFFFFFFC7D45BF7FFFF22C4C0C3E0C3F8
:1035E000E0C3E0C3E0C3E0C3E0C3E0C360BBF8EE08
:1035F000FFFFE0C37BF7FFFFFFFFFFFFFFFFFFFFC2
:10360000FFFFFFFFFFFFFFFFFFFFFFFF3DA59C8CBC
:10361000FFFF1A19FA101A191A191A191A191A1970
:103620001A19B9089C6BFFFF5B427DAD3EC61EC6F2
:103630001EC61EC61EC65EC6FA185DA5FFFFBDB536
:103640005900FA181A191A191A191A191A191A19DD
:103650001A191A19FA1839007C8CFFFF3EC6FA189D
:10366000FFFFFFFFFFFFFFFFFFFFFFFFFFFFFFFF6A
:10367000FFFFFFFFFFFFFFFFFFFFFFFFFFFFFFFF5A
:10368000FFFFFFFFFFFFFFFFFFFFFFFFFFFFFFFF4A
:10369000FFFFFFFFFFFFFFFFFFFFC7CC18EFFFFF9C
:1036A00085CCC0C3E0C3E0C3E0C3E0C3E0C3E0C374
:1036B000E0C3C0C3E0C3C0C3E0C3E0C3E0C3E0C332
:1036C000E0C3E0C3E0C360BB18EFFFFF22C45BF7B9
:1036D000FFFFFFFFFFFFFFFFFFFFFFFFFFFFFFFFFA
:1036E000FFFFFFFFFFFFFFFFFFFFFFFFFFFFFFFFEA
:1036F000FFFFFFFFFFFFFFFFFFFF4BD585CCA6CCF1
:10370000A6CCA6CCA6CCA6CCA6CCA6CCA6CCA6CC29
:10371000A6CCC0C3FFFF73E680BBE0C3E0C3E0C339
:10372000E0C3E0C3E0C3C0C322C4FFFFF0E522C48E
:10373000A6CCA6CCA6CCA6CCA6CCA6CCA6CCA6CCF9
:10374000A6CCA6CC85CC11E6FFFFFFFFFFFFFFFF55
:10375000FFFFFFFFFFFFFFFFFFFFFFFFFFFF94EEF5
:1037600010E6FFFFE0C3C0C3E0C3E0C3E0C3E0C3B3
:10377000E0C3E0C380BB53E6FFFF01C4A6CCA6CCE8
:10378000A6CCA6CCA6CCA6CCA6CCA6CCA6CCA6CCA9
:10379000A6CCA6CCA6CCA6CCC0C35AF7BDFFA0BB76
:1037A000E0C3E0C3E0C3E0C3E0C3E0C3E0C380BB69
:1037B000F8EEFFFF22C4FFFFFFFFFFFFFFFFFFFF49
:1037C000FFFFFFFFFFFFFFFFFFFFFFFFFFFFFFFF09
:1037D000FFFF5BF743CCFFFFF7EE60BBE0C3E0C346
:1037E000E0C3E0C3E0C3E0C3E0C3C0C364CCFFFFF9
:1037F00018EFE8D4FFFFFFFFFFFFFFFFFFFFFFFF12
:10380000FFFF39F7E8D4FFFF94EE80BBE0C3E0C3CD
:10381000E0C3E0C3E0C3E0C3E0C3C0C3A6CCFFFF86
:1038200074E6C7D4FFFFFFFFFFFFFFFFFFFFFFFFAF
:10383000FFFFFFFFFFFFFFFFFFFFFFFF3DA59C8C8A
:10384000FFFF1A19FA101A191A191A191A191A193E
:103850001A19B9089C6BFFFF1D9D7B6B7B6B7B6B03
:103860007B6B7B6B7B6B5B63BDB5FFFFDDB559008D
:10387000FA181A191A191A191A191A191A191A19D1
:103880001A19FA1859001C84FFFF7ECED910FFFFC9
:10389000FFFFFFFFFFFFFFFFFFFFFFFFFFFFFFFF38
:1038A000FFFFFFFFFFFFFFFFFFFFFFFFFFFFFFFF28
:1038B000FFFFFFFFFFFFFFFFFFFFFFFFFFFFFFFF18
:1038C000FFFFFFFFFFFFFFFF5AF784CCFFFFF7EE7C
:1038D00060BBE0C3E0C3E0C3E0C3E0C3E0C3E0C358
:1038E000C0C364CC39F760BBE0C3E0C3E0C3E0C34E
:1038F000E0C3E0C3E0C3C0C322C4FFFF39F764CC18
:10390000FFFFFFFFFFFFFFFFFFFFFFFFFFFFFFFFC7
:10391000FFFFFFFFFFFFFFFFFFFFFFFFFFFFFFFFB7
:10392000FFFFFFFFFFFFFFFFFFFFFFFFFFFFFFFFA7
:10393000FFFFFFFFFFFFFFFFFFFFFFFFFFFFFFFF97
:10394000FFFF43CCFFFF73E680BBE0C3E0C3E0C3EF
:10395000E0C3E0C3E0C3C0C322C4FFFFCFDDF8EE85
:10396000FFFFFFFFFFFFFFFFFFFFFFFFFFFFFFFF67
:10397000FFFFFFFFFFFFFFFFFFFFFFFFFFFFFFFF57
:10398000FFFFFFFFFFFFFFFFFFFFFFFFFFFF94EEC3
:1039900010E6FFFFE0C3C0C3E0C3E0C3E0C3E0C381
:1039A000E0C3E0C380BB53E6FFFF22C4FFFFFFFF7D
:1039B000FFFFFFFFFFFFFFFFFFFFFFFFFFFFFFFF17
:1039C000FFFFFFFFFFFFFFFFADDD39F7BDFFA0BB2E
:1039D000E0C3E0C3E0C3E0C3E0C3E0C3E0C380BB37
:1039E000F8EEFFFF22C4FFFFFFFFFFFFFFFFFFFF17
:1039F000FFFFFFFFFFFFFFFFFFFFFFFFFFFFFFFFD7
:103A0000FFFFFFFFC7CCF7EEFFFF85CCC0C3E0C3CD
:103A1000E0C3E0C3E0C3E0C3E0C3E0C360BBD6EEF5
:103A2000FFFFA5CC5BF7FFFFFFFFFFFFFFFFFFFFDF
:103A3000FFFF64CCDEFFFFFFC0C3C0C3E0C3E0C331
:103A4000E0C3E0C3E0C3E0C3E0C360BB7BF7FFFFBC
:103A5000C0C3DEFFFFFFFFFFFFFFFFFFFFFFFFFF12
:103A6000FFFFFFFFFFFFFFFFFFFFFFFF3DA59C8C58
:103A7000FFFF1A19FA101A191A191A191A191A190C
:103A80001A19B908DC73FFFFFFFFFFFFFFFFFFFFFD
:103A9000FFFFFFFFFFFFFFFFFFFFFDBD3900FA182B
:103AA0001A191A191A191A191A191A191A191A197E
:103AB000FA185900FC7BFFFFBED69908DFFFFFFF15
:103AC000FFFFFFFFFFFFFFFFFFFFFFFFFFFFFFFF06
:103AD000FFFFFFFFFFFFFFFFFFFFFFFFFFFFFFFFF6
:103AE000FFFFFFFFFFFFFFFFFFFFFFFFFFFFFFFFE6
:103AF000FFFFFFFFFFFFFFFF64CC7BF7FFFF01C469
:103B0000C0C3E0C3E0C3E0C3E0C3E0C3E0C3E0C3BD
:103B100060BB18F7FFFFA6CCC0C3E0C3E0C3E0C39F
:103B2000E0C3E0C3E0C3E0C380BB74E6FFFFA6CC04
:103B3000D7EEFFFFFFFFFFFFFFFFFFFFFFFFFFFFCE
:103B4000FFFFFFFFFFFFFFFFFFFFFFFFFFFFFFFF85
:103B5000FFFFFFFFFFFFFFFFFFFFFFFFFFFFFFFF75
:103B6000FFFFFFFFFFFFFFFFFFFFFFFFFFFFFFFF65
:103B7000FFFF43C4FFFF73E680BBE0C3E0C3E0C3C5
:103B8000E0C3E0C3E0C3C0C322C4FFFFCFDDD6EE75
:103B9000FFFFFFFFFFFFFFFFFFFFFFFFFFFFFFFF35
:103BA000FFFFFFFFFFFFFFFFFFFFFFFFFFFFFFFF25
:103BB000FFFFFFFFFFFFFFFFFFFFFFFFFFFF94EE91
:103BC00010E6FFFFE0C3C0C3E0C3E0C3E0C3E0C34F
:103BD000E0C3E0C380BB53E6FFFF22C4FFFFFFFF4B
:103BE000FFFFFFFFFFFFFFFFFFFFFFFFFFFFFFFFE5
:103BF000FFFFFFFFFFFFFFFF8CDD39F7BDFFA0BB1D
:103C0000E0C3E0C3E0C3E0C3E0C3E0C3E0C380BB04
:103C1000F8EEFFFF22C4FFFFFFFFFFFFFFFFFFFFE4
:103C2000FFFFFFFFFFFFFFFFFFFFFFFFFFFFFFFFA4
:103C3000FFFFFFFFBDFF01C4FFFF7BF760BBE0C3D9
:103C4000E0C3E0C3E0C3E0C3E0C3E0C3C0C3E1C37B
:103C5000FFFF9CF765CCFFFFFFFFFFFFFFFFFFFFAC
:103C6000B5EE6CDDFFFFF0DD80BBE0C3E0C3E0C379
:103C7000E0C3E0C3E0C3E0C3A0C329D5FFFFEFDD8D
:103C80006CDDFFFFFFFFFFFFFFFFFFFFFFFFFFFFF9
:103C9000FFFFFFFFFFFFFFFFFFFFFFFF3DA59C8C26
:103CA000FFFF1A19FA101A191A191A191A191A19DA
:103CB0001A19FA185A21FA31DA31DA31DA31DA31ED
:103CC000DA31DA31DA31DA31FA319908FA181A19B7
:103CD0001A191A191A191A191A191A191A19FA186D
:103CE0005900BC73FFFF1EDF5900DFFFFFFFFFFF1E
:103CF000FFFFFFFFFFFFFFFFFFFFFFFFFFFFFFFFD4
:103D0000FFFFFFFFFFFFFFFFFFFFFFFFFFFFFFFFC3
:103D1000FFFFFFFFFFFFFFFFFFFFFFFFFFFFFFFFB3
:103D2000FFFFFFFFFFFFD6EEE8D4FFFF53E680BBA7
:103D3000E0C3E0C3E0C3E0C3E0C3E0C3E0C3A0C3AB
:103D4000C7D4FFFFFFFF9CF760BBE0C3E0C3E0C345
:103D5000E0C3E0C3E0C3E0C3C0C3C0C3FFFFBDF71F
:103D6000E0C3FFFFFFFFFFFFFFFFFFFFFFFFFFFFBE
:103D7000FFFFFFFFFFFFFFFFFFFFFFFFFFFFFFFF53
:103D8000FFFFFFFFFFFFFFFFFFFFFFFFFFFFFFFF43
:103D9000FFFFFFFFFFFFFFFFFFFFFFFFFFFFFFFF33
:103DA000FFFF43C4FFFF73E680BBE0C3E0C3E0C393
:103DB000E0C3E0C3E0C3C0C322C4FFFFCFDDD6EE43
:103DC000FFFFFFFFFFFFFFFFFFFFFFFFFFFFFFFF03
:103DD000FFFFFFFFFFFFFFFFFFFFFFFFFFFFFFFFF3
:103DE000FFFFFFFFFFFFFFFFFFFFFFFFFFFF94EE5F
:103DF00010E6FFFFE0C3C0C3E0C3E0C3E0C3E0C31D
:103E0000E0C3E0C380BB53E6FFFF22C4FFFFFFFF18
:103E1000FFFFFFFFFFFFFFFFFFFFFFFFFFFFFFFFB2
:103E2000FFFFFFFFFFFFFFFF8CDD39F7BDFFA0BBEA
:103E3000E0C3E0C3E0C3E0C3E0C3E0C3E0C380BBD2
:103E4000F8EEFFFF22C4FFFFFFFFFFFFFFFFFFFFB2
:103E5000FFFFFFFFFFFFFFFFFFFFFFFFFFFFFFFF72
:103E6000FFFFFFFFFFFF4BD553E6FFFF09D5A0C3C0
:103E7000E0C3E0C3E0C3E0C3E0C3E0C3E0C380BB92
:103E800031E6FFFF2AD5D6EEFFFFFFFFFFFFFFFF62
:103E900022C4FFFFFFFFA0BBC0C3E0C3E0C3E0C379
:103EA000E0C3E0C3E0C3E0C380BBFFFFFFFFC0C3CC
:103EB000FFFFFFFFFFFFFFFFFFFFFFFFFFFFFFFF12
:103EC000FFFFFFFFFFFFFFFFFFFFFFFF3DA59C8CF4
:103ED000FFFF1A19FA101A191A191A191A191A19A8
:103EE0001A191A19FA18D910D910D910D910D910CD
:103EF000D910D910D910D910DA10FA181A191A19BC
:103F00001A191A191A191A191A191A191A195900F3
:103F10009B6BFFFF3EE71900DFFFFFFFFFFFFFFF87
:103F2000FFFFFFFFFFFFFFFFFFFFFFFFFFFFFFFFA1
:103F3000FFFFFFFFFFFFFFFFFFFFFFFFFFFFFFFF91
:103F4000FFFFFFFFFFFFFFFFFFFFFFFFFFFFFFFF81
:103F5000FFFFFFFFFFFF01C4FFFFFFFFC0C3C0C3A0
:103F6000E0C3E0C3E0C3E0C3E0C3E0C3E0C360BBC1
:103F7000BDF7FFFFD7EEFFFF4AD5A0BBE0C3E0C30C
:103F8000E0C3E0C3E0C3E0C3E0C380BBEFDDFFFFFD
:103F900029D553E6FFFFFFFFFFFFFFFFFFFFFFFFF6
:103FA000FFFFFFFFFFFFFFFFFFFFFFFFFFFFFFFF21
:103FB000FFFFFFFFFFFFFFFFFFFFFFFFFFFFFFFF11
:103FC000FFFFFFFFFFFFFFFFFFFFFFFFFFFFFFFF01
:103FD000FFFF43C4FFFF73E680BBE0C3E0C3E0C361
:103FE000E0C3E0C3E0C3C0C322C4FFFFCFDDD6EE11
:103FF000FFFFFFFFFFFFFFFFFFFFFFFFFFFFFFFFD1
:10400000FFFFFFFFFFFFFFFFFFFFFFFFFFFFFFFFC0
:10401000FFFFFFFFFFFFFFFFFFFFFFFFFFFF94EE2C
:1040200010E6FFFFE0C3C0C3E0C3E0C3E0C3E0C3EA
:10403000E0C3E0C380BB53E6FFFF22C4FFFFFFFFE6
:10404000FFFFFFFFFFFFFFFFFFFFFFFFFFFFFFFF80
:10405000FFFFFFFFFFFFFFFF8CDD39F7BDFFA0BBB8
:10406000E0C3E0C3E0C3E0C3E0C3E0C3E0C380BBA0
:10407000F8EEFFFF22C4FFFFFFFFFFFFFFFFFFFF80
:10408000FFFFFFFFFFFFFFFFFFFFFFFFFFFFFFFF40
:10409000FFFFFFFFFFFFFFFFE0C3FFFFFFFF60BB6E
:1040A000E0C3E0C3E0C3E0C3E0C3E0C3E0C3C0C318
:1040B000A0C3FFFFFFFF01C4FFFFFFFFFFFF10E6EC
:1040C00011E6FFFF4BD5A0BBE0C3E0C3E0C3E0C3F4
:1040D000E0C3E0C3E0C3A0BB8DDDFFFF4BD511E61D
:1040E000FFFFFFFFFFFFFFFFFFFFFFFFFFFFFFFFE0
:1040F000FFFFFFFFFFFFFFFFFFFFFFFF3DA59C8CC2
:10410000FFFF1A19FA101A191A191A191A191A1975
:104110001A191A191A191A191A191A191A191A1907
:104120001A191A191A191A191A191A191A191A19F7
:104130001A191A191A191A191A191A1959007B6B0E
:10414000FFFF3EE73900BFF7FFFFFFFFFFFFFFFF65
:10415000FFFFFFFFFFFFFFFFFFFFFFFFFFFFFFFF6F
:10416000FFFFFFFFFFFFFFFFFFFFFFFFFFFFFFFF5F
:10417000FFFFFFFFFFFFFFFFFFFFFFFFFFFFFFFF4F
:10418000FFFFFFFF31E68DDDFFFFAEDD80BBE0C34B
:10419000E0C3E0C3E0C3E0C3E0C3E0C3A0BB6CDDA9
:1041A000FFFF32E640BBFFFFFFFF60BBE0C3E0C3A1
:1041B000E0C3E0C3E0C3E0C3E0C3C0C3A0BBFFFFF4
:1041C000FFFFA0BBFFFFFFFFFFFFFFFFFFFFFFFFA2
:1041D000FFFFFFFFFFFFFFFFFFFFFFFFFFFFFFFFEF
:1041E000FFFFFFFFFFFFFFFFFFFFFFFFFFFFFFFFDF
:1041F000FFFFFFFFFFFFFFFFFFFFFFFFFFFFFFFFCF
:10420000FFFF43C4FFFF73E680BBE0C3E0C3E0C32E
:10421000E0C3E0C3E0C3C0C322C4FFFFCFDDD6EEDE
:10422000FFFFFFFFFFFFFFFFFFFFFFFFFFFFFFFF9E
:10423000FFFFFFFFFFFFFFFFFFFFFFFFFFFFFFFF8E
:10424000FFFFFFFFFFFFFFFFFFFFFFFFFFFF94EEFA
:1042500010E6FFFFE0C3C0C3E0C3E0C3E0C3E0C3B8
:10426000E0C3E0C380BB53E6FFFF22C4FFFFFFFFB4
:10427000FFFFFFFFFFFFFFFFFFFFFFFFFFFFFFFF4E
:10428000FFFFFFFFFFFFFFFF8CDD39F7BDFFA0BB86
:10429000E0C3E0C3E0C3E0C3E0C3E0C3E0C380BB6E
:1042A000F8EEFFFF22C4FFFFFFFFFFFFFFFFFFFF4E
:1042B000FFFFFFFFFFFFFFFFFFFFFFFFFFFFFFFF0E
:1042C000FFFFFFFFFFFFFFFF10E6AEDDFFFF8DDD0D
:1042D000A0BBE0C3E0C3E0C3E0C3E0C3E0C3E0C30E
:1042E000A0BB6CDDFFFFEFDD11E6FFFFFFFF01C4A8
:1042F000FFFF9CF780BBE0C3E0C3E0C3E0C3E0C3C3
:10430000E0C3E0C3C0C380BBFFFFDEFFC0C3FFFF4D
:10431000FFFFFFFFFFFFFFFFFFFFFFFFFFFFFFFFAD
:10432000FFFFFFFFFFFFFFFFFFFFFFFF3DA59C8C8F
:10433000FFFF1A19FA101A191A191A191A191A1943
:104340001A191A191A191A191A191A191A191A19D5
:104350001A191A191A191A191A191A191A191A19C5
:104360001A191A191A191A191A19B9109C6BFFFF80
:104370003EE75900DFF7FFFFFFFFFFFFFFFFFFFFF3
:10438000FFFFFFFFFFFFFFFFFFFFFFFFFFFFFFFF3D
:10439000FFFFFFFFFFFFFFFFFFFFFFFFFFFFFFFF2D
:1043A000FFFFFFFFFFFFFFFFFFFFFFFFFFFFFFFF1D
:1043B000FFFFFFFFE0C3FFFFFFFF80BBC0C3E0C301
:1043C000E0C3E0C3E0C3E0C3E0C3C0C3A0BBFFFFE2
:1043D000FFFF64CCD6EE4AD5FFFFEFDD80BBE0C324
:1043E000E0C3E0C3E0C3E0C3E0C3E0C3A0BB4BD580
:1043F000FFFFCEDDAEDDFFFFFFFFFFFFFFFFFFFF93
:10440000FFFFFFFFFFFFFFFFFFFFFFFFFFFFFFFFBC
:10441000FFFFFFFFFFFFFFFFFFFFFFFFFFFFFFFFAC
:10442000FFFFFFFFFFFFFFFFFFFFFFFFFFFFFFFF9C
:10443000FFFF43C4FFFF73E680BBE0C3E0C3E0C3FC
:10444000E0C3E0C3E0C3C0C322C4FFFFCFDDD6EEAC
:10445000FFFFFFFFFFFFFFFFFFFFFFFFFFFFFFFF6C
:10446000FFFFFFFFFFFFFFFFFFFFFFFFFFFFFFFF5C
:10447000FFFFFFFFFFFFFFFFFFFFFFFFFFFF94EEC8
:1044800010E6FFFFE0C3C0C3E0C3E0C3E0C3E0C386
:10449000E0C3E0C380BB53E6FFFF22C4FFFFFFFF82
:1044A000FFFFFFFFFFFFFFFFFFFFFFFFFFFFFFFF1C
:1044B000FFFFFFFFFFFFFFFF8CDD39F7BDFFA0BB54
:1044C000E0C3E0C3E0C3E0C3E0C3E0C3E0C380BB3C
:1044D000F8EEFFFF22C4FFFFFFFFFFFFFFFFFFFF1C
:1044E000FFFFFFFFFFFFFFFFFFFFFFFFFFFFFFFFDC
:1044F000FFFFFFFFFFFFFFFFFFFFE0C3FFFFFFFF27
:1045000080BBC0C3E0C3E0C3E0C3E0C3E0C3E0C31B
:10451000E0C380BBBDFFFFFF01C4FFFF4BD5D6EE5C
:10452000FFFFC6CCA0C3E0C3E0C3E0C3E0C3E0C369
:10453000E0C3E0C380BB32E6FFFFA6CCD6EEFFFFB0
:10454000FFFFFFFFFFFFFFFFFFFFFFFFFFFFFFFF7B
:10455000FFFFFFFFFFFFFFFFFFFFFFFF3DA59C8C5D
:10456000FFFF1A19FA101A191A191A191A191A1911
:104570001A191A191A191A191A191A191A191A19A3
:104580001A191A191A191A191A191A191A191A1993
:104590001A191A191A191A191A19DA10BA31FFFF49
:1045A000FFFFFA391D9DFFFFFFFFFFFFFFFFFFFF2A
:1045B000FFFFFFFFFFFFFFFFFFFFFFFFFFFFFFFF0B
:1045C000FFFFFFFFFFFFFFFFFFFFFFFFFFFFFFFFFB
:1045D000FFFFFFFFFFFFFFFFFFFFFFFFFFFFFFFFEB
:1045E000FFFF8CDD32E6FFFF4AD5A0BBE0C3E0C38E
:1045F000E0C3E0C3E0C3E0C3E0C380BB11E6FFFF5C
:104600004BDD18EFFFFF64CCBDFFFFFFC0C3C0C38D
:10461000E0C3E0C3E0C3E0C3E0C3E0C3E0C380BBEA
:104620009CF7FFFF80BBFFFFFFFFFFFFFFFFFFFFC8
:10463000FFFFFFFFFFFFFFFFFFFFFFFFFFFFFFFF8A
:10464000FFFFFFFFFFFFFFFFFFFFFFFFFFFFFFFF7A
:10465000FFFFFFFFFFFFFFFFFFFFFFFFFFFFFFFF6A
:10466000FFFF43C4FFFF73E680BBE0C3E0C3E0C3CA
:10467000E0C3E0C3E0C3C0C322C4FFFFCFDDD6EE7A
:10468000FFFFFFFFFFFFFFFFFFFFFFFFFFFFFFFF3A
:10469000FFFFFFFFFFFFFFFFFFFFFFFFFFFFFFFF2A
:1046A000FFFFFFFFFFFFFFFFFFFFFFFFFFFF94EE96
:1046B00010E6FFFFE0C3C0C3E0C3E0C3E0C3E0C354
:1046C000E0C3E0C380BB53E6FFFF22C4FFFFFFFF50
:1046D000FFFFFFFFFFFFFFFFFFFFFFFFFFFFFFFFEA
:1046E000FFFFFFFFFFFFFFFF8CDD39F7BDFFA0BB22
:1046F000E0C3E0C3E0C3E0C3E0C3E0C3E0C380BB0A
:10470000F8EEFFFF22C4FFFFFFFFFFFFFFFFFFFFE9
:10471000FFFFFFFFFFFFFFFFFFFFFFFFFFFFFFFFA9
:10472000FFFFFFFFFFFFFFFFFFFF95EE09D5FFFF34
:1047300031E680BBE0C3E0C3E0C3E0C3E0C3E0C355
:10474000E0C3A0C3E7D4FFFFB5EE2AD564CCFFFFDA
:1047500018EF80BBE0C3E0C3E0C3E0C3E0C3E0C345
:10476000E0C3C0C301C4FFFF5AF722C4FFFFFFFF2D
:10477000FFFFFFFFFFFFFFFFFFFFFFFFFFFFFFFF49
:10478000FFFFFFFFFFFFFFFFFFFFFFFF3DA59C8C2B
:10479000FFFF1A19FA101A191A191A191A191A19DF
:1047A0001A191A191A191A191A191A191A191A1971
:1047B0001A191A191A191A191A191A191A191A1961
:1047C0001A191A191A191A191A191A19B9107A294B
:1047D000FFFFFFFF7A293DA5FFFFFFFFFFFFFFFF60
:1047E000FFFFFFFFFFFFFFFFFFFFFFFFFFFFFFFFD9
:1047F000FFFFFFFFFFFFFFFFFFFFFFFFFFFFFFFFC9
:10480000FFFFFFFFFFFFFFFFFFFFFFFFFFFFFFFFB8
:10481000FFFFE0C3FFFF7CF780BBE0C3E0C3E0C362
:10482000E0C3E0C3E0C3E0C3C0C3C0C3FFFF9CF765
:10483000A0C373E652E66BDD64CCFFFF94EE80BB51
:10484000E0C3E0C3E0C3E0C3E0C3E0C3E0C3A0C390
:10485000C7CCFFFF53E609D5FFFFFFFFFFFFFFFFB8
:10486000FFFFFFFFFFFFFFFFFFFFFFFFFFFFFFFF58
:10487000FFFFFFFFFFFFFFFFFFFFFFFFFFFFFFFF48
:10488000FFFFFFFFFFFFFFFFFFFFFFFFFFFFFFFF38
:10489000FFFF43C4FFFF73E680BBE0C3E0C3E0C398
:1048A000E0C3E0C3E0C3C0C322C4FFFFCFDDD6EE48
:1048B000FFFFFFFFFFFFFFFFFFFFFFFFFFFFFFFF08
:1048C000FFFFFFFFFFFFFFFFFFFFFFFFFFFFFFFFF8
:1048D000FFFFFFFFFFFFFFFFFFFFFFFFFFFF94EE64
:1048E00010E6FFFFE0C3C0C3E0C3E0C3E0C3E0C322
:1048F000E0C3E0C380BB53E6FFFF22C4FFFFFFFF1E
:10490000FFFFFFFFFFFFFFFFFFFFFFFFFFFFFFFFB7
:10491000FFFFFFFFFFFFFFFF8CDD39F7BDFFA0BBEF
:10492000E0C3E0C3E0C3E0C3E0C3E0C3E0C380BBD7
:10493000F8EEFFFF22C4FFFFFFFFFFFFFFFFFFFFB7
:10494000FFFFFFFFFFFFFFFFFFFFFFFFFFFFFFFF77
:10495000FFFFFFFFFFFFFFFFFFFFFFFF22C4BDFFC1
:10496000FFFFE0C3C0C3E0C3E0C3E0C3E0C3E0C3F4
:10497000E0C3E0C380BB39F7FFFFE0C37BF7FFFF75
:1049800043CCC0C3E0C3E0C3E0C3E0C3E0C3E0C3C3
:10499000E0C380BBB6EEFFFF22C45AF7FFFFFFFF64
:1049A000FFFFFFFFFFFFFFFFFFFFFFFFFFFFFFFF17
:1049B000FFFFFFFFFFFFFFFFFFFFFFFF3DA59C8CF9
:1049C000FFFF1A19FA101A191A191A191A191A19AD
:1049D0001A191A19FA18D910D910D910D910D910D2
:1049E000D910D910D910D910D910FA101A191A19CA
:1049F0001A191A191A191A191A191A191A19B90891
:104A00009A29FFFFFFFF1A199DADFFFFFFFFFFFF70
:104A1000FFFFFFFFFFFFFFFFFFFFFFFFFFFFFFFFA6
:104A2000FFFFFFFFFFFFFFFFFFFFFFFFFFFFFFFF96
:104A3000FFFFFFFFFFFFFFFFFFFFFFFFFFFFFFFF86
:104A4000E8D4D6EEFFFFC6CCA0C3E0C3E0C3E0C30A
:104A5000E0C3E0C3E0C3E0C380BBB6EEFFFF19EFE5
:104A600052E631E631E632E631E6FFFFFFFF43CCA6
:104A7000C0C3E0C3E0C3E0C3E0C3E0C3E0C3E0C33E
:104A800080BB19F7FFFFC0C3BDFFFFFFFFFFFFFFA4
:104A9000FFFFFFFFFFFFFFFFFFFFFFFFFFFFFFFF26
:104AA000FFFFFFFFFFFFFFFFFFFFFFFFFFFFFFFF16
:104AB000FFFFFFFFFFFFFFFFFFFFFFFFFFFFFFFF06
:104AC000FFFF43C4FFFF73E680BBE0C3E0C3E0C366
:104AD000E0C3E0C3E0C3C0C322C4FFFFCFDDD6EE16
:104AE000FFFFFFFFFFFFFFFFFFFFFFFFFFFFFFFFD6
:104AF000FFFFFFFFFFFFFFFFFFFFFFFFFFFFFFFFC6
:104B0000FFFFFFFFFFFFFFFFFFFFFFFFFFFF94EE31
:104B100010E6FFFFE0C3C0C3E0C3E0C3E0C3E0C3EF
:104B2000E0C3E0C380BB53E6FFFF22C4FFFFFFFFEB
:104B3000FFFFFFFFFFFFFFFFFFFFFFFFFFFFFFFF85
:104B4000FFFFFFFFFFFFFFFF8CDD39F7BDFFA0BBBD
:104B5000E0C3E0C3E0C3E0C3E0C3E0C3E0C380BBA5
:104B6000F8EEFFFF22C4FFFFFFFFFFFFFFFFFFFF85
:104B7000FFFFFFFFFFFFFFFFFFFFFFFFFFFFFFFF45
:104B8000FFFFFFFFFFFFFFFFFFFFFFFF39F785CCB0
:104B9000FFFFB5EE80BBE0C3E0C3E0C3E0C3E0C30A
:104BA000E0C3E0C3C0C343CCFFFFDEFFFFFF74E6FA
:104BB00080BBE0C3E0C3E0C3E0C3E0C3E0C3E0C345
:104BC000C0C364CCFFFFF7EE85CCFFFFFFFFFFFF04
:104BD000FFFFFFFFFFFFFFFFFFFFFFFFFFFFFFFFE5
:104BE000FFFFFFFFFFFFFFFFFFFFFFFF3DA59C8CC7
:104BF000FFFF1A19FA101A191A191A191A191A197B
:104C00001A19FA187A297B4A5B425B425B425B4283
:104C10005B425B425B425B427B4A3A21D9101A19E4
:104C20001A191A191A191A191A191A191A191A19EC
:104C3000B908BA29FFFFFFFFD910DDB5FFFFFFFF5D
:104C4000FFFFFFFFFFFFFFFFFFFFFFFFFFFFFFFF74
:104C5000FFFFFFFFFFFFFFFFFFFFFFFFFFFFFFFF64
:104C6000FFFFFFFFFFFFFFFFFFFFFFFFFFFFBDF79E
:104C700001C4FFFF18EF80BBE0C3E0C3E0C3E0C3A3
:104C8000E0C3E0C3E0C3C0C3A5CCFFFFFFFFFFFF4D
:104C9000FFFFFFFFFFFFFFFFFFFFFFFFFFFF7BF7B0
:104CA000A0BBE0C3E0C3E0C3E0C3E0C3E0C3E0C334
:104CB000C0C343CCFFFFD7EE85CCFFFFFFFFFFFF54
:104CC000FFFFFFFFFFFFFFFFFFFFFFFFFFFFFFFFF4
:104CD000FFFFFFFFFFFFFFFFFFFFFFFFFFFFFFFFE4
:104CE000FFFFFFFFFFFFFFFFFFFFFFFFFFFFFFFFD4
:104CF000FFFF43C4FFFF73E680BBE0C3E0C3E0C334
:104D0000E0C3E0C3E0C3C0C322C4FFFFCFDDD6EEE3
:104D1000FFFFFFFFFFFFFFFFFFFFFFFFFFFFFFFFA3
:104D2000FFFFFFFFFFFFFFFFFFFFFFFFFFFFFFFF93
:104D3000FFFFFFFFFFFFFFFFFFFFFFFFFFFF94EEFF
:104D400010E6FFFFE0C3C0C3E0C3E0C3E0C3E0C3BD
:104D5000E0C3E0C380BB53E6FFFF22C4FFFFFFFFB9
:104D6000FFFFFFFFFFFFFFFFFFFFFFFFFFFFFFFF53
:104D7000FFFFFFFFFFFFFFFF8CDD39F7BDFFA0BB8B
:104D8000E0C3E0C3E0C3E0C3E0C3E0C3E0C380BB73
:104D9000F8EEFFFF22C4FFFFFFFFFFFFFFFFFFFF53
:104DA000FFFFFFFFFFFFFFFFFFFFFFFFFFFFFFFF13
:104DB000FFFFFFFFFFFFFFFFFFFFFFFFFFFF65CCD0
:104DC0005AF7FFFF64CCC0C3E0C3E0C3E0C3E0C355
:104DD000E0C3E0C3E0C380BB95EEFFFFFFFFC0C3AD
:104DE000C0C3E0C3E0C3E0C3E0C3E0C3E0C3E0C3CB
:104DF00080BB3AF7FFFFC0C3DEFFFFFFFFFFFFFFEF
:104E0000FFFFFFFFFFFFFFFFFFFFFFFFFFFFFFFFB2
:104E1000FFFFFFFFFFFFFFFFFFFFFFFF3DA59C8C94
:104E2000FFFF1A19FA101A191A191A191A191A1948
:104E30001A19B908DC73FFFFFFFFFFFFFFFFFFFF39
:104E4000FFFFFFFFFFFFFFFFFFFFFFFFFA18B91093
:104E50001A191A191A191A191A191A191A191A19BA
:104E60001A19B908BA29FFFFFFFFB9101EBEFFFFCC
:104E7000FFFFFFFFFFFFFFFFFFFFFFFFFFFFFFFF42
:104E8000FFFFFFFFFFFFFFFFFFFFFFFFFFFFFFFF32
:104E9000FFFFFFFFFFFFFFFFFFFFFFFFFFFF43CC11
:104EA0005BF7FFFF43CCC0C3E0C3E0C3E0C3E0C394
:104EB000E0C3E0C3E0C3E0C3E0C3C0C3C0C3C0C33A
:104EC000C0C3C0C3C0C3C0C3C0C3C0C3C0C3E0C3AA
:104ED000E0C3E0C3E0C3E0C3E0C3E0C3E0C3E0C3BA
:104EE000E0C380BBB5EEFFFF22C439F7FFFFFFFF31
:104EF000FFFFFFFFFFFFFFFFFFFFFFFFFFFFFFFFC2
:104F0000FFFFFFFFFFFFFFFFFFFFFFFFFFFFFFFFB1
:104F1000FFFFFFFFFFFFFFFFFFFFFFFFFFFFFFFFA1
:104F2000FFFF43C4FFFF73E680BBE0C3E0C3E0C301
:104F3000E0C3E0C3E0C3C0C322C4FFFFCFDDD6EEB1
:104F4000FFFFFFFFFFFFFFFFFFFFFFFFFFFFFFFF71
:104F5000FFFFFFFFFFFFFFFFFFFFFFFFFFFFFFFF61
:104F6000FFFFFFFFFFFFFFFFFFFFFFFFFFFF94EECD
:104F700010E6FFFFE0C3C0C3E0C3E0C3E0C3E0C38B
:104F8000E0C3E0C380BB53E6FFFF22C4FFFFFFFF87
:104F9000FFFFFFFFFFFFFFFFFFFFFFFFFFFFFFFF21
:104FA000FFFFFFFFFFFFFFFF8CDD39F7BDFFA0BB59
:104FB000E0C3E0C3E0C3E0C3E0C3E0C3E0C380BB41
:104FC000F8EEFFFF22C4FFFFFFFFFFFFFFFFFFFF21
:104FD000FFFFFFFFFFFFFFFFFFFFFFFFFFFFFFFFE1
:104FE000FFFFFFFFFFFFFFFFFFFFFFFFFFFFDEFFF2
:104FF00001C4FFFF39F760BBE0C3E0C3E0C3E0C317
:10500000E0C3E0C3E0C3C0C3E0C3FFFFF0DD80BB8B
:10501000E0C3E0C3E0C3E0C3E0C3E0C3E0C3A0C3B8
:10502000E8D4FFFF52E62AD5FFFFFFFFFFFFFFFF97
:10503000FFFFFFFFFFFFFFFFFFFFFFFFFFFFFFFF80
:10504000FFFFFFFFFFFFFFFFFFFFFFFF3DA59C8C62
:10505000FFFF1A19FA101A191A191A191A191A1916
:105060001A19B9089C6BFFFF1D9D5B637B6B7B6B03
:105070007B6B7B6B7B6B5B63DC73FFFFFFFF3A1922
:10508000B9101A191A191A191A191A191A191A19F2
:105090001A191A19B9089A29FFFFFFFFB9101DC67E
:1050A000FFFFFFFFFFFFFFFFFFFFFFFFFFFFFFFF10
:1050B000FFFFFFFFFFFFFFFFFFFFFFFFFFFFFFFF00
:1050C000FFFFFFFFFFFFFFFFFFFFFFFF18EF85CC94
:1050D000FFFF94E680BBE0C3E0C3E0C3E0C3E0C3EE
:1050E000E0C3E0C3E0C3E0C3E0C3C0C3C0C3C0C308
:1050F000C0C3C0C3C0C3C0C3C0C3C0C3C0C3C0C398
:10510000E0C3E0C3E0C3E0C3E0C3E0C3E0C3E0C387
:10511000E0C3C0C3C0C3FFFF7BF701C4FFFFFFFFB5
:10512000FFFFFFFFFFFFFFFFFFFFFFFFFFFFFFFF8F
:10513000FFFFFFFFFFFFFFFFFFFFFFFFFFFFFFFF7F
:10514000FFFFFFFFFFFFFFFFFFFFFFFFFFFFFFFF6F
:10515000FFFF43C4FFFF73E680BBE0C3E0C3E0C3CF
:10516000E0C3E0C3E0C3C0C322C4FFFFCFDDD6EE7F
:10517000FFFFFFFFFFFFFFFFFFFFFFFFFFFFFFFF3F
:10518000FFFFFFFFFFFFFFFFFFFFFFFFFFFFFFFF2F
:10519000FFFFFFFFFFFFFFFFFFFFFFFFFFFF94EE9B
:1051A00010E6FFFFE0C3C0C3E0C3E0C3E0C3E0C359
:1051B000E0C3E0C380BB53E6FFFF01C4FFFFFFFF76
:1051C000FFFFFFFFFFFFFFFFFFFFFFFFFFFFFFFFEF
:1051D000FFFFFFFFFFFFFFFF6CDD39F7BDFFA0BB47
:1051E000E0C3E0C3E0C3E0C3E0C3E0C3E0C380BB0F
:1051F000F8EEFFFF22C4FFFFFFFFFFFFFFFFFFFFEF
:10520000FFFFFFFFFFFFFFFFFFFFFFFFFFFFFFFFAE
:10521000FFFFFFFFFFFFFFFFFFFFFFFFFFFFFFFF9E
:1052200009D5B6EEFFFFE8D4A0C3E0C3E0C3E0C3F6
:10523000E0C3E0C3E0C3E0C3A0BBCFDDA0C3E0C3D5
:10524000E0C3E0C3E0C3E0C3E0C3E0C3E0C380BBAE
:10525000BDFFFFFFA0BBFFFFFFFFFFFFFFFFFFFF43
:10526000FFFFFFFFFFFFFFFFFFFFFFFFFFFFFFFF4E
:10527000FFFFFFFFFFFFFFFFFFFFFFFF3DA59C8C30
:10528000FFFF1A19FA101A191A191A191A191A19E4
:105290001A19B9089C6BFFFF5B423EC6FEDEDEDEDC
:1052A000DEDEDEDEDEDE1EE79C6BDA31FFFFFFFFB7
:1052B0003A21B9101A191A191A191A191A191A1998
:1052C0001A191A191A199908FA39FFFFFFFFD9108C
:1052D0003EC6FFFFFFFFFFFFFFFFFFFFFFFFFFFFD8
:1052E000FFFFFFFFFFFFFFFFFFFFFFFFFFFFFFFFCE
:1052F000FFFFFFFFFFFFFFFFFFFFFFFF01C4BEFF38
:10530000FFFFC0C3C0C3E0C3E0C3E0C3E0C3E0C36A
:10531000E0C3E0C3E0C3E0C3E0C3E0C3E0C3E0C375
:10532000E0C3E0C3E0C3E0C3E0C3E0C3E0C3E0C365
:10533000E0C3E0C3E0C3E0C3E0C3E0C3E0C3E0C355
:10534000E0C3E0C380BB11E6FFFFC7D494EEFFFFCC
:10535000FFFFFFFFFFFFFFFFFFFFFFFFFFFFFFFF5D
:10536000FFFFFFFFFFFFFFFFFFFFFFFFFFFFFFFF4D
:10537000FFFFFFFFFFFFFFFFFFFFFFFFFFFFFFFF3D
:10538000FFFF43C4FFFF73E680BBE0C3E0C3E0C39D
:10539000E0C3E0C3E0C3C0C322C4FFFFCFDDD6EE4D
:1053A000FFFFFFFFFFFFFFFFFFFFFFFFFFFFFFFF0D
:1053B000FFFFFFFFFFFFFFFFFFFFFFFFFFFFFFFFFD
:1053C000FFFFFFFFFFFFFFFFFFFFFFFFFFFF94EE69
:1053D00010E6FFFFE0C3C0C3E0C3E0C3E0C3E0C327
:1053E000E0C3E0C380BB53E6FFFFC7D443CC43CC4C
:1053F00043CC43CC43CC43CC43CC43CC43CC43CC35
:1054000043CC43CC43CC43CC22C47CF7BDF7A0BBF8
:10541000E0C3E0C3E0C3E0C3E0C3E0C3E0C380BBDC
:10542000F8EEFFFF22C4FFFFFFFFFFFFFFFFFFFFBC
:10543000FFFFFFFFFFFFFFFFFFFFFFFFFFFFFFFF7C
:10544000FFFFFFFFFFFFFFFFFFFFFFFFFFFFFFFF6C
:10545000FFFFE0C3FFFFBDF780BBE0C3E0C3E0C3D5
:10546000E0C3E0C3E0C3E0C3E0C3A0C3E0C3E0C364
:10547000E0C3E0C3E0C3E0C3E0C3E0C3A0BB6CDDB6
:10548000FFFFADDDCFDDFFFFFFFFFFFFFFFFFFFFF2
:10549000FFFFFFFFFFFFFFFFFFFFFFFFFFFFFFFF1C
:1054A000FFFFFFFFFFFFFFFFFFFFFFFF3DA59C8CFE
:1054B000FFFF1A19FA101A191A191A191A191A19B2
:1054C0001A19B9089C6BFFFF7B4A7FEFFFFFFFFFB4
:1054D000FFFFFFFFFFFFFFFFFFFFDC73FA39FFFF56
:1054E000FFFF5A21B9101A191A191A191A191A197B
:1054F0001A191A191A191A1999083B42FFFFFFFFC6
:10550000D9107ECEFFFFFFFFFFFFFFFFFFFFFFFF72
:10551000FFFFFFFFFFFFFFFFFFFFFFFFFFFFFFFF9B
:10552000FFFFFFFFFFFFFFFFFFFF73E62AD5FFFF2F
:10553000F0E580BBE0C3E0C3E0C3E0C3E0C3E0C389
:10554000E0C3E0C3E0C3E0C3E0C3E0C3E0C3E0C343
:10555000E0C3E0C3E0C3E0C3E0C3E0C3E0C3E0C333
:10556000E0C3E0C3E0C3E0C3E0C3E0C3E0C3E0C323
:10557000E0C3E0C3C0C3A0BBFFFFDEFFC0C3FFFFAB
:10558000FFFFFFFFFFFFFFFFFFFFFFFFFFFFFFFF2B
:10559000FFFFFFFFFFFFFFFFFFFFFFFFFFFFFFFF1B
:1055A000FFFFFFFFFFFFFFFFFFFFFFFFFFFFFFFF0B
:1055B000FFFF43C4FFFF73E680BBE0C3E0C3E0C36B
:1055C000E0C3E0C3E0C3C0C322C4FFFFCFDDD6EE1B
:1055D000FFFFFFFFFFFFFFFFFFFFFFFFFFFFFFFFDB
:1055E000FFFFFFFFFFFFFFFFFFFFFFFFFFFFFFFFCB
:1055F000FFFFFFFFFFFFFFFFFFFFFFFFFFFF94EE37
:1056000010E6FFFFE0C3C0C3E0C3E0C3E0C3E0C3F4
:10561000E0C3E0C380BB94E6FFFFFFFFFFFFFFFF97
:10562000FFFFFFFFFFFFFFFFFFFFFFFFFFFFFFFF8A
:10563000FFFFFFFFFFFFFFFFFFFFFFFFDEFFA0BB3E
:10564000E0C3E0C3E0C3E0C3E0C3E0C3E0C380BBAA
:10565000F8EEFFFF22C4FFFFFFFFFFFFFFFFFFFF8A
:10566000FFFFFFFFFFFFFFFFFFFFFFFFFFFFFFFF4A
:10567000FFFFFFFFFFFFFFFFFFFFFFFFFFFFFFFF3A
:10568000FFFFAEDD11E6FFFF6CDDA0BBE0C3E0C3B2
:10569000E0C3E0C3E0C3E0C3E0C3E0C3E0C3E0C3F2
:1056A000E0C3E0C3E0C3E0C3E0C3C0C3A0C3FFFFE7
:1056B000FFFFC0C3FFFFFFFFFFFFFFFFFFFFFFFF75
:1056C000FFFFFFFFFFFFFFFFFFFFFFFFFFFFFFFFEA
:1056D000FFFFFFFFFFFFFFFFFFFFFFFF3DA59C8CCC
:1056E000FFFF1A19FA101A191A191A191A191A1980
:1056F0001A19B9089C6BFFFF7B4A5FE7FFFFFFFFAA
:10570000FFFFFFFFFFFFFFFFFFFFFFFF9C6B1B3A49
:10571000FFFFFFFF5A21B9101A191A191A191A197D
:105720001A191A191A191A191A1999087B4AFFFF16
:10573000FFFFB908BED6FFFFFFFFFFFFFFFFFFFF20
:10574000FFFFFFFFFFFFFFFFFFFFFFFFFFFFFFFF69
:10575000FFFFFFFFFFFFFFFFFFFFE0C3FFFFFFFFB4
:1057600080BBE0C3E0C3E0C3E0C3E0C3E0C3E0C389
:10577000E0C3E0C3E0C3E0C3E0C3E0C3E0C3E0C311
:10578000E0C3E0C3E0C3E0C3E0C3E0C3E0C3E0C301
:10579000E0C3E0C3E0C3E0C3E0C3E0C3E0C3E0C3F1
:1057A000E0C3E0C3E0C3A0BB8CDDFFFF4BD5F0DD61
:1057B000FFFFFFFFFFFFFFFFFFFFFFFFFFFFFFFFF9
:1057C000FFFFFFFFFFFFFFFFFFFFFFFFFFFFFFFFE9
:1057D000FFFFFFFFFFFFFFFFFFFFFFFFFFFFFFFFD9
:1057E000FFFF43C4FFFF73E680BBE0C3E0C3E0C339
:1057F000E0C3E0C3E0C3C0C322C4FFFFCFDDD6EEE9
:10580000FFFFFFFFFFFFFFFFFFFFFFFFFFFFFFFFA8
:10581000FFFFFFFFFFFFFFFFFFFFFFFFFFFFFFFF98
:10582000FFFFFFFFFFFFFFFFFFFFFFFFFFFF94EE04
:1058300010E6FFFFE0C3C0C3E0C3E0C3E0C3E0C3C2
:10584000E0C3E0C3C0C3C7D48DDD6CDD6CDD6CDDAF
:105850006CDD6CDD6CDD6CDD6CDD6CDD6CDD6CDD00
:105860006CDD6CDD6CDD6CDD6CDD6CDD4BD5C0C3DF
:10587000E0C3E0C3E0C3E0C3E0C3E0C3E0C380BB78
:10588000F8EEFFFF22C4FFFFFFFFFFFFFFFFFFFF58
:10589000FFFFFFFFFFFFFFFFFFFFFFFFFFFFFFFF18
:1058A000FFFFFFFFFFFFFFFFFFFFFFFFFFFFFFFF08
:1058B000FFFFFFFF01C4FFFFFFFFA0BBC0C3E0C3AA
:1058C000E0C3E0C3E0C3E0C3E0C3E0C3E0C3E0C3C0
:1058D000E0C3E0C3E0C3E0C3E0C380BB10E6FFFF6A
:1058E00029D573E6FFFFFFFFFFFFFFFFFFFFFFFF6D
:1058F000FFFFFFFFFFFFFFFFFFFFFFFFFFFFFFFFB8
:10590000FFFFFFFFFFFFFFFFFFFFFFFF3DA59C8C99
:10591000FFFF1A19FA101A191A191A191A191A194D
:105920001A19B9089C6BFFFF7B4A5FE7FFFFFFFF77
:10593000FFFFFFFFFFFFFFFFFFFFFFFFFFFF9B6B6F
:105940003B42FFFFFFFF5A21B9101A191A191A1901
:105950001A191A191A191A191A191A1979089B4AAF
:10596000FFFFFFFF79081EDFFFFFFFFFFFFFFFFFC5
:10597000FFFFFFFFFFFFFFFFFFFFFFFFFFFFFFFF37
:10598000FFFFFFFFFFFFFFFFCFDDAEDDFFFF6CDDA1
:10599000A0BBE0C3E0C3E0C3E0C3E0C3E0C3E0C337
:1059A000E0C3E0C3E0C3E0C3E0C3E0C3E0C3E0C3DF
:1059B000E0C3E0C3E0C3E0C3E0C3E0C3E0C3E0C3CF
:1059C000E0C3E0C3E0C3E0C3E0C3E0C3E0C3E0C3BF
:1059D000E0C3E0C3E0C3E0C380BBDEFFFFFFA0C3C2
:1059E000FFFFFFFFFFFFFFFFFFFFFFFFFFFFFFFFC7
:1059F000FFFFFFFFFFFFFFFFFFFFFFFFFFFFFFFFB7
:105A0000FFFFFFFFFFFFFFFFFFFFFFFFFFFFFFFFA6
:105A1000FFFF43C4FFFF73E680BBE0C3E0C3E0C306
:105A2000E0C3E0C3E0C3C0C322C4FFFFCFDDD6EEB6
:105A3000FFFFFFFFFFFFFFFFFFFFFFFFFFFFFFFF76
:105A4000FFFFFFFFFFFFFFFFFFFFFFFFFFFFFFFF66
:105A5000FFFFFFFFFFFFFFFFFFFFFFFFFFFF94EED2
:105A600010E6FFFFE0C3C0C3E0C3E0C3E0C3E0C390
:105A7000E0C3E0C3E0C3C0C3A0C3A0C3A0C3A0C32E
:105A8000A0C3A0C3A0C3A0C3A0C3A0C3A0C3A0C3FE
:105A9000A0C3A0C3A0C3A0C3A0C3A0C3A0C3E0C3AE
:105AA000E0C3E0C3E0C3E0C3E0C3E0C3E0C380BB46
:105AB000F8EEFFFF22C4FFFFFFFFFFFFFFFFFFFF26
:105AC000FFFFFFFFFFFFFFFFFFFFFFFFFFFFFFFFE6
:105AD000FFFFFFFFFFFFFFFFFFFFFFFFFFFFFFFFD6
:105AE000FFFFFFFF52E68DDDFFFFF0E580BBE0C367
:105AF000E0C3E0C3E0C3E0C3E0C3E0C3E0C3E0C38E
:105B0000E0C3E0C3E0C3E0C3C0C3E0C3FFFF9CF752
:105B100022C4FFFFFFFFFFFFFFFFFFFFFFFFFFFFAD
:105B2000FFFFFFFFFFFFFFFFFFFFFFFFFFFFFFFF85
:105B3000FFFFFFFFFFFFFFFFFFFFFFFF3DA59C8C67
:105B4000FFFF1A19FA101A191A191A191A191A191B
:105B50001A19B9089C6BFFFF7B4A5FE7FFFFFFFF45
:105B6000FFFFFFFFFFFFFFFFFFFFFFFFFFFFFFFF45
:105B70009B6BFA39FFFFFFFF1A19B9101A191A198E
:105B80001A191A191A191A191A191A191A1979082F
:105B9000BB52FFFFDFFF59003EE7FFFFFFFFFFFFA4
:105BA000FFFFFFFFFFFFFFFFFFFFFFFFFFFFFFFF05
:105BB000FFFFFFFFFFFFFFFFC0C3FFFFDEFF60BB74
:105BC000E0C3E0C3E0C3E0C3E0C3E0C3E0C3E0C3BD
:105BD000C0C3A0BBA0BBA0BBA0BBA0BBA0BBA0BBC5
:105BE000A0BBA0BBA0BBA0BBA0BBA0BBA0BBA0BBDD
:105BF000A0BBA0BBA0BBA0BBE0C3E0C3E0C3E0C3AD
:105C0000E0C3E0C3E0C3E0C3A0C308D5FFFFF0DDFD
:105C10004BD5FFFFFFFFFFFFFFFFFFFFFFFFFFFF72
:105C2000FFFFFFFFFFFFFFFFFFFFFFFFFFFFFFFF84
:105C3000FFFFFFFFFFFFFFFFFFFFFFFFFFFFFFFF74
:105C4000FFFF43C4FFFF73E680BBE0C3E0C3E0C3D4
:105C5000E0C3E0C3E0C3C0C322C4FFFFCFDDD6EE84
:105C6000FFFFFFFFFFFFFFFFFFFFFFFFFFFFFFFF44
:105C7000FFFFFFFFFFFFFFFFFFFFFFFFFFFFFFFF34
:105C8000FFFFFFFFFFFFFFFFFFFFFFFFFFFF95EE9F
:105C9000EFDDFFFF01C4C0C3E0C3E0C3E0C3E0C366
:105CA000E0C3E0C3E0C3E0C3E0C3E0C3E0C3E0C3DC
:105CB000E0C3E0C3E0C3E0C3E0C3E0C3E0C3E0C3CC
:105CC000E0C3E0C3E0C3E0C3E0C3E0C3E0C3E0C3BC
:105CD000E0C3E0C3E0C3E0C3E0C3E0C3E0C380BB14
:105CE00039F7FFFF22C4FFFFFFFFFFFFFFFFFFFFAA
:105CF000FFFFFFFFFFFFFFFFFFFFFFFFFFFFFFFFB4
:105D0000FFFFFFFFFFFFFFFFFFFFFFFFFFFFFFFFA3
:105D1000FFFFFFFFFFFF22C4DEFFFFFFC0C3C0C3C2
:105D2000E0C3E0C3E0C3E0C3E0C3E0C3E0C3E0C35B
:105D3000E0C3E0C3E0C3E0C360BB95EEFFFF85CCEA
:105D400018EFFFFFFFFFFFFFFFFFFFFFFFFFFFFF5A
:105D5000FFFFFFFFFFFFFFFFFFFFFFFFFFFFFFFF53
:105D6000FFFFFFFFFFFFFFFFFFFFFFFF3DA59C8C35
:105D7000FFFF1A19FA101A191A191A191A191A19E9
:105D80001A19B9089C6BFFFF7B4A5FE7FFFFFFFF13
:105D9000FFFFFFFFFFFFFFFFFFFFFFFFFFFFFFFF13
:105DA000FFFF9C73DA31FFFFFFFFFA18B9101A19D1
:105DB0001A191A191A191A191A191A191A191A194B
:105DC0007908BB52FFFFBFF759005FEFFFFFFFFFEE
:105DD000FFFFFFFFFFFFFFFFFFFFFFFFFFFFFFFFD3
:105DE000FFFFFFFFFFFF2AD553E6FFFFE8D4A0C364
:105DF000E0C3E0C3E0C3E0C3E0C3E0C3E0C3A0C3CB
:105E0000C7D4AEDD8DDD8DDD8DDD8DDD8DDD8DDDF0
:105E10008DDD8DDD8DDD8DDD8DDD8DDD8DDD8DDD32
:105E20008DDD8DDD8DDDAEDD80BBE0C3E0C3E0C385
:105E3000E0C3E0C3E0C3E0C3E0C360BB5AF7FFFFC9
:105E4000A0BBDEFFFFFFFFFFFFFFFFFFFFFFFFFF26
:105E5000FFFFFFFFFFFFFFFFFFFFFFFFFFFFFFFF52
:105E6000FFFFFFFFFFFFFFFFFFFFFFFFFFFFFFFF42
:105E7000FFFF43C4FFFF73E680BBE0C3E0C3E0C3A2
:105E8000E0C3E0C3E0C3C0C322C4FFFFCFDDD6EE52
:105E9000FFFFFFFFFFFFFFFFFFFFFFFFFFFFFFFF12
:105EA000FFFFFFFFFFFFFFFFFFFFFFFFFFFFFFFF02
:105EB000FFFFFFFFFFFFFFFFFFFFFFFFFFFF19F7E0
:105EC0004BD5FFFFA6CCC0C3E0C3E0C3E0C3E0C333
:105ED000E0C3E0C3E0C3E0C3E0C3E0C3E0C3E0C3AA
:105EE000E0C3E0C3E0C3E0C3E0C3E0C3E0C3E0C39A
:105EF000E0C3E0C3E0C3E0C3E0C3E0C3E0C3E0C38A
:105F0000E0C3E0C3E0C3E0C3E0C3E0C3E0C380BBE1
:105F1000DEFF9CF7C6CCFFFFFFFFFFFFFFFFFFFF89
:105F2000FFFFFFFFFFFFFFFFFFFFFFFFFFFFFFFF81
:105F3000FFFFFFFFFFFFFFFFFFFFFFFFFFFFFFFF71
:105F4000FFFFFFFFFFFFF7EEE8D4FFFF94EE80BBFB
:105F5000E0C3E0C3E0C3E0C3E0C3E0C3E0C3E0C329
:105F6000E0C3E0C3E0C3C0C322C4FFFF39F764CC81
:105F7000FFFFFFFFFFFFFFFFFFFFFFFFFFFFFFFF31
:105F8000FFFFFFFFFFFFFFFFFFFFFFFFFFFFFFFF21
:105F9000FFFFFFFFFFFFFFFFFFFFFFFF3DA59C8C03
:105FA000FFFF1A19FA101A191A191A191A191A19B7
:105FB0001A19B9089C6BFFFF7B4A5FE7FFFFFFFFE1
:105FC000FFFFFFFFFFFFFFFFFFFFFFFFFFFFFFFFE1
:105FD000FFFFFFFFDC739A29FFFFFFFF3A19B9109B
:105FE0001A191A191A191A191A191A191A191A1919
:105FF0001A197908BB52FFFF9FEF79005FEFFFFF8F
:10600000FFFFFFFFFFFFFFFFFFFFFFFFFFFFFFFFA0
:10601000FFFFFFFFBDF701C4FFFF5AF760BBE0C3FE
:10602000E0C3E0C3E0C3E0C3E0C3E0C3C0C3A0C3B8
:10603000FFFFFFFFFFFFFFFFFFFFFFFFFFFFFFFF70
:10604000FFFFFFFFFFFFFFFFFFFFFFFFFFFFFFFF60
:10605000FFFFFFFFFFFFFFFF8DDD80BBE0C3E0C35D
:10606000E0C3E0C3E0C3E0C3E0C3C0C364CCFFFF50
:1060700095EEA5CCFFFFFFFFFFFFFFFFFFFFFFFF38
:10608000FFFFFFFFFFFFFFFFFFFFFFFFFFFFFFFF20
:10609000FFFFFFFFFFFFFFFFFFFFFFFFFFFFFFFF10
:1060A000FFFF43C4FFFF73E680BBE0C3E0C3E0C370
:1060B000E0C3E0C3E0C3C0C322C4FFFFCFDDD6EE20
:1060C000FFFFFFFFFFFFFFFFFFFFFFFFFFFFFFFFE0
:1060D000FFFFFFFFFFFFFFFFFFFFFFFFFFFFFFFFD0
:1060E000FFFFFFFFFFFFFFFFFFFFFFFFFFFFFFFFC0
:1060F00001C4FFFF95EE60BBE0C3E0C3E0C3E0C3B3
:10610000E0C3E0C3E0C3E0C3E0C3E0C3E0C3E0C377
:10611000E0C3E0C3E0C3E0C3E0C3E0C3E0C3E0C367
:10612000E0C3E0C3E0C3E0C3E0C3E0C3E0C3E0C357
:10613000E0C3E0C3E0C3E0C3E0C3E0C3A0BBE8D476
:10614000FFFFAEDD52E6FFFFFFFFFFFFFFFFFFFF98
:10615000FFFFFFFFFFFFFFFFFFFFFFFFFFFFFFFF4F
:10616000FFFFFFFFFFFFFFFFFFFFFFFFFFFFFFFF3F
:10617000FFFFFFFFFFFFFFFF64CC7BF7FFFF22C4A1
:10618000C0C3E0C3E0C3E0C3E0C3E0C3E0C3E0C317
:10619000E0C3E0C3E0C360BB39F7FFFF01C49CF775
:1061A000FFFFFFFFFFFFFFFFFFFFFFFFFFFFFFFFFF
:1061B000FFFFFFFFFFFFFFFFFFFFFFFFFFFFFFFFEF
:1061C000FFFFFFFFFFFFFFFFFFFFFFFF3DA59C8CD1
:1061D000FFFF1A19FA101A191A191A191A191A1985
:1061E0001A19B9089C6BFFFF7B4A5FE7FFFFFFFFAF
:1061F000FFFFFFFFFFFFFFFFFFFFFFFFFFFFFFFFAF
:10620000FFFFFFFFFFFFDC73BA29FFFFFFFF3A210B
:10621000B9101A191A191A191A191A191A191A1950
:106220001A19FA1879001B5BFFFF5FE799087FEFE7
:10623000FFFFFFFFFFFFFFFFFFFFFFFFFFFFFFFF6E
:10624000FFFFFFFF85CCF8EEFFFF64CCC0C3E0C3C7
:10625000E0C3E0C3E0C3E0C3E0C3E0C380BB74E6D7
:10626000FFFFF0DD85CCA6CCA6CCA6CCA6CCA6CCD8
:10627000A6CCA6CCA6CCA6CCA6CCA6CCA6CCA6CC8E
:10628000A6CCA6CC64CCBDFFFFFFC0C3C0C3E0C397
:10629000E0C3E0C3E0C3E0C3E0C3E0C380BBD6EE2D
:1062A000FFFFE0C37BF7FFFFFFFFFFFFFFFFFFFFE5
:1062B000FFFFFFFFFFFFFFFFFFFFFFFFFFFFFFFFEE
:1062C000FFFFFFFFFFFFFFFFFFFFFFFFFFFFFFFFDE
:1062D000FFFF43C4FFFF73E680BBE0C3E0C3E0C33E
:1062E000E0C3E0C3E0C3C0C322C4FFFFCFDDD6EEEE
:1062F000FFFFFFFFFFFFFFFFFFFFFFFFFFFFFFFFAE
:10630000FFFFFFFFFFFFFFFFFFFFFFFFFFFFFFFF9D
:10631000FFFFFFFFFFFFFFFFFFFFFFFFFFFFFFFF8D
:10632000A6CC39F7FFFFC7D480BBE0C3E0C3E0C30E
:10633000E0C3E0C3E0C3E0C3E0C3E0C3E0C3E0C345
:10634000E0C3E0C3E0C3E0C3E0C3E0C3E0C3E0C335
:10635000E0C3E0C3E0C3E0C3E0C3E0C3E0C3E0C325
:10636000E0C3E0C3E0C3E0C3E0C3A0BB01C4FFFFE0
:10637000FFFFA0C3FFFFFFFFFFFFFFFFFFFFFFFFC8
:10638000FFFFFFFFFFFFFFFFFFFFFFFFFFFFFFFF1D
:10639000FFFFFFFFFFFFFFFFFFFFFFFFFFFFFFFF0D
:1063A000FFFFFFFFFFFFFFFF7BF764CCFFFF18F746
:1063B00060BBE0C3E0C3E0C3E0C3E0C3E0C3E0C34D
:1063C000E0C3E0C3A0C3C6CCFFFF95EE09D5FFFF35
:1063D000FFFFFFFFFFFFFFFFFFFFFFFFFFFFFFFFCD
:1063E000FFFFFFFFFFFFFFFFFFFFFFFFFFFFFFFFBD
:1063F000FFFFFFFFFFFFFFFFFFFFFFFF3DA59C8C9F
:10640000FFFFFA18D910FA10FA10FA10FA10FA1061
:10641000FA1099089C6BFFFF7B4A5FE7FFFFFFFFC5
:10642000FFFFFFFFFFFFFFFFFFFFFFFFFFFFFFFF7C
:10643000FFFFFFFFFFFFFFFFDC73BA31FFFFFFFF2E
:106440005A21B908FA10FA10FA10FA10FA10FA10D4
:10645000FA10FA10FA1059003B63FFFF1EDFB91063
:106460009FF7FFFFFFFFFFFFFFFFFFFFFFFFFFFFA4
:10647000FFFF39F764CCFFFFB5EE60BBC0C3C0C3FC
:10648000C0C3C0C3C0C3C0C3C0C3A0C322C4FFFF36
:106490009CF785CCFFFFFFFFFFFFFFFFFFFFFFFF24
:1064A000FFFFFFFFFFFFFFFFFFFFFFFFFFFFFFFFFC
:1064B000FFFFFFFF18EF43CCFFFF94EE60BBC0C3AC
:1064C000C0C3C0C3C0C3C0C3C0C3C0C3C0C301C472
:1064D000FFFF39F722C4FFFFFFFFFFFFFFFFFFFFB2
:1064E000FFFFFFFFFFFFFFFFFFFFFFFFFFFFFFFFBC
:1064F000FFFFFFFFFFFFFFFFFFFFFFFFFFFFFFFFAC
:10650000FFFF43C4FFFF73E680BBC0C3C0C3C0C36B
:10651000C0C3C0C3C0C3C0C302C4FFFFCFDDD6EE3B
:10652000FFFFFFFFFFFFFFFFFFFFFFFFFFFFFFFF7B
:10653000FFFFFFFFFFFFFFFFFFFFFFFFFFFFFFFF6B
:10654000FFFFFFFFFFFFFFFFFFFFFFFFFFFFFFFF5B
:10655000DEFFA0C3FFFFFFFF4BD560BBA0BBC0C3E6
:10656000C0C3C0C3C0C3C0C3C0C3C0C3C0C3C0C313
:10657000C0C3C0C3C0C3C0C3C0C3C0C3C0C3C0C303
:10658000C0C3C0C3C0C3C0C3C0C3C0C3C0C3C0C3F3
:10659000C0C3C0C3C0C3A0BB60BB09D5FFFFFFFF22
:1065A00043CCB6EEFFFFFFFFFFFFFFFFFFFFFFFF44
:1065B000FFFFFFFFFFFFFFFFFFFFFFFFFFFFFFFFEB
:1065C000FFFFFFFFFFFFFFFFFFFFFFFFFFFFFFFFDB
:1065D000FFFFFFFFFFFFFFFFFFFFE8D418EFFFFF04
:1065E000A6CCA0BBC0C3C0C3C0C3C0C3C0C3C0C3CC
:1065F000C0C3C0C380BB9CF7FFFFA0C3FFFFFFFF6A
:10660000FFFFFFFFFFFFFFFFFFFFFFFFFFFFFFFF9A
:10661000FFFFFFFFFFFFFFFFFFFFFFFFFFFFFFFF8A
:10662000FFFFFFFFFFFFFFFFFFFFFFFF3DA59C8C6C
:10663000FFFF7A293A215A215A215A215A215A21F7
:106640005A21FA18DC73FFFF7B4A5FE7FFFFFFFF69
:10665000FFFFFFFFFFFFFFFFFFFFFFFFFFFFFFFF4A
:10666000FFFFFFFFFFFFFFFFFFFFBC73DA31FFFFFC
:10667000FFFFBA293A215A215A215A215A215A2177
:106680005A215A215A215A21B908FC7BFFFFFEDE0C
:10669000B908DFF7FFFFFFFFFFFFFFFFFFFFFFFF6F
:1066A000FFFF01C47BF7FFFF43CCE1C301C401C47A
:1066B00001C401C401C401C401C4C0C339F7FFFF50
:1066C00064CC9CF7FFFFFFFFFFFFFFFFFFFFFFFF13
:1066D000FFFFFFFFFFFFFFFFFFFFFFFFFFFFFFFFCA
:1066E000FFFFFFFFFFFFA6CCD7EEFFFFA6CCE1C365
:1066F00001C401C401C401C401C401C401C4C0C3B4
:1067000052E6FFFF64CCD6EEFFFFFFFFFFFFFFFF67
:10671000FFFFFFFFFFFFFFFFFFFFFFFFFFFFFFFF89
:10672000FFFFFFFFFFFFFFFFFFFFFFFFFFFFFFFF79
:10673000FFFF43C4FFFF74E6C0C301C401C401C42A
:1067400001C401C401C401C443CCFFFFCFDDD6EEB8
:10675000FFFFFFFFFFFFFFFFFFFFFFFFFFFFFFFF49
:10676000FFFFFFFFFFFFFFFFFFFFFFFFFFFFFFFF39
:10677000FFFFFFFFFFFFFFFFFFFFFFFFFFFFFFFF29
:10678000FFFFD6EE01C4FFFFFFFF9CF7CEDDA6CCD6
:1067900002C401C401C401C401C401C401C401C4D0
:1067A00001C401C401C401C401C401C401C401C4C1
:1067B00001C401C401C401C401C401C401C401C4B1
:1067C00001C401C485CCCEDD9CF7FFFFFFFF43CCA5
:1067D000F0DDFFFFFFFFFFFFFFFFFFFFFFFFFFFFFA
:1067E000FFFFFFFFFFFFFFFFFFFFFFFFFFFFFFFFB9
:1067F000FFFFFFFFFFFFFFFFFFFFFFFFFFFFFFFFA9
:10680000FFFFFFFFFFFFFFFFFFFFFFFF01C4FFFFD1
:106810007BF7C0C301C401C401C401C401C401C4E5
:1068200001C4E0C34BDDFFFF10E68DDDFFFFFFFF7E
:10683000FFFFFFFFFFFFFFFFFFFFFFFFFFFFFFFF68
:10684000FFFFFFFFFFFFFFFFFFFFFFFFFFFFFFFF58
:10685000FFFFFFFFFFFFFFFFFFFFFFFF3DA5DC94F2
:10686000FFFFFFFFFFFFFFFFFFFFFFFFFFFFFFFF38
:10687000FFFFFFFFFFFFFFFF9B4A5FE7FFFFFFFFF9
:10688000FFFFFFFFFFFFFFFFFFFFFFFFFFFFFFFF18
:10689000FFFFFFFFFFFFFFFFFFFFFFFF9C6BDA31F2
:1068A000FFFFFFFFFFFFFFFFFFFFFFFFFFFFFFFFF8
:1068B000FFFFFFFFFFFFFFFFFFFFFFFFFFFFFFFFE8
:1068C0003EE7FA18FFFFFFFFFFFFFFFFFFFFFFFF9D
:1068D000D6EE08D5FFFFFFFFFFFFFFFFFFFFFFFF23
:1068E000FFFFFFFFFFFFFFFFFFFFFFFFFFFFD6EEF2
:1068F0002AD5FFFFFFFFFFFFFFFFFFFFFFFFFFFFA7
:10690000FFFFFFFFFFFFFFFFFFFFFFFFFFFFFFFF97
:10691000FFFFFFFFFFFFFFFFA0C3FFFFFFFFFFFF22
:10692000FFFFFFFFFFFFFFFFFFFFFFFFFFFFFFFF77
:10693000FFFFFFFFDEFFE0C3FFFFFFFFFFFFFFFFE3
:10694000FFFFFFFFFFFFFFFFFFFFFFFFFFFFFFFF57
:10695000FFFFFFFFFFFFFFFFFFFFFFFFFFFFFFFF47
:10696000FFFF43CCFFFFFFFFFFFFFFFFFFFFFFFF26
:10697000FFFFFFFFFFFFFFFFFFFFFFFFF0DDD6EE92
:10698000FFFFFFFFFFFFFFFFFFFFFFFFFFFFFFFF17
:10699000FFFFFFFFFFFFFFFFFFFFFFFFFFFFFFFF07
:1069A000FFFFFFFFFFFFFFFFFFFFFFFFFFFFFFFFF7
:1069B000FFFFFFFF19EFE0C3CFDDFFFFFFFFFFFF8A
:1069C000FFFFFFFFFFFFFFFFFFFFFFFFFFFFFFFFD7
:1069D000FFFFFFFFFFFFFFFFFFFFFFFFFFFFFFFFC7
:1069E000FFFFFFFFFFFFFFFFFFFFFFFFFFFFFFFFB7
:1069F000FFFFFFFFFFFFFFFFFFFFCFDDE0C3D6EE8E
:106A0000FFFFFFFFFFFFFFFFFFFFFFFFFFFFFFFF96
:106A1000FFFFFFFFFFFFFFFFFFFFFFFFFFFFFFFF86
:106A2000FFFFFFFFFFFFFFFFFFFFFFFFFFFFFFFF76
:106A3000FFFFFFFFFFFFFFFFFFFFFFFF6CDD94E69F
:106A4000FFFFFFFFFFFFFFFFFFFFFFFFFFFFFFFF56
:106A5000FFFFFFFFFFFFFFFFA0BBFFFFFFFFFFFFE9
:106A6000FFFFFFFFFFFFFFFFFFFFFFFFFFFFFFFF36
:106A7000FFFFFFFFFFFFFFFFFFFFFFFFFFFFFFFF26
:106A8000FFFFFFFFFFFFFFFFFFFFFFFF1DA55B42B3
:106A9000DC949C8C9C8C9C8C9C8C9C8C9C8C9C8C6E
:106AA0009C8C9C8C9C8CDD943A195FE7FFFFFFFF68
:106AB000FFFFFFFFFFFFFFFFFFFFFFFFFFFFFFFFE6
:106AC000FFFFFFFFFFFFFFFFFFFFFFFFFFFFBC73A5
:106AD0009A29DD949C8C9C8C9C8C9C8C9C8C9C8C92
:106AE0009C8C9C8C9C8C9C8C9C8C9C8C9C8C9C8C66
:106AF000FD9C1B5B5900BFF7FFFFFFFFFFFFFFFF80
:106B000080BBAEDD10E6F0DDF0DDF0DDF0DDF0DDC8
:106B1000F0DDF0DDF0DDF0DDF0DDF0DD11E6E0C30D
:106B2000FFFFFFFFFFFFFFFFFFFFFFFFFFFFFFFF75
:106B3000FFFFFFFFFFFFFFFFFFFFFFFFFFFFFFFF65
:106B4000FFFFFFFFFFFFFFFFCFDDC7D411E6F0DD42
:106B5000F0DDF0DDF0DDF0DDF0DDF0DDF0DDF0DDCD
:106B6000F0DDF0DD52E6C0C311E6FFFFFFFFFFFFDF
:106B7000FFFFFFFFFFFFFFFFFFFFFFFFFFFFFFFF25
:106B8000FFFFFFFFFFFFFFFFFFFFFFFFFFFFFFFF15
:106B9000FFFFE0C3EFDDF0DDF0DDF0DDF0DDF0DD87
:106BA000F0DDF0DDF0DDF0DDF0DD11E685CCD6EED8
:106BB000FFFFFFFFFFFFFFFFFFFFFFFFFFFFFFFFE5
:106BC000FFFFFFFFFFFFFFFFFFFFFFFFFFFFFFFFD5
:106BD000FFFFFFFFFFFFFFFFFFFFFFFFFFFFFFFFC5
:106BE000FFFFFFFFFFFFFFFF11E643CC64CC4BD557
:106BF000CFDDF0DDF0DDF0DDF0DDF0DDF0DDF0DD4E
:106C0000F0DDF0DDF0DDF0DDF0DDF0DDF0DDF0DD1C
:106C1000F0DDF0DDF0DDF0DDF0DDF0DDF0DDF0DD0C
:106C2000F0DDEFDD6CDD64CC43CC31E6FFFFFFFF30
:106C3000FFFFFFFFFFFFFFFFFFFFFFFFFFFFFFFF64
:106C4000FFFFFFFFFFFFFFFFFFFFFFFFFFFFFFFF54
:106C5000FFFFFFFFFFFFFFFFFFFFFFFFFFFFFFFF44
:106C6000FFFFFFFFFFFFFFFFFFFFFFFFFFFFC0C3AF
:106C700011E6F0DDF0DDF0DDF0DDF0DDF0DDF0DD82
:106C8000F0DDF0DD11E6A6CC52E6FFFFFFFFFFFFCF
:106C9000FFFFFFFFFFFFFFFFFFFFFFFFFFFFFFFF04
:106CA000FFFFFFFFFFFFFFFFFFFFFFFFFFFFFFFFF4
:106CB000FFFFFFFFFFFFFFFFFFFFFFFF5FEFBDB520
:106CC000BDB5BDB5BDB5BDB5BDB5BDB5BDB5BDB534
:106CD000BDB5BDB5BDB5BDB5FDBDDFFFFFFFFFFF58
:106CE000FFFFFFFFFFFFFFFFFFFFFFFFFFFFFFFFB4
:106CF000FFFFFFFFFFFFFFFFFFFFFFFFFFFFFFFFA4
:106D00003EC6BDB5BDB5BDB5BDB5BDB5BDB5BDB561
:106D1000BDB5BDB5BDB5BDB5BDB5BDB5BDB5BDB5E3
:106D2000BDB5FDBDFDBD9ECEFFFFFFFFFFFFBDFF5B
:106D3000B6EEB5EEB5EEB5EEB5EEB5EEB5EEB5EE3A
:106D4000B5EEB5EEB5EEB5EEB5EEB5EE95EE5AF79D
:106D5000FFFFFFFFFFFFFFFFFFFFFFFFFFFFFFFF43
:106D6000FFFFFFFFFFFFFFFFFFFFFFFFFFFFFFFF33
:106D7000FFFFFFFFFFFFFFFFFFFFB5EE95EEB5EE54
:106D8000B5EEB5EEB5EEB5EEB5EEB5EEB5EEB5EEEB
:106D9000B5EEB5EEB5EED6EEF7EEFFFFFFFFFFFF67
:106DA000FFFFFFFFFFFFFFFFFFFFFFFFFFFFFFFFF3
:106DB000FFFFFFFFFFFFFFFFFFFFFFFFFFFFFFFFE3
:106DC000FFFFF7EEB5EEB5EEB5EEB5EEB5EEB5EE0E
:106DD000B5EEB5EEB5EEB5EEB5EEB5EEB5EEBDFF82
:106DE000FFFFFFFFFFFFFFFFFFFFFFFFFFFFFFFFB3
:106DF000FFFFFFFFFFFFFFFFFFFFFFFFFFFFFFFFA3
:106E0000FFFFFFFFFFFFFFFFFFFFFFFFFFFFFFFF92
:106E1000FFFFFFFFFFFFFFFFFFFFFFFFFFFF39F750
:106E2000B5EE95EEB5EEB5EEB5EEB5EEB5EEB5EE6A
:106E3000B5EEB5EEB5EEB5EEB5EEB5EEB5EEB5EE3A
:106E4000B5EEB5EEB5EEB5EEB5EEB5EEB5EEB5EE2A
:106E500095EEB5EE18EFFFFFFFFFFFFFFFFFFFFF0F
:106E6000FFFFFFFFFFFFFFFFFFFFFFFFFFFFFFFF32
:106E7000FFFFFFFFFFFFFFFFFFFFFFFFFFFFFFFF22
:106E8000FFFFFFFFFFFFFFFFFFFFFFFFFFFFFFFF12
:106E9000FFFFFFFFFFFFFFFFFFFFFFFFFFFF5BF7AE
:106EA00095EEB5EEB5EEB5EEB5EEB5EEB5EEB5EEEA
:106EB000B5EEB5EE95EEB5EEFFFFFFFFFFFFFFFF6E
:106EC000FFFFFFFFFFFFFFFFFFFFFFFFFFFFFFFFD2
:106ED000FFFFFFFFFFFFFFFFFFFFFFFFFFFFFFFFC2
:106EE000FFFFFFFFFFFFFFFFFFFFFFFFFFFFFFFFB2
:106EF000FFFFFFFFFFFFFFFFFFFFFFFFFFFFFFFFA2
:107E5000FFFF5ECEBDB5DDB5DDB5DDB5DDB5DDB5AC
:107E6000DDB5DDB5DDB5DDB5DDB5DDB5DDB5DDB582
:107E7000DDB5DDB5DDB5DDB5DDB5DDB5DDB5DDB572
:107E8000DDB5DDB5DDB5DDB5DDB5DDB5DDB5DDB562
:107E9000DDB5DDB5DDB5DDB5DDB5DDB5DDB5DDB552
:107EA000DDB5DDB5DDB5DDB5DDB5DDB5DDB5DDB542
:107EB000DDB5DDB5DDB5DDB5DDB5DDB5DDB5DDB532
:107EC000DDB5DDB5DDB5DDB5DDB5DDB5DDB5DDB522
:107ED000DDB5DDB5DDB5DDB5DDB5DDB5DDB5DDB512
:107EE000DDB5DDB5DDB5DDB5DDB5DDB5DDB5DDB502
:107EF000DDB5DDB5DDB5DDB5DDB5DDB5DDB5DDB5F2
:107F0000DDB5DDB5DDB5DDB5DDB5DDB5DDB5DDB5E1
:107F1000DDB5DDB5DDB5DDB5DDB5DDB5DDB5DDB5D1
:107F2000DDB5DDB5DDB5DDB5DDB5DDB5DDB5DDB5C1
:107F3000DDB5DDB5DDB5DDB5DDB5DDB5DDB5DDB5B1
:107F4000DDB5DDB5DDB5DDB5DDB5DDB5DDB5DDB5A1
:107F5000DDB5DDB5DDB5DDB5DDB5DDB5DDB5DDB591
:107F6000DDB5DDB5DDB5DDB5DDB5DDB5DDB5DDB581
:107F7000DDB5DDB5DDB5DDB5DDB5DDB5DDB5DDB571
:107F8000DDB5DDB5DDB5DDB5DDB5DDB5DDB5DDB561
:107F9000DDB5DDB5DDB5DDB5DDB5DDB5DDB5DDB551
:107FA000DDB5DDB5DDB5DDB5DDB5DDB5DDB5DDB541
:107FB000DDB5DDB5DDB5DDB5DDB5DDB5DDB5DDB531
:107FC000DDB5DDB5DDB5DDB5DDB5DDB5DDB5DDB521
:107FD000DDB5DDB5DDB5DDB5DDB5DDB5DDB5DDB511
:107FE000DDB5DDB5DDB5DDB5DDB5DDB5DDB5DDB501
:107FF000DDB5DDB5DDB5DDB5DDB5DDB5DDB5DDB5F1
:10800000DDB5BDB5BDB5BDB5BDB59DB59DB59DAD28
:108010009DAD7DAD7DAD7DAD5DAD5DA55DA53DA5A8
:108020003DA53DA51D9D1D9D1D9DFD9C3DA59DAD99
:10803000FDBD3EC69ED6FEDE5EE7BFF7FFFFFFFF3B
:10804000FFFFFFFFFFFFFFFFFFFFFFFFFFFFFFFF40
:10805000FFFFFFFFFFFFFFFFFFFFFFFFFFFFFFFF30
:10806000FFFFFFFFFFFFFFFFFFFFFFFFFFFFFFFF20
:10807000FFFFFFFFFFFFFFFFFFFFFFFFFFFFFFFF10
:108080003DA51900790079087908790879087908F7
:1080900079087908790879087908790879087908D8
:1080A00079087908790879087908790879087908C8
:1080B00079087908790879087908790879087908B8
:1080C00079087908790879087908790879087908A8
:1080D0007908790879087908790879087908790898
:1080E0007908790879087908790879087908790888
:1080F0007908790879087908790879087908790878
:108100007908790879087908790879087908790867
:108110007908790879087908790879087908790857
:108120007908790879087908790879087908790847
:108130007908790879087908790879087908790837
:108140007908790879087908790879087908790827
:108150007908790879087908790879087908790817
:108160007908790879087908790879087908790807
:1081700079087908790879087908790879087908F7
:1081800079087908790879087908790879087908E7
:1081900079087908790879087908790879087908D7
:1081A00079087908790879087908790879087908C7
:1081B00079087908790879087908790879087908B7
:1081C00079087908790879087908790879087908A7
:1081D0007908790879087908790879087908790897
:1081E0007908790879087908790879087908790887
:1081F0007908790879087908790879087908790877
:108200007908790879007900590059005900590016
:1082100059003900390039001900190019001900F6
:108220001900190019001900190019001900190086
:10823000190019007900B910FA185A219A29FA314F
:108240005B42BB521B5B9C6BFC7B5C84DC943DA55E
:108250009DB51DBE7ECEDEDE5EE7BFF7DFFFDFFF32
:10826000DFFFFFFFFFFFFFFFFFFFFFFFFFFFFFFF3E
:10827000FFFFFFFFFFFFFFFFFFFFFFFFFFFFFFFF0E
:10828000FFFFFFFFFFFFFFFFFFFFFFFFFFFFFFFFFE
:10829000FFFFFFFFFFFFFFFFFFFFFFFFFFFFFFFFEE
:1082A000FFFFFFFFFFFFFFFFFFFFFFFFFFFF5DA5DA
:1082B0003900FA181A191A191A191A191A191A1941
:1082C0001A191A191A191A191A191A191A191A1916
:1082D0001A191A191A191A191A191A191A191A1906
:1082E0001A191A191A191A191A191A191A191A19F6
:1082F0001A191A191A191A191A191A191A191A19E6
:108300001A191A191A191A191A191A191A191A19D5
:108310001A191A191A191A191A191A191A191A19C5
:108320001A191A191A191A191A191A191A191A19B5
:108330001A191A191A191A191A191A191A191A19A5
:108340001A191A191A191A191A191A191A191A1995
:108350001A191A191A191A191A191A191A191A1985
:108360001A191A191A191A191A191A191A191A1975
:108370001A191A191A191A191A191A191A191A1965
:108380001A191A191A191A191A191A191A191A1955
:108390001A191A191A191A191A191A191A191A1945
:1083A0001A191A191A191A191A191A191A191A1935
:1083B0001A191A191A191A191A191A191A191A1925
:1083C0001A191A191A191A191A191A191A191A1915
:1083D0001A191A191A191A191A191A191A191A1905
:1083E0001A191A191A191A191A191A191A191A19F5
:1083F0001A191A191A191A191A191A191A191A19E5
:108400001A191A191A191A19FA18FA18FA18FA1858
:10841000FA18FA10FA10DA10D910D910B910B910E8
